{
  "_format": "hh-sol-artifact-1",
  "contractName": "StakeTicket",
  "sourceName": "contracts/StakeTicket.sol",
  "abi": [
    {
      "anonymous": false,
      "inputs": [
        {
          "indexed": true,
          "internalType": "address",
          "name": "previousOwner",
          "type": "address"
        },
        {
          "indexed": true,
          "internalType": "address",
          "name": "newOwner",
          "type": "address"
        }
      ],
      "name": "OwnershipTransferred",
      "type": "event"
    },
    {
      "anonymous": false,
      "inputs": [
        {
          "indexed": false,
          "internalType": "address",
          "name": "owner",
          "type": "address"
        },
        {
          "indexed": false,
          "internalType": "uint256",
          "name": "amount",
          "type": "uint256"
        },
        {
          "indexed": false,
          "internalType": "uint256",
          "name": "startTimeSpan",
          "type": "uint256"
        },
        {
          "indexed": false,
          "internalType": "string",
          "name": "supperNode",
          "type": "string"
        },
        {
          "indexed": false,
          "internalType": "string",
          "name": "txHash",
          "type": "string"
        },
        {
          "indexed": false,
          "internalType": "string",
          "name": "withDrawTo",
          "type": "string"
        }
      ],
      "name": "StakeTicketBurn",
      "type": "event"
    },
    {
      "anonymous": false,
      "inputs": [
        {
          "indexed": false,
          "internalType": "address",
          "name": "to",
          "type": "address"
        },
        {
          "indexed": false,
          "internalType": "uint256",
          "name": "tokenId",
          "type": "uint256"
        },
        {
          "indexed": false,
          "internalType": "string",
          "name": "data",
          "type": "string"
        },
        {
          "indexed": false,
          "internalType": "uint256",
          "name": "amount",
          "type": "uint256"
        },
        {
          "indexed": false,
          "internalType": "uint256",
          "name": "startTimeSpan",
          "type": "uint256"
        },
        {
          "indexed": false,
          "internalType": "string",
          "name": "supperNode",
          "type": "string"
        },
        {
          "indexed": false,
          "internalType": "string",
          "name": "txHash",
          "type": "string"
        }
      ],
      "name": "StakeTicketMint",
      "type": "event"
    },
    {
      "inputs": [],
      "name": "ARBITER_NUM",
      "outputs": [
        {
          "internalType": "uint256",
          "name": "",
          "type": "uint256"
        }
      ],
      "stateMutability": "view",
      "type": "function"
    },
    {
      "inputs": [
        {
          "internalType": "address",
          "name": "erc721Address",
          "type": "address"
        },
        {
          "internalType": "string",
          "name": "version",
          "type": "string"
        }
      ],
      "name": "__StakeTicket_init",
      "outputs": [],
      "stateMutability": "nonpayable",
      "type": "function"
    },
    {
      "inputs": [
        {
          "internalType": "uint256",
          "name": "tokenId",
          "type": "uint256"
        }
      ],
      "name": "burnTick",
      "outputs": [],
      "stateMutability": "nonpayable",
      "type": "function"
    },
    {
      "inputs": [],
      "name": "getArbiterList",
      "outputs": [
        {
          "internalType": "bytes32[12]",
          "name": "",
          "type": "bytes32[12]"
        }
      ],
      "stateMutability": "view",
      "type": "function"
    },
    {
      "inputs": [
        {
          "internalType": "uint256",
          "name": "tokenId",
          "type": "uint256"
        }
      ],
      "name": "getTickFromTokenId",
      "outputs": [
        {
          "components": [
            {
              "internalType": "address",
              "name": "owner",
              "type": "address"
            },
            {
              "internalType": "uint256",
              "name": "amount",
              "type": "uint256"
            },
            {
              "internalType": "uint256",
              "name": "startTimeSpan",
              "type": "uint256"
            },
            {
              "internalType": "string",
              "name": "supperNode",
              "type": "string"
            },
            {
              "internalType": "string",
              "name": "txHash",
              "type": "string"
            },
            {
              "internalType": "string",
              "name": "withDrawTo",
              "type": "string"
            }
          ],
          "internalType": "struct StakeTicket.TickInfo",
          "name": "",
          "type": "tuple"
        }
      ],
      "stateMutability": "view",
      "type": "function"
    },
    {
      "inputs": [
        {
          "internalType": "address",
          "name": "to",
          "type": "address"
        },
        {
          "internalType": "uint256",
          "name": "tokenId",
          "type": "uint256"
        },
        {
          "internalType": "string",
          "name": "data",
          "type": "string"
        },
        {
          "internalType": "uint256",
          "name": "amount",
          "type": "uint256"
        },
        {
          "internalType": "uint256",
          "name": "startTimeSpan",
          "type": "uint256"
        },
        {
          "internalType": "string",
          "name": "supperNode",
          "type": "string"
        },
        {
          "internalType": "string",
          "name": "txHash",
          "type": "string"
        },
        {
          "internalType": "string",
          "name": "pubKey",
          "type": "string"
        },
        {
          "internalType": "string",
          "name": "sign",
          "type": "string"
        }
      ],
      "name": "mintTick",
      "outputs": [],
      "stateMutability": "nonpayable",
      "type": "function"
    },
    {
      "inputs": [],
      "name": "owner",
      "outputs": [
        {
          "internalType": "address",
          "name": "",
          "type": "address"
        }
      ],
      "stateMutability": "view",
      "type": "function"
    },
    {
      "inputs": [
        {
          "internalType": "string",
          "name": "_pubkey",
          "type": "string"
        },
        {
          "internalType": "string",
          "name": "_data",
          "type": "string"
        },
        {
          "internalType": "string",
          "name": "_sig",
          "type": "string"
        }
      ],
      "name": "p256Verify",
      "outputs": [
        {
          "internalType": "bool",
          "name": "",
          "type": "bool"
        }
      ],
      "stateMutability": "view",
      "type": "function"
    },
    {
      "inputs": [],
      "name": "renounceOwnership",
      "outputs": [],
      "stateMutability": "nonpayable",
      "type": "function"
    },
    {
      "inputs": [
        {
          "internalType": "address",
          "name": "to",
          "type": "address"
        },
        {
          "internalType": "uint256",
          "name": "tokenId",
          "type": "uint256"
        }
      ],
      "name": "tranferTick",
      "outputs": [],
      "stateMutability": "nonpayable",
      "type": "function"
    },
    {
      "inputs": [
        {
          "internalType": "address",
          "name": "newOwner",
          "type": "address"
        }
      ],
      "name": "transferOwnership",
      "outputs": [],
      "stateMutability": "nonpayable",
      "type": "function"
    },
    {
      "inputs": [
        {
          "internalType": "uint256",
          "name": "tokenId",
          "type": "uint256"
        },
        {
          "internalType": "string",
          "name": "withDrawTo",
          "type": "string"
        }
      ],
      "name": "withDrawTick",
      "outputs": [],
      "stateMutability": "nonpayable",
      "type": "function"
    }
  ],
  "bytecode": "0x608060405234801561001057600080fd5b5061273c806100206000396000f3fe608060405234801561001057600080fd5b50600436106100b45760003560e01c8063aa12bc3c11610071578063aa12bc3c14610167578063b16b5a1314610185578063d6d02ae8146101b5578063d78f7d7b146101d1578063f20711f8146101ed578063f2fde38b14610209576100b4565b806313cf1909146100b95780636ef38232146100d5578063715018a6146100f35780638da5cb5b146100fd57806399e0e4831461011b578063a0d956e914610137575b600080fd5b6100d360048036038101906100ce9190611b7d565b610225565b005b6100dd6104a8565b6040516100ea9190612476565b60405180910390f35b6100fb6104ad565b005b61010561061d565b6040516101129190612213565b60405180910390f35b61013560048036038101906101309190611aed565b610647565b005b610151600480360381019061014c9190611d52565b6107a7565b60405161015e9190612454565b60405180910390f35b61016f610a67565b60405161017c919061239d565b60405180910390f35b61019f600480360381019061019a9190611cbb565b610a96565b6040516101ac91906123b9565b60405180910390f35b6101cf60048036038101906101ca9190611d52565b610af8565b005b6101eb60048036038101906101e69190611d7b565b610d2a565b005b61020760048036038101906102029190611b41565b610e40565b005b610223600480360381019061021e9190611ac4565b610f6d565b005b60008611610268576040517f08c379a000000000000000000000000000000000000000000000000000000000815260040161025f90612414565b60405180910390fd5b6000808a8a8a8a8a8a8a604051602001610288979695949392919061219e565b60405160208183030381529060405290506102a4848285610a96565b9150816102e6576040517f08c379a00000000000000000000000000000000000000000000000000000000081526004016102dd90612434565b60405180910390fd5b87606760008c81526020019081526020016000206001018190555086606760008c81526020019081526020016000206002018190555085606760008c815260200190815260200160002060030190805190602001906103469291906118ae565b5084606760008c815260200190815260200160002060040190805190602001906103719291906118ae565b508a606760008c815260200190815260200160002060000160006101000a81548173ffffffffffffffffffffffffffffffffffffffff021916908373ffffffffffffffffffffffffffffffffffffffff160217905550606560009054906101000a900473ffffffffffffffffffffffffffffffffffffffff1673ffffffffffffffffffffffffffffffffffffffff1663d3fc98648c8c8c6040518463ffffffff1660e01b815260040161042693929190612265565b600060405180830381600087803b15801561044057600080fd5b505af1158015610454573d6000803e3d6000fd5b505050507fdbd3e7b5c77c2988b9eb8fccc94f152009cf19819d5c045ec0b6862501f115f28b8b8b8b8b8b8b60405161049397969594939291906122a3565b60405180910390a15050505050505050505050565b600c81565b6104b5611162565b73ffffffffffffffffffffffffffffffffffffffff166104d361061d565b73ffffffffffffffffffffffffffffffffffffffff161461055c576040517f08c379a00000000000000000000000000000000000000000000000000000000081526004018080602001828103825260208152602001807f4f776e61626c653a2063616c6c6572206973206e6f7420746865206f776e657281525060200191505060405180910390fd5b600073ffffffffffffffffffffffffffffffffffffffff16603360009054906101000a900473ffffffffffffffffffffffffffffffffffffffff1673ffffffffffffffffffffffffffffffffffffffff167f8be0079c531659141344cd1fd0a4f28419497f9722a3daafe3b4186f6b6457e060405160405180910390a36000603360006101000a81548173ffffffffffffffffffffffffffffffffffffffff021916908373ffffffffffffffffffffffffffffffffffffffff160217905550565b6000603360009054906101000a900473ffffffffffffffffffffffffffffffffffffffff16905090565b600060019054906101000a900460ff1680610666575061066561116a565b5b8061067c575060008054906101000a900460ff16155b6106d1576040517f08c379a000000000000000000000000000000000000000000000000000000000815260040180806020018281038252602e8152602001806126d9602e913960400191505060405180910390fd5b60008060019054906101000a900460ff161590508015610721576001600060016101000a81548160ff02191690831515021790555060016000806101000a81548160ff0219169083151502179055505b82606560006101000a81548173ffffffffffffffffffffffffffffffffffffffff021916908373ffffffffffffffffffffffffffffffffffffffff16021790555081606690805190602001906107789291906118ae565b5061078161117b565b80156107a25760008060016101000a81548160ff0219169083151502179055505b505050565b6107af61193c565b600082116107f2576040517f08c379a00000000000000000000000000000000000000000000000000000000081526004016107e9906123f4565b60405180910390fd5b606760008381526020019081526020016000206040518060c00160405290816000820160009054906101000a900473ffffffffffffffffffffffffffffffffffffffff1673ffffffffffffffffffffffffffffffffffffffff1673ffffffffffffffffffffffffffffffffffffffff1681526020016001820154815260200160028201548152602001600382018054600181600116156101000203166002900480601f0160208091040260200160405190810160405280929190818152602001828054600181600116156101000203166002900480156109135780601f106108e857610100808354040283529160200191610913565b820191906000526020600020905b8154815290600101906020018083116108f657829003601f168201915b50505050508152602001600482018054600181600116156101000203166002900480601f0160208091040260200160405190810160405280929190818152602001828054600181600116156101000203166002900480156109b55780601f1061098a576101008083540402835291602001916109b5565b820191906000526020600020905b81548152906001019060200180831161099857829003601f168201915b50505050508152602001600582018054600181600116156101000203166002900480601f016020809104026020016040519081016040528092919081815260200182805460018160011615610100020316600290048015610a575780601f10610a2c57610100808354040283529160200191610a57565b820191906000526020600020905b815481529060010190602001808311610a3a57829003601f168201915b5050505050815250509050919050565b610a6f611988565b610a77611988565b6000610180826000836103e85afa610a8e57600080fd5b819250505090565b600080610aac610aa68686611289565b84611289565b90506000610ab9826113e0565b9050610ac36119ab565b60208160c1846103e95afa610ad757600080fd5b600181600060018110610ae657fe5b60200201511493505050509392505050565b60008111610b3b576040517f08c379a0000000000000000000000000000000000000000000000000000000008152600401610b3290612414565b60405180910390fd5b606560009054906101000a900473ffffffffffffffffffffffffffffffffffffffff1673ffffffffffffffffffffffffffffffffffffffff166342966c68826040518263ffffffff1660e01b8152600401610b969190612476565b600060405180830381600087803b158015610bb057600080fd5b505af1158015610bc4573d6000803e3d6000fd5b505050507fa9da2ec2e28baaa3f6ffcad83158a4e487619df1fe2765a7d87c59c1762b09ca6067600083815260200190815260200160002060000160009054906101000a900473ffffffffffffffffffffffffffffffffffffffff1660676000848152602001908152602001600020600101546067600085815260200190815260200160002060020154606760008681526020019081526020016000206003016067600087815260200190815260200160002060040160676000888152602001908152602001600020600501604051610ca296959493929190612327565b60405180910390a160676000828152602001908152602001600020600080820160006101000a81549073ffffffffffffffffffffffffffffffffffffffff021916905560018201600090556002820160009055600382016000610d0591906119cd565b600482016000610d1591906119cd565b600582016000610d2591906119cd565b505050565b60008211610d6d576040517f08c379a0000000000000000000000000000000000000000000000000000000008152600401610d6490612414565b60405180910390fd5b6067600083815260200190815260200160002060000160009054906101000a900473ffffffffffffffffffffffffffffffffffffffff1673ffffffffffffffffffffffffffffffffffffffff163373ffffffffffffffffffffffffffffffffffffffff1614610e11576040517f08c379a0000000000000000000000000000000000000000000000000000000008152600401610e08906123d4565b60405180910390fd5b80606760008481526020019081526020016000206005019080519060200190610e3b9291906118ae565b505050565b60008111610e83576040517f08c379a0000000000000000000000000000000000000000000000000000000008152600401610e7a90612414565b60405180910390fd5b606560009054906101000a900473ffffffffffffffffffffffffffffffffffffffff1673ffffffffffffffffffffffffffffffffffffffff166342842e0e3384846040518463ffffffff1660e01b8152600401610ee29392919061222e565b600060405180830381600087803b158015610efc57600080fd5b505af1158015610f10573d6000803e3d6000fd5b50505050816067600083815260200190815260200160002060000160006101000a81548173ffffffffffffffffffffffffffffffffffffffff021916908373ffffffffffffffffffffffffffffffffffffffff1602179055505050565b610f75611162565b73ffffffffffffffffffffffffffffffffffffffff16610f9361061d565b73ffffffffffffffffffffffffffffffffffffffff161461101c576040517f08c379a00000000000000000000000000000000000000000000000000000000081526004018080602001828103825260208152602001807f4f776e61626c653a2063616c6c6572206973206e6f7420746865206f776e657281525060200191505060405180910390fd5b600073ffffffffffffffffffffffffffffffffffffffff168173ffffffffffffffffffffffffffffffffffffffff1614156110a2576040517f08c379a00000000000000000000000000000000000000000000000000000000081526004018080602001828103825260268152602001806126b36026913960400191505060405180910390fd5b8073ffffffffffffffffffffffffffffffffffffffff16603360009054906101000a900473ffffffffffffffffffffffffffffffffffffffff1673ffffffffffffffffffffffffffffffffffffffff167f8be0079c531659141344cd1fd0a4f28419497f9722a3daafe3b4186f6b6457e060405160405180910390a380603360006101000a81548173ffffffffffffffffffffffffffffffffffffffff021916908373ffffffffffffffffffffffffffffffffffffffff16021790555050565b600033905090565b6000611175306115f6565b15905090565b600060019054906101000a900460ff168061119a575061119961116a565b5b806111b0575060008054906101000a900460ff16155b611205576040517f08c379a000000000000000000000000000000000000000000000000000000000815260040180806020018281038252602e8152602001806126d9602e913960400191505060405180910390fd5b60008060019054906101000a900460ff161590508015611255576001600060016101000a81548160ff02191690831515021790555060016000806101000a81548160ff0219169083151502179055505b61125d611609565b611265611707565b80156112865760008060016101000a81548160ff0219169083151502179055505b50565b6060600083905060008390506000815183510167ffffffffffffffff811180156112b257600080fd5b506040519080825280601f01601f1916602001820160405280156112e55781602001600182028036833780820191505090505b50905060008190506000805b855181101561135f5785818151811061130657fe5b602001015160f81c60f81b83838060010194508151811061132357fe5b60200101907effffffffffffffffffffffffffffffffffffffffffffffffffffffffffffff1916908160001a90535080806001019150506112f1565b5060005b84518110156113d15784818151811061137857fe5b602001015160f81c60f81b83838060010194508151811061139557fe5b60200101907effffffffffffffffffffffffffffffffffffffffffffffffffffffffffffff1916908160001a9053508080600101915050611363565b50829550505050505092915050565b606060008290506000815167ffffffffffffffff8111801561140157600080fd5b506040519080825280602002602001820160405280156114305781602001602082028036833780820191505090505b50905060005b825181101561150157600083828151811061144d57fe5b602001015160f81c60f81b60f81c905060608160ff16111561149557600a606182030183838151811061147c57fe5b602002602001019060ff16908160ff16815250506114f3565b60428160ff1611156114cd57600a60418203018383815181106114b457fe5b602002602001019060ff16908160ff16815250506114f2565b603081038383815181106114dd57fe5b602002602001019060ff16908160ff16815250505b5b508080600101915050611436565b506000600282518161150f57fe5b0467ffffffffffffffff8111801561152657600080fd5b506040519080825280601f01601f1916602001820160405280156115595781602001600182028036833780820191505090505b50905060005b82518110156115ea5782600182018151811061157757fe5b6020026020010151601084838151811061158d57fe5b6020026020010151020160f81b82600283816115a557fe5b04815181106115b057fe5b60200101907effffffffffffffffffffffffffffffffffffffffffffffffffffffffffffff1916908160001a90535060028101905061155f565b50809350505050919050565b600080823b905060008111915050919050565b600060019054906101000a900460ff1680611628575061162761116a565b5b8061163e575060008054906101000a900460ff16155b611693576040517f08c379a000000000000000000000000000000000000000000000000000000000815260040180806020018281038252602e8152602001806126d9602e913960400191505060405180910390fd5b60008060019054906101000a900460ff1615905080156116e3576001600060016101000a81548160ff02191690831515021790555060016000806101000a81548160ff0219169083151502179055505b80156117045760008060016101000a81548160ff0219169083151502179055505b50565b600060019054906101000a900460ff1680611726575061172561116a565b5b8061173c575060008054906101000a900460ff16155b611791576040517f08c379a000000000000000000000000000000000000000000000000000000000815260040180806020018281038252602e8152602001806126d9602e913960400191505060405180910390fd5b60008060019054906101000a900460ff1615905080156117e1576001600060016101000a81548160ff02191690831515021790555060016000806101000a81548160ff0219169083151502179055505b60006117eb611162565b905080603360006101000a81548173ffffffffffffffffffffffffffffffffffffffff021916908373ffffffffffffffffffffffffffffffffffffffff1602179055508073ffffffffffffffffffffffffffffffffffffffff16600073ffffffffffffffffffffffffffffffffffffffff167f8be0079c531659141344cd1fd0a4f28419497f9722a3daafe3b4186f6b6457e060405160405180910390a35080156118ab5760008060016101000a81548160ff0219169083151502179055505b50565b828054600181600116156101000203166002900490600052602060002090601f0160209004810192826118e4576000855561192b565b82601f106118fd57805160ff191683800117855561192b565b8280016001018555821561192b579182015b8281111561192a57825182559160200191906001019061190f565b5b5090506119389190611a15565b5090565b6040518060c00160405280600073ffffffffffffffffffffffffffffffffffffffff16815260200160008152602001600081526020016060815260200160608152602001606081525090565b604051806101800160405280600c90602082028036833780820191505090505090565b6040518060200160405280600190602082028036833780820191505090505090565b50805460018160011615610100020316600290046000825580601f106119f35750611a12565b601f016020900490600052602060002090810190611a119190611a15565b5b50565b5b80821115611a2e576000816000905550600101611a16565b5090565b6000611a45611a40846124c2565b612491565b905082815260208101848484011115611a5d57600080fd5b611a688482856125f4565b509392505050565b600081359050611a7f81612684565b92915050565b600082601f830112611a9657600080fd5b8135611aa6848260208601611a32565b91505092915050565b600081359050611abe8161269b565b92915050565b600060208284031215611ad657600080fd5b6000611ae484828501611a70565b91505092915050565b60008060408385031215611b0057600080fd5b6000611b0e85828601611a70565b925050602083013567ffffffffffffffff811115611b2b57600080fd5b611b3785828601611a85565b9150509250929050565b60008060408385031215611b5457600080fd5b6000611b6285828601611a70565b9250506020611b7385828601611aaf565b9150509250929050565b60008060008060008060008060006101208a8c031215611b9c57600080fd5b6000611baa8c828d01611a70565b9950506020611bbb8c828d01611aaf565b98505060408a013567ffffffffffffffff811115611bd857600080fd5b611be48c828d01611a85565b9750506060611bf58c828d01611aaf565b9650506080611c068c828d01611aaf565b95505060a08a013567ffffffffffffffff811115611c2357600080fd5b611c2f8c828d01611a85565b94505060c08a013567ffffffffffffffff811115611c4c57600080fd5b611c588c828d01611a85565b93505060e08a013567ffffffffffffffff811115611c7557600080fd5b611c818c828d01611a85565b9250506101008a013567ffffffffffffffff811115611c9f57600080fd5b611cab8c828d01611a85565b9150509295985092959850929598565b600080600060608486031215611cd057600080fd5b600084013567ffffffffffffffff811115611cea57600080fd5b611cf686828701611a85565b935050602084013567ffffffffffffffff811115611d1357600080fd5b611d1f86828701611a85565b925050604084013567ffffffffffffffff811115611d3c57600080fd5b611d4886828701611a85565b9150509250925092565b600060208284031215611d6457600080fd5b6000611d7284828501611aaf565b91505092915050565b60008060408385031215611d8e57600080fd5b6000611d9c85828601611aaf565b925050602083013567ffffffffffffffff811115611db957600080fd5b611dc585828601611a85565b9150509250929050565b6000611ddb8383611e91565b60208301905092915050565b611df0816125be565b82525050565b611dff8161256c565b82525050565b611e0e8161256c565b82525050565b611e25611e208261256c565b612636565b82525050565b611e3481612511565b611e3e8184612534565b9250611e49826124f2565b8060005b83811015611e7a578151611e618782611dcf565b9650611e6c83612527565b925050600181019050611e4d565b505050505050565b611e8b8161257e565b82525050565b611e9a8161258a565b82525050565b6000611eab8261251c565b611eb5818561253f565b9350611ec5818560208601612603565b611ece81612666565b840191505092915050565b6000611ee48261251c565b611eee8185612550565b9350611efe818560208601612603565b611f0781612666565b840191505092915050565b6000611f1d8261251c565b611f278185612561565b9350611f37818560208601612603565b80840191505092915050565b600081546001811660008114611f605760018114611f8657611fca565b607f6002830416611f718187612550565b955060ff198316865260208601935050611fca565b60028204611f948187612550565b9550611f9f856124fc565b60005b82811015611fc157815481890152600182019150602081019050611fa2565b80880195505050505b505092915050565b6000611fdf601b83612550565b91507f7469636b6574206f776e6572206973206e6f7420636f6c6c65637400000000006000830152602082019050919050565b600061201f601b83612550565b91507f746f6b656e206964206d757374206c6172676572207468616e203000000000006000830152602082019050919050565b600061205f601f83612550565b91507f7374616b6520616d6f756e74206d757374206c6172676572207468616e2030006000830152602082019050919050565b600061209f601883612550565b91507f7032353656657269667920646f206e6f742070617373202100000000000000006000830152602082019050919050565b600060c0830160008301516120ea6000860182611df6565b5060208301516120fd6020860182612169565b5060408301516121106040860182612169565b50606083015184820360608601526121288282611ea0565b915050608083015184820360808601526121428282611ea0565b91505060a083015184820360a086015261215c8282611ea0565b9150508091505092915050565b612172816125b4565b82525050565b612181816125b4565b82525050565b612198612193826125b4565b61265a565b82525050565b60006121aa828a611e14565b6014820191506121ba8289612187565b6020820191506121ca8288611f12565b91506121d68287612187565b6020820191506121e68286612187565b6020820191506121f68285611f12565b91506122028284611f12565b915081905098975050505050505050565b60006020820190506122286000830184611e05565b92915050565b60006060820190506122436000830186611de7565b6122506020830185611e05565b61225d6040830184612178565b949350505050565b600060608201905061227a6000830186611e05565b6122876020830185612178565b81810360408301526122998184611ed9565b9050949350505050565b600060e0820190506122b8600083018a611e05565b6122c56020830189612178565b81810360408301526122d78188611ed9565b90506122e66060830187612178565b6122f36080830186612178565b81810360a08301526123058185611ed9565b905081810360c08301526123198184611ed9565b905098975050505050505050565b600060c08201905061233c6000830189611e05565b6123496020830188612178565b6123566040830187612178565b81810360608301526123688186611f43565b9050818103608083015261237c8185611f43565b905081810360a08301526123908184611f43565b9050979650505050505050565b6000610180820190506123b36000830184611e2b565b92915050565b60006020820190506123ce6000830184611e82565b92915050565b600060208201905081810360008301526123ed81611fd2565b9050919050565b6000602082019050818103600083015261240d81612012565b9050919050565b6000602082019050818103600083015261242d81612052565b9050919050565b6000602082019050818103600083015261244d81612092565b9050919050565b6000602082019050818103600083015261246e81846120d2565b905092915050565b600060208201905061248b6000830184612178565b92915050565b6000604051905081810181811067ffffffffffffffff821117156124b8576124b7612664565b5b8060405250919050565b600067ffffffffffffffff8211156124dd576124dc612664565b5b601f19601f8301169050602081019050919050565b6000819050919050565b60008190508160005260206000209050919050565b6000600c9050919050565b600081519050919050565b6000602082019050919050565b600081905092915050565b600082825260208201905092915050565b600082825260208201905092915050565b600081905092915050565b600061257782612594565b9050919050565b60008115159050919050565b6000819050919050565b600073ffffffffffffffffffffffffffffffffffffffff82169050919050565b6000819050919050565b60006125c9826125d0565b9050919050565b60006125db826125e2565b9050919050565b60006125ed82612594565b9050919050565b82818337600083830152505050565b60005b83811015612621578082015181840152602081019050612606565b83811115612630576000848401525b50505050565b600061264182612648565b9050919050565b600061265382612677565b9050919050565b6000819050919050565bfe5b6000601f19601f8301169050919050565b60008160601b9050919050565b61268d8161256c565b811461269857600080fd5b50565b6126a4816125b4565b81146126af57600080fd5b5056fe4f776e61626c653a206e6577206f776e657220697320746865207a65726f2061646472657373496e697469616c697a61626c653a20636f6e747261637420697320616c726561647920696e697469616c697a6564a2646970667358221220f727b58e9a42d9f3a5af710eb9ee875fb57e8607d725e4ba042449001e5b944c64736f6c63430007060033",
  "linkReferences": {},
  "deployedLinkReferences": {}
}