{
  "_format": "hh-sol-artifact-1",
  "contractName": "StakeTicket",
  "sourceName": "contracts/StakeTicket.sol",
  "abi": [
    {
      "inputs": [
        {
          "internalType": "address",
          "name": "erc721Address",
          "type": "address"
        },
        {
          "internalType": "string",
          "name": "version",
          "type": "string"
        }
      ],
      "name": "__StakeTicket_init",
      "outputs": [],
      "stateMutability": "nonpayable",
      "type": "function"
    },
    {
      "inputs": [
        {
          "internalType": "uint256",
          "name": "tokenId",
          "type": "uint256"
        }
      ],
      "name": "burnTick",
      "outputs": [],
      "stateMutability": "nonpayable",
      "type": "function"
    },
    {
      "inputs": [
        {
          "internalType": "uint256",
          "name": "tokenId",
          "type": "uint256"
        }
      ],
      "name": "getTickFromTokenId",
      "outputs": [
        {
          "components": [
            {
              "internalType": "address",
              "name": "owner",
              "type": "address"
            },
            {
              "internalType": "uint256",
              "name": "amount",
              "type": "uint256"
            },
            {
              "internalType": "uint256",
              "name": "startTimeSpan",
              "type": "uint256"
            },
            {
              "internalType": "string",
              "name": "supperNode",
              "type": "string"
            },
            {
              "internalType": "string",
              "name": "txHash",
              "type": "string"
            },
            {
              "internalType": "string",
              "name": "withDrawTo",
              "type": "string"
            }
          ],
          "internalType": "struct StakeTicket.TickInfo",
          "name": "",
          "type": "tuple"
        }
      ],
      "stateMutability": "view",
      "type": "function"
    },
    {
      "inputs": [
        {
          "internalType": "address",
          "name": "to",
          "type": "address"
        },
        {
          "internalType": "uint256",
          "name": "tokenId",
          "type": "uint256"
        },
        {
          "internalType": "string",
          "name": "_data",
          "type": "string"
        },
        {
          "internalType": "uint256",
          "name": "amount",
          "type": "uint256"
        },
        {
          "internalType": "uint256",
          "name": "startTimeSpan",
          "type": "uint256"
        },
        {
          "internalType": "string",
          "name": "supperNode",
          "type": "string"
        },
        {
          "internalType": "string",
          "name": "txHash",
          "type": "string"
        }
      ],
      "name": "mintTick",
      "outputs": [],
      "stateMutability": "nonpayable",
      "type": "function"
    },
    {
      "inputs": [
        {
          "internalType": "address",
          "name": "to",
          "type": "address"
        },
        {
          "internalType": "uint256",
          "name": "tokenId",
          "type": "uint256"
        }
      ],
      "name": "tranferTick",
      "outputs": [],
      "stateMutability": "nonpayable",
      "type": "function"
    },
    {
      "inputs": [
        {
          "internalType": "uint256",
          "name": "tokenId",
          "type": "uint256"
        },
        {
          "internalType": "string",
          "name": "withDrawTo",
          "type": "string"
        }
      ],
      "name": "withDrawTick",
      "outputs": [],
      "stateMutability": "nonpayable",
      "type": "function"
    }
  ],
  "bytecode": "0x608060405234801561001057600080fd5b50611381806100206000396000f3fe608060405234801561001057600080fd5b50600436106100625760003560e01c806399e0e48314610067578063a0d956e914610083578063cc09874c146100b3578063d6d02ae8146100cf578063d78f7d7b146100eb578063f20711f814610107575b600080fd5b610081600480360381019061007c9190610c81565b610123565b005b61009d60048036038101906100989190610df7565b61027b565b6040516100aa919061115d565b60405180910390f35b6100cd60048036038101906100c89190610d11565b61053b565b005b6100e960048036038101906100e49190610df7565b6106f9565b005b61010560048036038101906101009190610e20565b610849565b005b610121600480360381019061011c9190610cd5565b61095f565b005b600060019054906101000a900460ff16806101425750610141610a8c565b5b80610158575060008054906101000a900460ff16155b6101ad576040517f08c379a000000000000000000000000000000000000000000000000000000000815260040180806020018281038252602e81526020018061131e602e913960400191505060405180910390fd5b60008060019054906101000a900460ff1615905080156101fd576001600060016101000a81548160ff02191690831515021790555060016000806101000a81548160ff0219169083151502179055505b82600060026101000a81548173ffffffffffffffffffffffffffffffffffffffff021916908373ffffffffffffffffffffffffffffffffffffffff1602179055508160019080519060200190610254929190610ab0565b5080156102765760008060016101000a81548160ff0219169083151502179055505b505050565b610283610b3e565b600082116102c6576040517f08c379a00000000000000000000000000000000000000000000000000000000081526004016102bd9061111d565b60405180910390fd5b600260008381526020019081526020016000206040518060c00160405290816000820160009054906101000a900473ffffffffffffffffffffffffffffffffffffffff1673ffffffffffffffffffffffffffffffffffffffff1673ffffffffffffffffffffffffffffffffffffffff1681526020016001820154815260200160028201548152602001600382018054600181600116156101000203166002900480601f0160208091040260200160405190810160405280929190818152602001828054600181600116156101000203166002900480156103e75780601f106103bc576101008083540402835291602001916103e7565b820191906000526020600020905b8154815290600101906020018083116103ca57829003601f168201915b50505050508152602001600482018054600181600116156101000203166002900480601f0160208091040260200160405190810160405280929190818152602001828054600181600116156101000203166002900480156104895780601f1061045e57610100808354040283529160200191610489565b820191906000526020600020905b81548152906001019060200180831161046c57829003601f168201915b50505050508152602001600582018054600181600116156101000203166002900480601f01602080910402602001604051908101604052809291908181526020018280546001816001161561010002031660029004801561052b5780601f106105005761010080835404028352916020019161052b565b820191906000526020600020905b81548152906001019060200180831161050e57829003601f168201915b5050505050815250509050919050565b6000841161057e576040517f08c379a00000000000000000000000000000000000000000000000000000000081526004016105759061113d565b60405180910390fd5b836002600088815260200190815260200160002060010181905550826002600088815260200190815260200160002060020181905550816002600088815260200190815260200160002060030190805190602001906105de929190610ab0565b5080600260008881526020019081526020016000206004019080519060200190610609929190610ab0565b50866002600088815260200190815260200160002060000160006101000a81548173ffffffffffffffffffffffffffffffffffffffff021916908373ffffffffffffffffffffffffffffffffffffffff160217905550600060029054906101000a900473ffffffffffffffffffffffffffffffffffffffff1673ffffffffffffffffffffffffffffffffffffffff1663d3fc98648888886040518463ffffffff1660e01b81526004016106be939291906110bf565b600060405180830381600087803b1580156106d857600080fd5b505af11580156106ec573d6000803e3d6000fd5b5050505050505050505050565b6000811161073c576040517f08c379a00000000000000000000000000000000000000000000000000000000081526004016107339061113d565b60405180910390fd5b600060029054906101000a900473ffffffffffffffffffffffffffffffffffffffff1673ffffffffffffffffffffffffffffffffffffffff166342966c68826040518263ffffffff1660e01b8152600401610797919061117f565b600060405180830381600087803b1580156107b157600080fd5b505af11580156107c5573d6000803e3d6000fd5b5050505060026000828152602001908152602001600020600080820160006101000a81549073ffffffffffffffffffffffffffffffffffffffff0219169055600182016000905560028201600090556003820160006108249190610b8a565b6004820160006108349190610b8a565b6005820160006108449190610b8a565b505050565b6000821161088c576040517f08c379a00000000000000000000000000000000000000000000000000000000081526004016108839061113d565b60405180910390fd5b6002600083815260200190815260200160002060000160009054906101000a900473ffffffffffffffffffffffffffffffffffffffff1673ffffffffffffffffffffffffffffffffffffffff163373ffffffffffffffffffffffffffffffffffffffff1614610930576040517f08c379a0000000000000000000000000000000000000000000000000000000008152600401610927906110fd565b60405180910390fd5b8060026000848152602001908152602001600020600501908051906020019061095a929190610ab0565b505050565b600081116109a2576040517f08c379a00000000000000000000000000000000000000000000000000000000081526004016109999061113d565b60405180910390fd5b600060029054906101000a900473ffffffffffffffffffffffffffffffffffffffff1673ffffffffffffffffffffffffffffffffffffffff166342842e0e3384846040518463ffffffff1660e01b8152600401610a0193929190611088565b600060405180830381600087803b158015610a1b57600080fd5b505af1158015610a2f573d6000803e3d6000fd5b50505050816002600083815260200190815260200160002060000160006101000a81548173ffffffffffffffffffffffffffffffffffffffff021916908373ffffffffffffffffffffffffffffffffffffffff1602179055505050565b6000610a9730610a9d565b15905090565b600080823b905060008111915050919050565b828054600181600116156101000203166002900490600052602060002090601f016020900481019282610ae65760008555610b2d565b82601f10610aff57805160ff1916838001178555610b2d565b82800160010185558215610b2d579182015b82811115610b2c578251825591602001919060010190610b11565b5b509050610b3a9190610bd2565b5090565b6040518060c00160405280600073ffffffffffffffffffffffffffffffffffffffff16815260200160008152602001600081526020016060815260200160608152602001606081525090565b50805460018160011615610100020316600290046000825580601f10610bb05750610bcf565b601f016020900490600052602060002090810190610bce9190610bd2565b5b50565b5b80821115610beb576000816000905550600101610bd3565b5090565b6000610c02610bfd846111cb565b61119a565b905082815260208101848484011115610c1a57600080fd5b610c2584828561129a565b509392505050565b600081359050610c3c816112ef565b92915050565b600082601f830112610c5357600080fd5b8135610c63848260208601610bef565b91505092915050565b600081359050610c7b81611306565b92915050565b60008060408385031215610c9457600080fd5b6000610ca285828601610c2d565b925050602083013567ffffffffffffffff811115610cbf57600080fd5b610ccb85828601610c42565b9150509250929050565b60008060408385031215610ce857600080fd5b6000610cf685828601610c2d565b9250506020610d0785828601610c6c565b9150509250929050565b600080600080600080600060e0888a031215610d2c57600080fd5b6000610d3a8a828b01610c2d565b9750506020610d4b8a828b01610c6c565b965050604088013567ffffffffffffffff811115610d6857600080fd5b610d748a828b01610c42565b9550506060610d858a828b01610c6c565b9450506080610d968a828b01610c6c565b93505060a088013567ffffffffffffffff811115610db357600080fd5b610dbf8a828b01610c42565b92505060c088013567ffffffffffffffff811115610ddc57600080fd5b610de88a828b01610c42565b91505092959891949750929550565b600060208284031215610e0957600080fd5b6000610e1784828501610c6c565b91505092915050565b60008060408385031215610e3357600080fd5b6000610e4185828601610c6c565b925050602083013567ffffffffffffffff811115610e5e57600080fd5b610e6a85828601610c42565b9150509250929050565b610e7d81611264565b82525050565b610e8c81611228565b82525050565b610e9b81611228565b82525050565b6000610eac826111fb565b610eb68185611206565b9350610ec68185602086016112a9565b610ecf816112de565b840191505092915050565b6000610ee5826111fb565b610eef8185611217565b9350610eff8185602086016112a9565b610f08816112de565b840191505092915050565b6000610f20601b83611217565b91507f7469636b6574206f776e6572206973206e6f7420636f6c6c65637400000000006000830152602082019050919050565b6000610f60601b83611217565b91507f746f6b656e206964206d757374206c6172676572207468616e203000000000006000830152602082019050919050565b6000610fa0601f83611217565b91507f7374616b6520616d6f756e74206d757374206c6172676572207468616e2030006000830152602082019050919050565b600060c083016000830151610feb6000860182610e83565b506020830151610ffe602086018261106a565b506040830151611011604086018261106a565b50606083015184820360608601526110298282610ea1565b915050608083015184820360808601526110438282610ea1565b91505060a083015184820360a086015261105d8282610ea1565b9150508091505092915050565b6110738161125a565b82525050565b6110828161125a565b82525050565b600060608201905061109d6000830186610e74565b6110aa6020830185610e92565b6110b76040830184611079565b949350505050565b60006060820190506110d46000830186610e92565b6110e16020830185611079565b81810360408301526110f38184610eda565b9050949350505050565b6000602082019050818103600083015261111681610f13565b9050919050565b6000602082019050818103600083015261113681610f53565b9050919050565b6000602082019050818103600083015261115681610f93565b9050919050565b600060208201905081810360008301526111778184610fd3565b905092915050565b60006020820190506111946000830184611079565b92915050565b6000604051905081810181811067ffffffffffffffff821117156111c1576111c06112dc565b5b8060405250919050565b600067ffffffffffffffff8211156111e6576111e56112dc565b5b601f19601f8301169050602081019050919050565b600081519050919050565b600082825260208201905092915050565b600082825260208201905092915050565b60006112338261123a565b9050919050565b600073ffffffffffffffffffffffffffffffffffffffff82169050919050565b6000819050919050565b600061126f82611276565b9050919050565b600061128182611288565b9050919050565b60006112938261123a565b9050919050565b82818337600083830152505050565b60005b838110156112c75780820151818401526020810190506112ac565b838111156112d6576000848401525b50505050565bfe5b6000601f19601f8301169050919050565b6112f881611228565b811461130357600080fd5b50565b61130f8161125a565b811461131a57600080fd5b5056fe496e697469616c697a61626c653a20636f6e747261637420697320616c726561647920696e697469616c697a6564a26469706673582212204ceb24c19e6af624d83620f81595a457218097203617672e980843b92526e13264736f6c63430007060033",
  "linkReferences": {},
  "deployedLinkReferences": {}
}