{
  "_format": "hh-sol-artifact-1",
  "contractName": "StakeTicket",
  "sourceName": "contracts/StakeTicket.sol",
  "abi": [
    {
      "anonymous": false,
      "inputs": [
        {
          "indexed": true,
          "internalType": "address",
          "name": "previousOwner",
          "type": "address"
        },
        {
          "indexed": true,
          "internalType": "address",
          "name": "newOwner",
          "type": "address"
        }
      ],
      "name": "OwnershipTransferred",
      "type": "event"
    },
    {
      "anonymous": false,
      "inputs": [
        {
          "indexed": false,
          "internalType": "address",
          "name": "owner",
          "type": "address"
        },
        {
          "indexed": false,
          "internalType": "uint256",
          "name": "amount",
          "type": "uint256"
        },
        {
          "indexed": false,
          "internalType": "uint256",
          "name": "startTimeSpan",
          "type": "uint256"
        },
        {
          "indexed": false,
          "internalType": "string",
          "name": "supperNode",
          "type": "string"
        },
        {
          "indexed": false,
          "internalType": "bytes32",
          "name": "txHash",
          "type": "bytes32"
        },
        {
          "indexed": false,
          "internalType": "string",
          "name": "withDrawTo",
          "type": "string"
        }
      ],
      "name": "StakeTicketBurn",
      "type": "event"
    },
    {
      "anonymous": false,
      "inputs": [
        {
          "indexed": false,
          "internalType": "address",
          "name": "to",
          "type": "address"
        },
        {
          "indexed": false,
          "internalType": "uint256",
          "name": "tokenId",
          "type": "uint256"
        },
        {
          "indexed": false,
          "internalType": "uint256",
          "name": "amount",
          "type": "uint256"
        },
        {
          "indexed": false,
          "internalType": "uint256",
          "name": "startTimeSpan",
          "type": "uint256"
        },
        {
          "indexed": false,
          "internalType": "bytes32",
          "name": "txHash",
          "type": "bytes32"
        }
      ],
      "name": "StakeTicketMint",
      "type": "event"
    },
    {
      "inputs": [],
      "name": "ARBITER_NUM",
      "outputs": [
        {
          "internalType": "uint256",
          "name": "",
          "type": "uint256"
        }
      ],
      "stateMutability": "view",
      "type": "function"
    },
    {
      "inputs": [
        {
          "internalType": "address",
          "name": "erc721Address",
          "type": "address"
        },
        {
          "internalType": "string",
          "name": "version",
          "type": "string"
        }
      ],
      "name": "__StakeTicket_init",
      "outputs": [],
      "stateMutability": "nonpayable",
      "type": "function"
    },
    {
      "inputs": [
        {
          "internalType": "uint256",
          "name": "tokenId",
          "type": "uint256"
        }
      ],
      "name": "burnTick",
      "outputs": [],
      "stateMutability": "nonpayable",
      "type": "function"
    },
    {
      "inputs": [],
      "name": "getArbiterList",
      "outputs": [
        {
          "internalType": "bytes32[12]",
          "name": "",
          "type": "bytes32[12]"
        }
      ],
      "stateMutability": "view",
      "type": "function"
    },
    {
      "inputs": [
        {
          "internalType": "uint256",
          "name": "tokenId",
          "type": "uint256"
        }
      ],
      "name": "getTickFromTokenId",
      "outputs": [
        {
          "components": [
            {
              "internalType": "address",
              "name": "owner",
              "type": "address"
            },
            {
              "internalType": "uint256",
              "name": "amount",
              "type": "uint256"
            },
            {
              "internalType": "uint256",
              "name": "startTimeSpan",
              "type": "uint256"
            },
            {
              "internalType": "string",
              "name": "supperNode",
              "type": "string"
            },
            {
              "internalType": "bytes32",
              "name": "txHash",
              "type": "bytes32"
            },
            {
              "internalType": "string",
              "name": "withDrawTo",
              "type": "string"
            }
          ],
          "internalType": "struct StakeTicket.TickInfo",
          "name": "",
          "type": "tuple"
        }
      ],
      "stateMutability": "view",
      "type": "function"
    },
    {
      "inputs": [
        {
          "internalType": "address",
          "name": "to",
          "type": "address"
        },
        {
          "internalType": "uint256",
          "name": "tokenId",
          "type": "uint256"
        },
        {
          "internalType": "uint256",
          "name": "amount",
          "type": "uint256"
        },
        {
          "internalType": "string",
          "name": "pubKey",
          "type": "string"
        },
        {
          "internalType": "string",
          "name": "sign",
          "type": "string"
        }
      ],
      "name": "mintTick",
      "outputs": [],
      "stateMutability": "nonpayable",
      "type": "function"
    },
    {
      "inputs": [],
      "name": "owner",
      "outputs": [
        {
          "internalType": "address",
          "name": "",
          "type": "address"
        }
      ],
      "stateMutability": "view",
      "type": "function"
    },
    {
      "inputs": [
        {
          "internalType": "string",
          "name": "_pubkey",
          "type": "string"
        },
        {
          "internalType": "string",
          "name": "_data",
          "type": "string"
        },
        {
          "internalType": "string",
          "name": "_sig",
          "type": "string"
        }
      ],
      "name": "p256Verify",
      "outputs": [
        {
          "internalType": "bool",
          "name": "",
          "type": "bool"
        }
      ],
      "stateMutability": "view",
      "type": "function"
    },
    {
      "inputs": [],
      "name": "renounceOwnership",
      "outputs": [],
      "stateMutability": "nonpayable",
      "type": "function"
    },
    {
      "inputs": [
        {
          "internalType": "address",
          "name": "to",
          "type": "address"
        },
        {
          "internalType": "uint256",
          "name": "tokenId",
          "type": "uint256"
        }
      ],
      "name": "tranferTick",
      "outputs": [],
      "stateMutability": "nonpayable",
      "type": "function"
    },
    {
      "inputs": [
        {
          "internalType": "address",
          "name": "newOwner",
          "type": "address"
        }
      ],
      "name": "transferOwnership",
      "outputs": [],
      "stateMutability": "nonpayable",
      "type": "function"
    },
    {
      "inputs": [
        {
          "internalType": "uint256",
          "name": "tokenId",
          "type": "uint256"
        },
        {
          "internalType": "string",
          "name": "withDrawTo",
          "type": "string"
        }
      ],
      "name": "withDrawTick",
      "outputs": [],
      "stateMutability": "nonpayable",
      "type": "function"
    }
  ],
  "bytecode": "0x608060405234801561001057600080fd5b5061255a806100206000396000f3fe608060405234801561001057600080fd5b50600436106100b45760003560e01c8063aa12bc3c11610071578063aa12bc3c14610167578063b16b5a1314610185578063d6d02ae8146101b5578063d78f7d7b146101d1578063f20711f8146101ed578063f2fde38b14610209576100b4565b806332e96768146100b95780636ef38232146100d5578063715018a6146100f35780638da5cb5b146100fd57806399e0e4831461011b578063a0d956e914610137575b600080fd5b6100d360048036038101906100ce9190611a9f565b610225565b005b6100dd610466565b6040516100ea9190612295565b60405180910390f35b6100fb61046b565b005b6101056105db565b604051610112919061206c565b60405180910390f35b61013560048036038101906101309190611a0f565b610605565b005b610151600480360381019061014c9190611bdd565b610765565b60405161015e9190612273565b60405180910390f35b61016f61098d565b60405161017c91906121bc565b60405180910390f35b61019f600480360381019061019a9190611b46565b6109bc565b6040516101ac91906121d8565b60405180910390f35b6101cf60048036038101906101ca9190611bdd565b610a1e565b005b6101eb60048036038101906101e69190611c06565b610c49565b005b61020760048036038101906102029190611a63565b610d5f565b005b610223600480360381019061021e91906119e6565b610e8c565b005b60008311610268576040517f08c379a000000000000000000000000000000000000000000000000000000000815260040161025f90612233565b60405180910390fd5b6000808060001b905060008787878460405160200161028a949392919061201e565b60405160208183030381529060405290506102a68582866109bc565b9250826102e8576040517f08c379a00000000000000000000000000000000000000000000000000000000081526004016102df90612253565b60405180910390fd5b856067600089815260200190815260200160002060010181905550426067600089815260200190815260200160002060020181905550816067600089815260200190815260200160002060040181905550876067600089815260200190815260200160002060000160006101000a81548173ffffffffffffffffffffffffffffffffffffffff021916908373ffffffffffffffffffffffffffffffffffffffff160217905550606560009054906101000a900473ffffffffffffffffffffffffffffffffffffffff1673ffffffffffffffffffffffffffffffffffffffff1663d3fc986489896040518363ffffffff1660e01b81526004016103eb9291906120be565b600060405180830381600087803b15801561040557600080fd5b505af1158015610419573d6000803e3d6000fd5b505050507f732b5169b065c102d1bf43a6790e1eae09685f82124bab80599d75169fe5a4098888884286604051610454959493929190612169565b60405180910390a15050505050505050565b600c81565b610473611081565b73ffffffffffffffffffffffffffffffffffffffff166104916105db565b73ffffffffffffffffffffffffffffffffffffffff161461051a576040517f08c379a00000000000000000000000000000000000000000000000000000000081526004018080602001828103825260208152602001807f4f776e61626c653a2063616c6c6572206973206e6f7420746865206f776e657281525060200191505060405180910390fd5b600073ffffffffffffffffffffffffffffffffffffffff16603360009054906101000a900473ffffffffffffffffffffffffffffffffffffffff1673ffffffffffffffffffffffffffffffffffffffff167f8be0079c531659141344cd1fd0a4f28419497f9722a3daafe3b4186f6b6457e060405160405180910390a36000603360006101000a81548173ffffffffffffffffffffffffffffffffffffffff021916908373ffffffffffffffffffffffffffffffffffffffff160217905550565b6000603360009054906101000a900473ffffffffffffffffffffffffffffffffffffffff16905090565b600060019054906101000a900460ff16806106245750610623611089565b5b8061063a575060008054906101000a900460ff16155b61068f576040517f08c379a000000000000000000000000000000000000000000000000000000000815260040180806020018281038252602e8152602001806124f7602e913960400191505060405180910390fd5b60008060019054906101000a900460ff1615905080156106df576001600060016101000a81548160ff02191690831515021790555060016000806101000a81548160ff0219169083151502179055505b82606560006101000a81548173ffffffffffffffffffffffffffffffffffffffff021916908373ffffffffffffffffffffffffffffffffffffffff16021790555081606690805190602001906107369291906117cd565b5061073f61109a565b80156107605760008060016101000a81548160ff0219169083151502179055505b505050565b61076d61185b565b600082116107b0576040517f08c379a00000000000000000000000000000000000000000000000000000000081526004016107a790612213565b60405180910390fd5b606760008381526020019081526020016000206040518060c00160405290816000820160009054906101000a900473ffffffffffffffffffffffffffffffffffffffff1673ffffffffffffffffffffffffffffffffffffffff1673ffffffffffffffffffffffffffffffffffffffff1681526020016001820154815260200160028201548152602001600382018054600181600116156101000203166002900480601f0160208091040260200160405190810160405280929190818152602001828054600181600116156101000203166002900480156108d15780601f106108a6576101008083540402835291602001916108d1565b820191906000526020600020905b8154815290600101906020018083116108b457829003601f168201915b5050505050815260200160048201548152602001600582018054600181600116156101000203166002900480601f01602080910402602001604051908101604052809291908181526020018280546001816001161561010002031660029004801561097d5780601f106109525761010080835404028352916020019161097d565b820191906000526020600020905b81548152906001019060200180831161096057829003601f168201915b5050505050815250509050919050565b6109956118aa565b61099d6118aa565b6000610180826000836103e85afa6109b457600080fd5b819250505090565b6000806109d26109cc86866111a8565b846111a8565b905060006109df826112ff565b90506109e96118cd565b60208160c1846103e95afa6109fd57600080fd5b600181600060018110610a0c57fe5b60200201511493505050509392505050565b60008111610a61576040517f08c379a0000000000000000000000000000000000000000000000000000000008152600401610a5890612233565b60405180910390fd5b606560009054906101000a900473ffffffffffffffffffffffffffffffffffffffff1673ffffffffffffffffffffffffffffffffffffffff166342966c68826040518263ffffffff1660e01b8152600401610abc9190612295565b600060405180830381600087803b158015610ad657600080fd5b505af1158015610aea573d6000803e3d6000fd5b505050507fa846a54d891a112f901986f77c78f5c69aad963ba295f5fdfc31e1a0dd7953e06067600083815260200190815260200160002060000160009054906101000a900473ffffffffffffffffffffffffffffffffffffffff166067600084815260200190815260200160002060010154606760008581526020019081526020016000206002015460676000868152602001908152602001600020600301606760008781526020019081526020016000206004015460676000888152602001908152602001600020600501604051610bc9969594939291906120fa565b60405180910390a160676000828152602001908152602001600020600080820160006101000a81549073ffffffffffffffffffffffffffffffffffffffff021916905560018201600090556002820160009055600382016000610c2c91906118ef565b6004820160009055600582016000610c4491906118ef565b505050565b60008211610c8c576040517f08c379a0000000000000000000000000000000000000000000000000000000008152600401610c8390612233565b60405180910390fd5b6067600083815260200190815260200160002060000160009054906101000a900473ffffffffffffffffffffffffffffffffffffffff1673ffffffffffffffffffffffffffffffffffffffff163373ffffffffffffffffffffffffffffffffffffffff1614610d30576040517f08c379a0000000000000000000000000000000000000000000000000000000008152600401610d27906121f3565b60405180910390fd5b80606760008481526020019081526020016000206005019080519060200190610d5a9291906117cd565b505050565b60008111610da2576040517f08c379a0000000000000000000000000000000000000000000000000000000008152600401610d9990612233565b60405180910390fd5b606560009054906101000a900473ffffffffffffffffffffffffffffffffffffffff1673ffffffffffffffffffffffffffffffffffffffff166342842e0e3384846040518463ffffffff1660e01b8152600401610e0193929190612087565b600060405180830381600087803b158015610e1b57600080fd5b505af1158015610e2f573d6000803e3d6000fd5b50505050816067600083815260200190815260200160002060000160006101000a81548173ffffffffffffffffffffffffffffffffffffffff021916908373ffffffffffffffffffffffffffffffffffffffff1602179055505050565b610e94611081565b73ffffffffffffffffffffffffffffffffffffffff16610eb26105db565b73ffffffffffffffffffffffffffffffffffffffff1614610f3b576040517f08c379a00000000000000000000000000000000000000000000000000000000081526004018080602001828103825260208152602001807f4f776e61626c653a2063616c6c6572206973206e6f7420746865206f776e657281525060200191505060405180910390fd5b600073ffffffffffffffffffffffffffffffffffffffff168173ffffffffffffffffffffffffffffffffffffffff161415610fc1576040517f08c379a00000000000000000000000000000000000000000000000000000000081526004018080602001828103825260268152602001806124d16026913960400191505060405180910390fd5b8073ffffffffffffffffffffffffffffffffffffffff16603360009054906101000a900473ffffffffffffffffffffffffffffffffffffffff1673ffffffffffffffffffffffffffffffffffffffff167f8be0079c531659141344cd1fd0a4f28419497f9722a3daafe3b4186f6b6457e060405160405180910390a380603360006101000a81548173ffffffffffffffffffffffffffffffffffffffff021916908373ffffffffffffffffffffffffffffffffffffffff16021790555050565b600033905090565b600061109430611515565b15905090565b600060019054906101000a900460ff16806110b957506110b8611089565b5b806110cf575060008054906101000a900460ff16155b611124576040517f08c379a000000000000000000000000000000000000000000000000000000000815260040180806020018281038252602e8152602001806124f7602e913960400191505060405180910390fd5b60008060019054906101000a900460ff161590508015611174576001600060016101000a81548160ff02191690831515021790555060016000806101000a81548160ff0219169083151502179055505b61117c611528565b611184611626565b80156111a55760008060016101000a81548160ff0219169083151502179055505b50565b6060600083905060008390506000815183510167ffffffffffffffff811180156111d157600080fd5b506040519080825280601f01601f1916602001820160405280156112045781602001600182028036833780820191505090505b50905060008190506000805b855181101561127e5785818151811061122557fe5b602001015160f81c60f81b83838060010194508151811061124257fe5b60200101907effffffffffffffffffffffffffffffffffffffffffffffffffffffffffffff1916908160001a9053508080600101915050611210565b5060005b84518110156112f05784818151811061129757fe5b602001015160f81c60f81b8383806001019450815181106112b457fe5b60200101907effffffffffffffffffffffffffffffffffffffffffffffffffffffffffffff1916908160001a9053508080600101915050611282565b50829550505050505092915050565b606060008290506000815167ffffffffffffffff8111801561132057600080fd5b5060405190808252806020026020018201604052801561134f5781602001602082028036833780820191505090505b50905060005b825181101561142057600083828151811061136c57fe5b602001015160f81c60f81b60f81c905060608160ff1611156113b457600a606182030183838151811061139b57fe5b602002602001019060ff16908160ff1681525050611412565b60428160ff1611156113ec57600a60418203018383815181106113d357fe5b602002602001019060ff16908160ff1681525050611411565b603081038383815181106113fc57fe5b602002602001019060ff16908160ff16815250505b5b508080600101915050611355565b506000600282518161142e57fe5b0467ffffffffffffffff8111801561144557600080fd5b506040519080825280601f01601f1916602001820160405280156114785781602001600182028036833780820191505090505b50905060005b82518110156115095782600182018151811061149657fe5b602002602001015160108483815181106114ac57fe5b6020026020010151020160f81b82600283816114c457fe5b04815181106114cf57fe5b60200101907effffffffffffffffffffffffffffffffffffffffffffffffffffffffffffff1916908160001a90535060028101905061147e565b50809350505050919050565b600080823b905060008111915050919050565b600060019054906101000a900460ff16806115475750611546611089565b5b8061155d575060008054906101000a900460ff16155b6115b2576040517f08c379a000000000000000000000000000000000000000000000000000000000815260040180806020018281038252602e8152602001806124f7602e913960400191505060405180910390fd5b60008060019054906101000a900460ff161590508015611602576001600060016101000a81548160ff02191690831515021790555060016000806101000a81548160ff0219169083151502179055505b80156116235760008060016101000a81548160ff0219169083151502179055505b50565b600060019054906101000a900460ff16806116455750611644611089565b5b8061165b575060008054906101000a900460ff16155b6116b0576040517f08c379a000000000000000000000000000000000000000000000000000000000815260040180806020018281038252602e8152602001806124f7602e913960400191505060405180910390fd5b60008060019054906101000a900460ff161590508015611700576001600060016101000a81548160ff02191690831515021790555060016000806101000a81548160ff0219169083151502179055505b600061170a611081565b905080603360006101000a81548173ffffffffffffffffffffffffffffffffffffffff021916908373ffffffffffffffffffffffffffffffffffffffff1602179055508073ffffffffffffffffffffffffffffffffffffffff16600073ffffffffffffffffffffffffffffffffffffffff167f8be0079c531659141344cd1fd0a4f28419497f9722a3daafe3b4186f6b6457e060405160405180910390a35080156117ca5760008060016101000a81548160ff0219169083151502179055505b50565b828054600181600116156101000203166002900490600052602060002090601f016020900481019282611803576000855561184a565b82601f1061181c57805160ff191683800117855561184a565b8280016001018555821561184a579182015b8281111561184957825182559160200191906001019061182e565b5b5090506118579190611937565b5090565b6040518060c00160405280600073ffffffffffffffffffffffffffffffffffffffff16815260200160008152602001600081526020016060815260200160008019168152602001606081525090565b604051806101800160405280600c90602082028036833780820191505090505090565b6040518060200160405280600190602082028036833780820191505090505090565b50805460018160011615610100020316600290046000825580601f106119155750611934565b601f0160209004906000526020600020908101906119339190611937565b5b50565b5b80821115611950576000816000905550600101611938565b5090565b6000611967611962846122e1565b6122b0565b90508281526020810184848401111561197f57600080fd5b61198a848285612408565b509392505050565b6000813590506119a1816124a2565b92915050565b600082601f8301126119b857600080fd5b81356119c8848260208601611954565b91505092915050565b6000813590506119e0816124b9565b92915050565b6000602082840312156119f857600080fd5b6000611a0684828501611992565b91505092915050565b60008060408385031215611a2257600080fd5b6000611a3085828601611992565b925050602083013567ffffffffffffffff811115611a4d57600080fd5b611a59858286016119a7565b9150509250929050565b60008060408385031215611a7657600080fd5b6000611a8485828601611992565b9250506020611a95858286016119d1565b9150509250929050565b600080600080600060a08688031215611ab757600080fd5b6000611ac588828901611992565b9550506020611ad6888289016119d1565b9450506040611ae7888289016119d1565b935050606086013567ffffffffffffffff811115611b0457600080fd5b611b10888289016119a7565b925050608086013567ffffffffffffffff811115611b2d57600080fd5b611b39888289016119a7565b9150509295509295909350565b600080600060608486031215611b5b57600080fd5b600084013567ffffffffffffffff811115611b7557600080fd5b611b81868287016119a7565b935050602084013567ffffffffffffffff811115611b9e57600080fd5b611baa868287016119a7565b925050604084013567ffffffffffffffff811115611bc757600080fd5b611bd3868287016119a7565b9150509250925092565b600060208284031215611bef57600080fd5b6000611bfd848285016119d1565b91505092915050565b60008060408385031215611c1957600080fd5b6000611c27858286016119d1565b925050602083013567ffffffffffffffff811115611c4457600080fd5b611c50858286016119a7565b9150509250929050565b6000611c668383611d1c565b60208301905092915050565b611c7b816123d2565b82525050565b611c8a81612380565b82525050565b611c9981612380565b82525050565b611cb0611cab82612380565b61244a565b82525050565b611cbf81612330565b611cc98184612353565b9250611cd482612311565b8060005b83811015611d05578151611cec8782611c5a565b9650611cf783612346565b925050600181019050611cd8565b505050505050565b611d1681612392565b82525050565b611d258161239e565b82525050565b611d348161239e565b82525050565b611d4b611d468261239e565b61245c565b82525050565b6000611d5c8261233b565b611d66818561235e565b9350611d76818560208601612417565b611d7f81612484565b840191505092915050565b600081546001811660008114611da75760018114611dcd57611e11565b607f6002830416611db8818761236f565b955060ff198316865260208601935050611e11565b60028204611ddb818761236f565b9550611de68561231b565b60005b82811015611e0857815481890152600182019150602081019050611de9565b80880195505050505b505092915050565b6000611e26601b8361236f565b91507f7469636b6574206f776e6572206973206e6f7420636f6c6c65637400000000006000830152602082019050919050565b6000611e66601b8361236f565b91507f746f6b656e206964206d757374206c6172676572207468616e203000000000006000830152602082019050919050565b6000611ea660038361236f565b91507f30783000000000000000000000000000000000000000000000000000000000006000830152602082019050919050565b6000611ee6601f8361236f565b91507f7374616b6520616d6f756e74206d757374206c6172676572207468616e2030006000830152602082019050919050565b6000611f2660188361236f565b91507f7032353656657269667920646f206e6f742070617373202100000000000000006000830152602082019050919050565b600060c083016000830151611f716000860182611c81565b506020830151611f846020860182611fe9565b506040830151611f976040860182611fe9565b5060608301518482036060860152611faf8282611d51565b9150506080830151611fc46080860182611d1c565b5060a083015184820360a0860152611fdc8282611d51565b9150508091505092915050565b611ff2816123c8565b82525050565b612001816123c8565b82525050565b612018612013826123c8565b612478565b82525050565b600061202a8287611c9f565b60148201915061203a8286612007565b60208201915061204a8285612007565b60208201915061205a8284611d3a565b60208201915081905095945050505050565b60006020820190506120816000830184611c90565b92915050565b600060608201905061209c6000830186611c72565b6120a96020830185611c90565b6120b66040830184611ff8565b949350505050565b60006060820190506120d36000830185611c90565b6120e06020830184611ff8565b81810360408301526120f181611e99565b90509392505050565b600060c08201905061210f6000830189611c90565b61211c6020830188611ff8565b6121296040830187611ff8565b818103606083015261213b8186611d8a565b905061214a6080830185611d2b565b81810360a083015261215c8184611d8a565b9050979650505050505050565b600060a08201905061217e6000830188611c90565b61218b6020830187611ff8565b6121986040830186611ff8565b6121a56060830185611ff8565b6121b26080830184611d2b565b9695505050505050565b6000610180820190506121d26000830184611cb6565b92915050565b60006020820190506121ed6000830184611d0d565b92915050565b6000602082019050818103600083015261220c81611e19565b9050919050565b6000602082019050818103600083015261222c81611e59565b9050919050565b6000602082019050818103600083015261224c81611ed9565b9050919050565b6000602082019050818103600083015261226c81611f19565b9050919050565b6000602082019050818103600083015261228d8184611f59565b905092915050565b60006020820190506122aa6000830184611ff8565b92915050565b6000604051905081810181811067ffffffffffffffff821117156122d7576122d6612482565b5b8060405250919050565b600067ffffffffffffffff8211156122fc576122fb612482565b5b601f19601f8301169050602081019050919050565b6000819050919050565b60008190508160005260206000209050919050565b6000600c9050919050565b600081519050919050565b6000602082019050919050565b600081905092915050565b600082825260208201905092915050565b600082825260208201905092915050565b600061238b826123a8565b9050919050565b60008115159050919050565b6000819050919050565b600073ffffffffffffffffffffffffffffffffffffffff82169050919050565b6000819050919050565b60006123dd826123e4565b9050919050565b60006123ef826123f6565b9050919050565b6000612401826123a8565b9050919050565b82818337600083830152505050565b60005b8381101561243557808201518184015260208101905061241a565b83811115612444576000848401525b50505050565b600061245582612466565b9050919050565b6000819050919050565b600061247182612495565b9050919050565b6000819050919050565bfe5b6000601f19601f8301169050919050565b60008160601b9050919050565b6124ab81612380565b81146124b657600080fd5b50565b6124c2816123c8565b81146124cd57600080fd5b5056fe4f776e61626c653a206e6577206f776e657220697320746865207a65726f2061646472657373496e697469616c697a61626c653a20636f6e747261637420697320616c726561647920696e697469616c697a6564a264697066735822122012d03f97ec49c2e51d50b2757d78f3480b1fee421b3eee13ed656ffd3c9e7b1164736f6c63430007060033",
  "linkReferences": {},
  "deployedLinkReferences": {}
}