{
  "_format": "hh-sol-artifact-1",
  "contractName": "StakeTicket",
  "sourceName": "contracts/StakeTicket.sol",
  "abi": [
    {
      "anonymous": false,
      "inputs": [
        {
          "indexed": true,
          "internalType": "address",
          "name": "previousOwner",
          "type": "address"
        },
        {
          "indexed": true,
          "internalType": "address",
          "name": "newOwner",
          "type": "address"
        }
      ],
      "name": "OwnershipTransferred",
      "type": "event"
    },
    {
      "anonymous": false,
      "inputs": [
        {
          "indexed": false,
          "internalType": "address",
          "name": "owner",
          "type": "address"
        },
        {
          "indexed": false,
          "internalType": "uint256",
          "name": "amount",
          "type": "uint256"
        },
        {
          "indexed": false,
          "internalType": "uint256",
          "name": "startTimeSpan",
          "type": "uint256"
        },
        {
          "indexed": false,
          "internalType": "string",
          "name": "supperNode",
          "type": "string"
        },
        {
          "indexed": false,
          "internalType": "bytes32",
          "name": "txHash",
          "type": "bytes32"
        },
        {
          "indexed": false,
          "internalType": "string",
          "name": "withDrawTo",
          "type": "string"
        }
      ],
      "name": "StakeTicketBurn",
      "type": "event"
    },
    {
      "anonymous": false,
      "inputs": [
        {
          "indexed": false,
          "internalType": "address",
          "name": "to",
          "type": "address"
        },
        {
          "indexed": false,
          "internalType": "uint256",
          "name": "tokenId",
          "type": "uint256"
        },
        {
          "indexed": false,
          "internalType": "uint256",
          "name": "startTimeSpan",
          "type": "uint256"
        },
        {
          "indexed": false,
          "internalType": "bytes32",
          "name": "txHash",
          "type": "bytes32"
        }
      ],
      "name": "StakeTicketMint",
      "type": "event"
    },
    {
      "inputs": [],
      "name": "ARBITER_NUM",
      "outputs": [
        {
          "internalType": "uint256",
          "name": "",
          "type": "uint256"
        }
      ],
      "stateMutability": "view",
      "type": "function"
    },
    {
      "inputs": [
        {
          "internalType": "address",
          "name": "erc721Address",
          "type": "address"
        },
        {
          "internalType": "string",
          "name": "version",
          "type": "string"
        }
      ],
      "name": "__StakeTicket_init",
      "outputs": [],
      "stateMutability": "nonpayable",
      "type": "function"
    },
    {
      "inputs": [
        {
          "internalType": "uint256",
          "name": "tokenId",
          "type": "uint256"
        }
      ],
      "name": "burnTick",
      "outputs": [],
      "stateMutability": "nonpayable",
      "type": "function"
    },
    {
      "inputs": [],
      "name": "getArbiterList",
      "outputs": [
        {
          "internalType": "bytes32[12]",
          "name": "",
          "type": "bytes32[12]"
        }
      ],
      "stateMutability": "view",
      "type": "function"
    },
    {
      "inputs": [
        {
          "internalType": "uint256",
          "name": "tokenId",
          "type": "uint256"
        }
      ],
      "name": "getTickFromTokenId",
      "outputs": [
        {
          "components": [
            {
              "internalType": "address",
              "name": "owner",
              "type": "address"
            },
            {
              "internalType": "uint256",
              "name": "amount",
              "type": "uint256"
            },
            {
              "internalType": "uint256",
              "name": "startTimeSpan",
              "type": "uint256"
            },
            {
              "internalType": "string",
              "name": "supperNode",
              "type": "string"
            },
            {
              "internalType": "bytes32",
              "name": "txHash",
              "type": "bytes32"
            },
            {
              "internalType": "string",
              "name": "withDrawTo",
              "type": "string"
            }
          ],
          "internalType": "struct StakeTicket.TickInfo",
          "name": "",
          "type": "tuple"
        }
      ],
      "stateMutability": "view",
      "type": "function"
    },
    {
      "inputs": [
        {
          "internalType": "address",
          "name": "to",
          "type": "address"
        },
        {
          "internalType": "uint256",
          "name": "tokenId",
          "type": "uint256"
        },
        {
          "internalType": "bytes32",
          "name": "txHash",
          "type": "bytes32"
        }
      ],
      "name": "mintTick",
      "outputs": [],
      "stateMutability": "nonpayable",
      "type": "function"
    },
    {
      "inputs": [],
      "name": "owner",
      "outputs": [
        {
          "internalType": "address",
          "name": "",
          "type": "address"
        }
      ],
      "stateMutability": "view",
      "type": "function"
    },
    {
      "inputs": [
        {
          "internalType": "string",
          "name": "_pubkey",
          "type": "string"
        },
        {
          "internalType": "string",
          "name": "_data",
          "type": "string"
        },
        {
          "internalType": "string",
          "name": "_sig",
          "type": "string"
        }
      ],
      "name": "p256Verify",
      "outputs": [
        {
          "internalType": "bool",
          "name": "",
          "type": "bool"
        }
      ],
      "stateMutability": "view",
      "type": "function"
    },
    {
      "inputs": [
        {
          "internalType": "address",
          "name": "_to",
          "type": "address"
        },
        {
          "internalType": "uint256",
          "name": "_tokenId",
          "type": "uint256"
        },
        {
          "internalType": "bytes32",
          "name": "_txHash",
          "type": "bytes32"
        }
      ],
      "name": "pledgeBillVerify",
      "outputs": [
        {
          "internalType": "bool",
          "name": "",
          "type": "bool"
        }
      ],
      "stateMutability": "view",
      "type": "function"
    },
    {
      "inputs": [],
      "name": "renounceOwnership",
      "outputs": [],
      "stateMutability": "nonpayable",
      "type": "function"
    },
    {
      "inputs": [
        {
          "internalType": "address",
          "name": "to",
          "type": "address"
        },
        {
          "internalType": "uint256",
          "name": "tokenId",
          "type": "uint256"
        }
      ],
      "name": "tranferTick",
      "outputs": [],
      "stateMutability": "nonpayable",
      "type": "function"
    },
    {
      "inputs": [
        {
          "internalType": "address",
          "name": "newOwner",
          "type": "address"
        }
      ],
      "name": "transferOwnership",
      "outputs": [],
      "stateMutability": "nonpayable",
      "type": "function"
    },
    {
      "inputs": [
        {
          "internalType": "uint256",
          "name": "tokenId",
          "type": "uint256"
        },
        {
          "internalType": "string",
          "name": "withDrawTo",
          "type": "string"
        }
      ],
      "name": "withDrawTick",
      "outputs": [],
      "stateMutability": "nonpayable",
      "type": "function"
    }
  ],
  "bytecode": "0x608060405234801561001057600080fd5b5061288b806100206000396000f3fe608060405234801561001057600080fd5b50600436106100cf5760003560e01c8063a0d956e91161008c578063d6d02ae811610066578063d6d02ae814610200578063d78f7d7b1461021c578063f20711f814610238578063f2fde38b14610254576100cf565b8063a0d956e914610182578063aa12bc3c146101b2578063b16b5a13146101d0576100cf565b8063502c7757146100d45780636ef38232146100f0578063715018a61461010e578063739c264a146101185780638da5cb5b1461014857806399e0e48314610166575b600080fd5b6100ee60048036038101906100e99190611ef7565b610270565b005b6100f861041c565b60405161010591906125f4565b60405180910390f35b610116610421565b005b610132600480360381019061012d9190611ef7565b610591565b60405161013f9190612537565b60405180910390f35b61015061060b565b60405161015d91906123d9565b60405180910390f35b610180600480360381019061017b9190611e67565b610635565b005b61019c60048036038101906101979190611fdd565b610795565b6040516101a991906125d2565b60405180910390f35b6101ba6109bd565b6040516101c7919061251b565b60405180910390f35b6101ea60048036038101906101e59190611f46565b6109ec565b6040516101f79190612537565b60405180910390f35b61021a60048036038101906102159190611fdd565b610a4e565b005b61023660048036038101906102319190612006565b610c79565b005b610252600480360381019061024d9190611ebb565b610d8f565b005b61026e60048036038101906102699190611e3e565b610ebc565b005b600061027d848484610591565b9050806102bf576040517f08c379a00000000000000000000000000000000000000000000000000000000081526004016102b6906125b2565b60405180910390fd5b426067600085815260200190815260200160002060020181905550816067600085815260200190815260200160002060040181905550836067600085815260200190815260200160002060000160006101000a81548173ffffffffffffffffffffffffffffffffffffffff021916908373ffffffffffffffffffffffffffffffffffffffff160217905550606560009054906101000a900473ffffffffffffffffffffffffffffffffffffffff1673ffffffffffffffffffffffffffffffffffffffff1663d3fc986485856040518363ffffffff1660e01b81526004016103a792919061242b565b600060405180830381600087803b1580156103c157600080fd5b505af11580156103d5573d6000803e3d6000fd5b505050507f7327a52cdebe8ff9ace20426ebd639d204d3d3b303adda96161107911fad2a528484428560405161040e9493929190612467565b60405180910390a150505050565b600c81565b6104296110b1565b73ffffffffffffffffffffffffffffffffffffffff1661044761060b565b73ffffffffffffffffffffffffffffffffffffffff16146104d0576040517f08c379a00000000000000000000000000000000000000000000000000000000081526004018080602001828103825260208152602001807f4f776e61626c653a2063616c6c6572206973206e6f7420746865206f776e657281525060200191505060405180910390fd5b600073ffffffffffffffffffffffffffffffffffffffff16603360009054906101000a900473ffffffffffffffffffffffffffffffffffffffff1673ffffffffffffffffffffffffffffffffffffffff167f8be0079c531659141344cd1fd0a4f28419497f9722a3daafe3b4186f6b6457e060405160405180910390a36000603360006101000a81548173ffffffffffffffffffffffffffffffffffffffff021916908373ffffffffffffffffffffffffffffffffffffffff160217905550565b6000806105bf6105b16105a3876110b9565b6105ac8761115f565b6112af565b6105ba85611406565b6112af565b905060006105cc82611493565b90506105d6611c10565b6020816093846103eb5afa6105ea57600080fd5b6001816000600181106105f957fe5b60200201511493505050509392505050565b6000603360009054906101000a900473ffffffffffffffffffffffffffffffffffffffff16905090565b600060019054906101000a900460ff168061065457506106536116a9565b5b8061066a575060008054906101000a900460ff16155b6106bf576040517f08c379a000000000000000000000000000000000000000000000000000000000815260040180806020018281038252602e815260200180612828602e913960400191505060405180910390fd5b60008060019054906101000a900460ff16159050801561070f576001600060016101000a81548160ff02191690831515021790555060016000806101000a81548160ff0219169083151502179055505b82606560006101000a81548173ffffffffffffffffffffffffffffffffffffffff021916908373ffffffffffffffffffffffffffffffffffffffff1602179055508160669080519060200190610766929190611c32565b5061076f6116ba565b80156107905760008060016101000a81548160ff0219169083151502179055505b505050565b61079d611cc0565b600082116107e0576040517f08c379a00000000000000000000000000000000000000000000000000000000081526004016107d790612572565b60405180910390fd5b606760008381526020019081526020016000206040518060c00160405290816000820160009054906101000a900473ffffffffffffffffffffffffffffffffffffffff1673ffffffffffffffffffffffffffffffffffffffff1673ffffffffffffffffffffffffffffffffffffffff1681526020016001820154815260200160028201548152602001600382018054600181600116156101000203166002900480601f0160208091040260200160405190810160405280929190818152602001828054600181600116156101000203166002900480156109015780601f106108d657610100808354040283529160200191610901565b820191906000526020600020905b8154815290600101906020018083116108e457829003601f168201915b5050505050815260200160048201548152602001600582018054600181600116156101000203166002900480601f0160208091040260200160405190810160405280929190818152602001828054600181600116156101000203166002900480156109ad5780601f10610982576101008083540402835291602001916109ad565b820191906000526020600020905b81548152906001019060200180831161099057829003601f168201915b5050505050815250509050919050565b6109c5611d0f565b6109cd611d0f565b6000610180826000836103e85afa6109e457600080fd5b819250505090565b600080610a026109fc86866112af565b846112af565b90506000610a0f82611493565b9050610a19611c10565b60208160c1846103e95afa610a2d57600080fd5b600181600060018110610a3c57fe5b60200201511493505050509392505050565b60008111610a91576040517f08c379a0000000000000000000000000000000000000000000000000000000008152600401610a8890612592565b60405180910390fd5b606560009054906101000a900473ffffffffffffffffffffffffffffffffffffffff1673ffffffffffffffffffffffffffffffffffffffff166342966c68826040518263ffffffff1660e01b8152600401610aec91906125f4565b600060405180830381600087803b158015610b0657600080fd5b505af1158015610b1a573d6000803e3d6000fd5b505050507fa846a54d891a112f901986f77c78f5c69aad963ba295f5fdfc31e1a0dd7953e06067600083815260200190815260200160002060000160009054906101000a900473ffffffffffffffffffffffffffffffffffffffff166067600084815260200190815260200160002060010154606760008581526020019081526020016000206002015460676000868152602001908152602001600020600301606760008781526020019081526020016000206004015460676000888152602001908152602001600020600501604051610bf9969594939291906124ac565b60405180910390a160676000828152602001908152602001600020600080820160006101000a81549073ffffffffffffffffffffffffffffffffffffffff021916905560018201600090556002820160009055600382016000610c5c9190611d32565b6004820160009055600582016000610c749190611d32565b505050565b60008211610cbc576040517f08c379a0000000000000000000000000000000000000000000000000000000008152600401610cb390612592565b60405180910390fd5b6067600083815260200190815260200160002060000160009054906101000a900473ffffffffffffffffffffffffffffffffffffffff1673ffffffffffffffffffffffffffffffffffffffff163373ffffffffffffffffffffffffffffffffffffffff1614610d60576040517f08c379a0000000000000000000000000000000000000000000000000000000008152600401610d5790612552565b60405180910390fd5b80606760008481526020019081526020016000206005019080519060200190610d8a929190611c32565b505050565b60008111610dd2576040517f08c379a0000000000000000000000000000000000000000000000000000000008152600401610dc990612592565b60405180910390fd5b606560009054906101000a900473ffffffffffffffffffffffffffffffffffffffff1673ffffffffffffffffffffffffffffffffffffffff166342842e0e3384846040518463ffffffff1660e01b8152600401610e31939291906123f4565b600060405180830381600087803b158015610e4b57600080fd5b505af1158015610e5f573d6000803e3d6000fd5b50505050816067600083815260200190815260200160002060000160006101000a81548173ffffffffffffffffffffffffffffffffffffffff021916908373ffffffffffffffffffffffffffffffffffffffff1602179055505050565b610ec46110b1565b73ffffffffffffffffffffffffffffffffffffffff16610ee261060b565b73ffffffffffffffffffffffffffffffffffffffff1614610f6b576040517f08c379a00000000000000000000000000000000000000000000000000000000081526004018080602001828103825260208152602001807f4f776e61626c653a2063616c6c6572206973206e6f7420746865206f776e657281525060200191505060405180910390fd5b600073ffffffffffffffffffffffffffffffffffffffff168173ffffffffffffffffffffffffffffffffffffffff161415610ff1576040517f08c379a00000000000000000000000000000000000000000000000000000000081526004018080602001828103825260268152602001806128026026913960400191505060405180910390fd5b8073ffffffffffffffffffffffffffffffffffffffff16603360009054906101000a900473ffffffffffffffffffffffffffffffffffffffff1673ffffffffffffffffffffffffffffffffffffffff167f8be0079c531659141344cd1fd0a4f28419497f9722a3daafe3b4186f6b6457e060405160405180910390a380603360006101000a81548173ffffffffffffffffffffffffffffffffffffffff021916908373ffffffffffffffffffffffffffffffffffffffff16021790555050565b600033905090565b6060600082604051602001808273ffffffffffffffffffffffffffffffffffffffff1660601b815260140191505060405160208183030381529060405290506000602867ffffffffffffffff8111801561111257600080fd5b506040519080825280601f01601f1916602001820160405280156111455781602001600182028036833780820191505090505b5090506111538260146117c8565b90508092505050919050565b606060008214156111a7576040518060400160405280600181526020017f300000000000000000000000000000000000000000000000000000000000000081525090506112aa565b600082905060005b600082146111d1578080600101915050600a82816111c957fe5b0491506111af565b60008167ffffffffffffffff811180156111ea57600080fd5b506040519080825280601f01601f19166020018201604052801561121d5781602001600182028036833780820191505090505b50905060008290505b600086146112a2576001810390506000600a80888161124157fe5b04028703603001905060008160f81b90508084848151811061125f57fe5b60200101907effffffffffffffffffffffffffffffffffffffffffffffffffffffffffffff1916908160001a905350600a888161129857fe5b0497505050611226565b819450505050505b919050565b6060600083905060008390506000815183510167ffffffffffffffff811180156112d857600080fd5b506040519080825280601f01601f19166020018201604052801561130b5781602001600182028036833780820191505090505b50905060008190506000805b85518110156113855785818151811061132c57fe5b602001015160f81c60f81b83838060010194508151811061134957fe5b60200101907effffffffffffffffffffffffffffffffffffffffffffffffffffffffffffff1916908160001a9053508080600101915050611317565b5060005b84518110156113f75784818151811061139e57fe5b602001015160f81c60f81b8383806001019450815181106113bb57fe5b60200101907effffffffffffffffffffffffffffffffffffffffffffffffffffffffffffff1916908160001a9053508080600101915050611389565b50829550505050505092915050565b60606000826040516020018082815260200191505060405160208183030381529060405290506000604067ffffffffffffffff8111801561144657600080fd5b506040519080825280601f01601f1916602001820160405280156114795781602001600182028036833780820191505090505b5090506114878260206117c8565b90508092505050919050565b606060008290506000815167ffffffffffffffff811180156114b457600080fd5b506040519080825280602002602001820160405280156114e35781602001602082028036833780820191505090505b50905060005b82518110156115b457600083828151811061150057fe5b602001015160f81c60f81b60f81c905060608160ff16111561154857600a606182030183838151811061152f57fe5b602002602001019060ff16908160ff16815250506115a6565b60428160ff16111561158057600a604182030183838151811061156757fe5b602002602001019060ff16908160ff16815250506115a5565b6030810383838151811061159057fe5b602002602001019060ff16908160ff16815250505b5b5080806001019150506114e9565b50600060028251816115c257fe5b0467ffffffffffffffff811180156115d957600080fd5b506040519080825280601f01601f19166020018201604052801561160c5781602001600182028036833780820191505090505b50905060005b825181101561169d5782600182018151811061162a57fe5b6020026020010151601084838151811061164057fe5b6020026020010151020160f81b826002838161165857fe5b048151811061166357fe5b60200101907effffffffffffffffffffffffffffffffffffffffffffffffffffffffffffff1916908160001a905350600281019050611612565b50809350505050919050565b60006116b430611958565b15905090565b600060019054906101000a900460ff16806116d957506116d86116a9565b5b806116ef575060008054906101000a900460ff16155b611744576040517f08c379a000000000000000000000000000000000000000000000000000000000815260040180806020018281038252602e815260200180612828602e913960400191505060405180910390fd5b60008060019054906101000a900460ff161590508015611794576001600060016101000a81548160ff02191690831515021790555060016000806101000a81548160ff0219169083151502179055505b61179c61196b565b6117a4611a69565b80156117c55760008060016101000a81548160ff0219169083151502179055505b50565b606060006002830267ffffffffffffffff811180156117e657600080fd5b506040519080825280601f01601f1916602001820160405280156118195781602001600182028036833780820191505090505b50905060005b8381101561194d576000601086838151811061183757fe5b602001015160f81c60f81b60f81c60ff168161184f57fe5b04905060008160100287848151811061186457fe5b602001015160f81c60f81b60f81c0390506000600a8360ff161061188e576057830160f81b611896565b6030830160f81b5b90506000600a8360ff16106118b1576057830160f81b6118b9565b6030830160f81b5b9050818686600202815181106118cb57fe5b60200101907effffffffffffffffffffffffffffffffffffffffffffffffffffffffffffff1916908160001a9053508086600187600202018151811061190d57fe5b60200101907effffffffffffffffffffffffffffffffffffffffffffffffffffffffffffff1916908160001a90535050505050808060010191505061181f565b508091505092915050565b600080823b905060008111915050919050565b600060019054906101000a900460ff168061198a57506119896116a9565b5b806119a0575060008054906101000a900460ff16155b6119f5576040517f08c379a000000000000000000000000000000000000000000000000000000000815260040180806020018281038252602e815260200180612828602e913960400191505060405180910390fd5b60008060019054906101000a900460ff161590508015611a45576001600060016101000a81548160ff02191690831515021790555060016000806101000a81548160ff0219169083151502179055505b8015611a665760008060016101000a81548160ff0219169083151502179055505b50565b600060019054906101000a900460ff1680611a885750611a876116a9565b5b80611a9e575060008054906101000a900460ff16155b611af3576040517f08c379a000000000000000000000000000000000000000000000000000000000815260040180806020018281038252602e815260200180612828602e913960400191505060405180910390fd5b60008060019054906101000a900460ff161590508015611b43576001600060016101000a81548160ff02191690831515021790555060016000806101000a81548160ff0219169083151502179055505b6000611b4d6110b1565b905080603360006101000a81548173ffffffffffffffffffffffffffffffffffffffff021916908373ffffffffffffffffffffffffffffffffffffffff1602179055508073ffffffffffffffffffffffffffffffffffffffff16600073ffffffffffffffffffffffffffffffffffffffff167f8be0079c531659141344cd1fd0a4f28419497f9722a3daafe3b4186f6b6457e060405160405180910390a3508015611c0d5760008060016101000a81548160ff0219169083151502179055505b50565b6040518060200160405280600190602082028036833780820191505090505090565b828054600181600116156101000203166002900490600052602060002090601f016020900481019282611c685760008555611caf565b82601f10611c8157805160ff1916838001178555611caf565b82800160010185558215611caf579182015b82811115611cae578251825591602001919060010190611c93565b5b509050611cbc9190611d7a565b5090565b6040518060c00160405280600073ffffffffffffffffffffffffffffffffffffffff16815260200160008152602001600081526020016060815260200160008019168152602001606081525090565b604051806101800160405280600c90602082028036833780820191505090505090565b50805460018160011615610100020316600290046000825580601f10611d585750611d77565b601f016020900490600052602060002090810190611d769190611d7a565b5b50565b5b80821115611d93576000816000905550600101611d7b565b5090565b6000611daa611da584612640565b61260f565b905082815260208101848484011115611dc257600080fd5b611dcd848285612767565b509392505050565b600081359050611de4816127bc565b92915050565b600081359050611df9816127d3565b92915050565b600082601f830112611e1057600080fd5b8135611e20848260208601611d97565b91505092915050565b600081359050611e38816127ea565b92915050565b600060208284031215611e5057600080fd5b6000611e5e84828501611dd5565b91505092915050565b60008060408385031215611e7a57600080fd5b6000611e8885828601611dd5565b925050602083013567ffffffffffffffff811115611ea557600080fd5b611eb185828601611dff565b9150509250929050565b60008060408385031215611ece57600080fd5b6000611edc85828601611dd5565b9250506020611eed85828601611e29565b9150509250929050565b600080600060608486031215611f0c57600080fd5b6000611f1a86828701611dd5565b9350506020611f2b86828701611e29565b9250506040611f3c86828701611dea565b9150509250925092565b600080600060608486031215611f5b57600080fd5b600084013567ffffffffffffffff811115611f7557600080fd5b611f8186828701611dff565b935050602084013567ffffffffffffffff811115611f9e57600080fd5b611faa86828701611dff565b925050604084013567ffffffffffffffff811115611fc757600080fd5b611fd386828701611dff565b9150509250925092565b600060208284031215611fef57600080fd5b6000611ffd84828501611e29565b91505092915050565b6000806040838503121561201957600080fd5b600061202785828601611e29565b925050602083013567ffffffffffffffff81111561204457600080fd5b61205085828601611dff565b9150509250929050565b60006120668383612105565b60208301905092915050565b61207b81612731565b82525050565b61208a816126df565b82525050565b612099816126df565b82525050565b6120a88161268f565b6120b281846126b2565b92506120bd82612670565b8060005b838110156120ee5781516120d5878261205a565b96506120e0836126a5565b9250506001810190506120c1565b505050505050565b6120ff816126f1565b82525050565b61210e816126fd565b82525050565b61211d816126fd565b82525050565b600061212e8261269a565b61213881856126bd565b9350612148818560208601612776565b612151816127ab565b840191505092915050565b600081546001811660008114612179576001811461219f576121e3565b607f600283041661218a81876126ce565b955060ff1983168652602086019350506121e3565b600282046121ad81876126ce565b95506121b88561267a565b60005b828110156121da578154818901526001820191506020810190506121bb565b80880195505050505b505092915050565b60006121f8601b836126ce565b91507f7469636b6574206f776e6572206973206e6f7420636f6c6c65637400000000006000830152602082019050919050565b6000612238601b836126ce565b91507f746f6b656e206964206d757374206c6172676572207468616e203000000000006000830152602082019050919050565b60006122786003836126ce565b91507f30783000000000000000000000000000000000000000000000000000000000006000830152602082019050919050565b60006122b8601f836126ce565b91507f7374616b6520616d6f756e74206d757374206c6172676572207468616e2030006000830152602082019050919050565b60006122f8601f836126ce565b91507f706c6564676542696c6c2056657269667920646f206e6f7420706173732021006000830152602082019050919050565b600060c0830160008301516123436000860182612081565b50602083015161235660208601826123bb565b50604083015161236960408601826123bb565b50606083015184820360608601526123818282612123565b91505060808301516123966080860182612105565b5060a083015184820360a08601526123ae8282612123565b9150508091505092915050565b6123c481612727565b82525050565b6123d381612727565b82525050565b60006020820190506123ee6000830184612090565b92915050565b60006060820190506124096000830186612072565b6124166020830185612090565b61242360408301846123ca565b949350505050565b60006060820190506124406000830185612090565b61244d60208301846123ca565b818103604083015261245e8161226b565b90509392505050565b600060808201905061247c6000830187612090565b61248960208301866123ca565b61249660408301856123ca565b6124a36060830184612114565b95945050505050565b600060c0820190506124c16000830189612090565b6124ce60208301886123ca565b6124db60408301876123ca565b81810360608301526124ed818661215c565b90506124fc6080830185612114565b81810360a083015261250e818461215c565b9050979650505050505050565b600061018082019050612531600083018461209f565b92915050565b600060208201905061254c60008301846120f6565b92915050565b6000602082019050818103600083015261256b816121eb565b9050919050565b6000602082019050818103600083015261258b8161222b565b9050919050565b600060208201905081810360008301526125ab816122ab565b9050919050565b600060208201905081810360008301526125cb816122eb565b9050919050565b600060208201905081810360008301526125ec818461232b565b905092915050565b600060208201905061260960008301846123ca565b92915050565b6000604051905081810181811067ffffffffffffffff82111715612636576126356127a9565b5b8060405250919050565b600067ffffffffffffffff82111561265b5761265a6127a9565b5b601f19601f8301169050602081019050919050565b6000819050919050565b60008190508160005260206000209050919050565b6000600c9050919050565b600081519050919050565b6000602082019050919050565b600081905092915050565b600082825260208201905092915050565b600082825260208201905092915050565b60006126ea82612707565b9050919050565b60008115159050919050565b6000819050919050565b600073ffffffffffffffffffffffffffffffffffffffff82169050919050565b6000819050919050565b600061273c82612743565b9050919050565b600061274e82612755565b9050919050565b600061276082612707565b9050919050565b82818337600083830152505050565b60005b83811015612794578082015181840152602081019050612779565b838111156127a3576000848401525b50505050565bfe5b6000601f19601f8301169050919050565b6127c5816126df565b81146127d057600080fd5b50565b6127dc816126fd565b81146127e757600080fd5b50565b6127f381612727565b81146127fe57600080fd5b5056fe4f776e61626c653a206e6577206f776e657220697320746865207a65726f2061646472657373496e697469616c697a61626c653a20636f6e747261637420697320616c726561647920696e697469616c697a6564a2646970667358221220872309d2a99ba14ee148e25cc77b1c3b511f51aaaf5dc82530044ccf4e1c5f9f64736f6c63430007060033",
  "linkReferences": {},
  "deployedLinkReferences": {}
}