{
  "_format": "hh-sol-artifact-1",
  "contractName": "StakeTicket",
  "sourceName": "contracts/StakeTicket.sol",
  "abi": [
    {
      "anonymous": false,
      "inputs": [
        {
          "indexed": true,
          "internalType": "address",
          "name": "previousOwner",
          "type": "address"
        },
        {
          "indexed": true,
          "internalType": "address",
          "name": "newOwner",
          "type": "address"
        }
      ],
      "name": "OwnershipTransferred",
      "type": "event"
    },
    {
      "anonymous": false,
      "inputs": [
        {
          "indexed": false,
          "internalType": "address",
          "name": "owner",
          "type": "address"
        },
        {
          "indexed": false,
          "internalType": "uint256",
          "name": "amount",
          "type": "uint256"
        },
        {
          "indexed": false,
          "internalType": "uint256",
          "name": "startTimeSpan",
          "type": "uint256"
        },
        {
          "indexed": false,
          "internalType": "string",
          "name": "supperNode",
          "type": "string"
        },
        {
          "indexed": false,
          "internalType": "bytes32",
          "name": "txHash",
          "type": "bytes32"
        },
        {
          "indexed": false,
          "internalType": "string",
          "name": "withDrawTo",
          "type": "string"
        }
      ],
      "name": "StakeTicketBurn",
      "type": "event"
    },
    {
      "anonymous": false,
      "inputs": [
        {
          "indexed": false,
          "internalType": "address",
          "name": "to",
          "type": "address"
        },
        {
          "indexed": false,
          "internalType": "uint256",
          "name": "tokenId",
          "type": "uint256"
        },
        {
          "indexed": false,
          "internalType": "uint256",
          "name": "startTimeSpan",
          "type": "uint256"
        },
        {
          "indexed": false,
          "internalType": "bytes32",
          "name": "txHash",
          "type": "bytes32"
        }
      ],
      "name": "StakeTicketMint",
      "type": "event"
    },
    {
      "inputs": [],
      "name": "ARBITER_NUM",
      "outputs": [
        {
          "internalType": "uint256",
          "name": "",
          "type": "uint256"
        }
      ],
      "stateMutability": "view",
      "type": "function"
    },
    {
      "inputs": [
        {
          "internalType": "address",
          "name": "erc721Address",
          "type": "address"
        },
        {
          "internalType": "string",
          "name": "version",
          "type": "string"
        }
      ],
      "name": "__StakeTicket_init",
      "outputs": [],
      "stateMutability": "nonpayable",
      "type": "function"
    },
    {
      "inputs": [
        {
          "internalType": "uint256",
          "name": "tokenId",
          "type": "uint256"
        }
      ],
      "name": "burnTick",
      "outputs": [],
      "stateMutability": "nonpayable",
      "type": "function"
    },
    {
      "inputs": [
        {
          "internalType": "bytes32",
          "name": "elaHash",
          "type": "bytes32"
        },
        {
          "internalType": "bytes",
          "name": "signature",
          "type": "bytes"
        },
        {
          "internalType": "bytes",
          "name": "publicKey",
          "type": "bytes"
        }
      ],
      "name": "claim",
      "outputs": [],
      "stateMutability": "nonpayable",
      "type": "function"
    },
    {
      "inputs": [],
      "name": "getArbiterList",
      "outputs": [
        {
          "internalType": "bytes32[12]",
          "name": "",
          "type": "bytes32[12]"
        }
      ],
      "stateMutability": "view",
      "type": "function"
    },
    {
      "inputs": [
        {
          "internalType": "uint256",
          "name": "tokenId",
          "type": "uint256"
        }
      ],
      "name": "getTickFromTokenId",
      "outputs": [
        {
          "components": [
            {
              "internalType": "address",
              "name": "owner",
              "type": "address"
            },
            {
              "internalType": "uint256",
              "name": "amount",
              "type": "uint256"
            },
            {
              "internalType": "uint256",
              "name": "startTimeSpan",
              "type": "uint256"
            },
            {
              "internalType": "string",
              "name": "supperNode",
              "type": "string"
            },
            {
              "internalType": "bytes32",
              "name": "txHash",
              "type": "bytes32"
            },
            {
              "internalType": "string",
              "name": "withDrawTo",
              "type": "string"
            }
          ],
          "internalType": "struct StakeTicket.TickInfo",
          "name": "",
          "type": "tuple"
        }
      ],
      "stateMutability": "view",
      "type": "function"
    },
    {
      "inputs": [
        {
          "internalType": "bytes32",
          "name": "_elaHash",
          "type": "bytes32"
        }
      ],
      "name": "getTokenIDByTxhash",
      "outputs": [
        {
          "internalType": "uint256",
          "name": "",
          "type": "uint256"
        }
      ],
      "stateMutability": "view",
      "type": "function"
    },
    {
      "inputs": [
        {
          "internalType": "address",
          "name": "to",
          "type": "address"
        },
        {
          "internalType": "uint256",
          "name": "tokenId",
          "type": "uint256"
        },
        {
          "internalType": "bytes32",
          "name": "txHash",
          "type": "bytes32"
        }
      ],
      "name": "mintTick",
      "outputs": [],
      "stateMutability": "nonpayable",
      "type": "function"
    },
    {
      "inputs": [],
      "name": "owner",
      "outputs": [
        {
          "internalType": "address",
          "name": "",
          "type": "address"
        }
      ],
      "stateMutability": "view",
      "type": "function"
    },
    {
      "inputs": [
        {
          "internalType": "string",
          "name": "_pubkey",
          "type": "string"
        },
        {
          "internalType": "string",
          "name": "_data",
          "type": "string"
        },
        {
          "internalType": "string",
          "name": "_sig",
          "type": "string"
        }
      ],
      "name": "p256Verify",
      "outputs": [
        {
          "internalType": "bool",
          "name": "",
          "type": "bool"
        }
      ],
      "stateMutability": "view",
      "type": "function"
    },
    {
      "inputs": [
        {
          "internalType": "bytes32",
          "name": "_elaHash",
          "type": "bytes32"
        },
        {
          "internalType": "bytes",
          "name": "_signature",
          "type": "bytes"
        },
        {
          "internalType": "bytes",
          "name": "_publicKey",
          "type": "bytes"
        }
      ],
      "name": "pledgeBillVerify",
      "outputs": [
        {
          "internalType": "uint256",
          "name": "",
          "type": "uint256"
        }
      ],
      "stateMutability": "view",
      "type": "function"
    },
    {
      "inputs": [
        {
          "internalType": "address",
          "name": "_to",
          "type": "address"
        },
        {
          "internalType": "uint256",
          "name": "_tokenId",
          "type": "uint256"
        },
        {
          "internalType": "bytes32",
          "name": "_txHash",
          "type": "bytes32"
        }
      ],
      "name": "pledgeBillVerifyTest",
      "outputs": [
        {
          "internalType": "bool",
          "name": "",
          "type": "bool"
        }
      ],
      "stateMutability": "view",
      "type": "function"
    },
    {
      "inputs": [],
      "name": "renounceOwnership",
      "outputs": [],
      "stateMutability": "nonpayable",
      "type": "function"
    },
    {
      "inputs": [
        {
          "internalType": "address",
          "name": "to",
          "type": "address"
        },
        {
          "internalType": "uint256",
          "name": "tokenId",
          "type": "uint256"
        }
      ],
      "name": "tranferTick",
      "outputs": [],
      "stateMutability": "nonpayable",
      "type": "function"
    },
    {
      "inputs": [
        {
          "internalType": "address",
          "name": "newOwner",
          "type": "address"
        }
      ],
      "name": "transferOwnership",
      "outputs": [],
      "stateMutability": "nonpayable",
      "type": "function"
    },
    {
      "inputs": [
        {
          "internalType": "uint256",
          "name": "tokenId",
          "type": "uint256"
        },
        {
          "internalType": "string",
          "name": "withDrawTo",
          "type": "string"
        }
      ],
      "name": "withDrawTick",
      "outputs": [],
      "stateMutability": "nonpayable",
      "type": "function"
    }
  ],
  "bytecode": "0x608060405234801561001057600080fd5b50612cf9806100206000396000f3fe608060405234801561001057600080fd5b50600436106101005760003560e01c8063aa12bc3c11610097578063e6731fcb11610066578063e6731fcb14610299578063f20711f8146102c9578063f2fde38b146102e5578063f7349b911461030157610100565b8063aa12bc3c14610213578063b16b5a1314610231578063d6d02ae814610261578063d78f7d7b1461027d57610100565b8063715018a6116100d3578063715018a61461019f5780638da5cb5b146101a957806399e0e483146101c7578063a0d956e9146101e357610100565b8063181e79eb14610105578063350d4b1514610135578063502c7757146101655780636ef3823214610181575b600080fd5b61011f600480360381019061011a919061228d565b61031d565b60405161012c9190612975565b60405180910390f35b61014f600480360381019061014a9190612305565b610397565b60405161015c9190612a32565b60405180910390f35b61017f600480360381019061017a919061228d565b610419565b005b61018961041e565b6040516101969190612a32565b60405180910390f35b6101a7610423565b005b6101b1610593565b6040516101be9190612817565b60405180910390f35b6101e160048036038101906101dc91906121fd565b6105bd565b005b6101fd60048036038101906101f8919061241b565b61071d565b60405161020a9190612a10565b60405180910390f35b61021b610945565b6040516102289190612959565b60405180910390f35b61024b60048036038101906102469190612384565b610974565b6040516102589190612975565b60405180910390f35b61027b6004803603810190610276919061241b565b6109d6565b005b61029760048036038101906102929190612444565b610c01565b005b6102b360048036038101906102ae91906122dc565b610d17565b6040516102c09190612a32565b60405180910390f35b6102e360048036038101906102de9190612251565b610d7c565b005b6102ff60048036038101906102fa91906121d4565b610ea9565b005b61031b60048036038101906103169190612305565b61109e565b005b60008061034b61033d61032f8761125b565b61033887611301565b611451565b610346856115a8565b611451565b9050600061035882611635565b9050610362611f3e565b6020816093846103eb5afa61037657600080fd5b60018160006001811061038557fe5b60200201511493505050509392505050565b6000806103eb90506000602090506000602090506103b3611f3e565b6000805a905060006103c48b61184b565b905060006103d2828c6118a6565b90506103de818b6118a6565b9050868151019350858585838b87fa6103f657600080fd5b8460006001811061040357fe5b6020020151985050505050505050509392505050565b505050565b600c81565b61042b611965565b73ffffffffffffffffffffffffffffffffffffffff16610449610593565b73ffffffffffffffffffffffffffffffffffffffff16146104d2576040517f08c379a00000000000000000000000000000000000000000000000000000000081526004018080602001828103825260208152602001807f4f776e61626c653a2063616c6c6572206973206e6f7420746865206f776e657281525060200191505060405180910390fd5b600073ffffffffffffffffffffffffffffffffffffffff16603360009054906101000a900473ffffffffffffffffffffffffffffffffffffffff1673ffffffffffffffffffffffffffffffffffffffff167f8be0079c531659141344cd1fd0a4f28419497f9722a3daafe3b4186f6b6457e060405160405180910390a36000603360006101000a81548173ffffffffffffffffffffffffffffffffffffffff021916908373ffffffffffffffffffffffffffffffffffffffff160217905550565b6000603360009054906101000a900473ffffffffffffffffffffffffffffffffffffffff16905090565b600060019054906101000a900460ff16806105dc57506105db61196d565b5b806105f2575060008054906101000a900460ff16155b610647576040517f08c379a000000000000000000000000000000000000000000000000000000000815260040180806020018281038252602e815260200180612c96602e913960400191505060405180910390fd5b60008060019054906101000a900460ff161590508015610697576001600060016101000a81548160ff02191690831515021790555060016000806101000a81548160ff0219169083151502179055505b82606560006101000a81548173ffffffffffffffffffffffffffffffffffffffff021916908373ffffffffffffffffffffffffffffffffffffffff16021790555081606690805190602001906106ee929190611f60565b506106f761197e565b80156107185760008060016101000a81548160ff0219169083151502179055505b505050565b610725611fee565b60008211610768576040517f08c379a000000000000000000000000000000000000000000000000000000000815260040161075f906129b0565b60405180910390fd5b606760008381526020019081526020016000206040518060c00160405290816000820160009054906101000a900473ffffffffffffffffffffffffffffffffffffffff1673ffffffffffffffffffffffffffffffffffffffff1673ffffffffffffffffffffffffffffffffffffffff1681526020016001820154815260200160028201548152602001600382018054600181600116156101000203166002900480601f0160208091040260200160405190810160405280929190818152602001828054600181600116156101000203166002900480156108895780601f1061085e57610100808354040283529160200191610889565b820191906000526020600020905b81548152906001019060200180831161086c57829003601f168201915b5050505050815260200160048201548152602001600582018054600181600116156101000203166002900480601f0160208091040260200160405190810160405280929190818152602001828054600181600116156101000203166002900480156109355780601f1061090a57610100808354040283529160200191610935565b820191906000526020600020905b81548152906001019060200180831161091857829003601f168201915b5050505050815250509050919050565b61094d61203d565b61095561203d565b6000610180826000836103e85afa61096c57600080fd5b819250505090565b60008061098a6109848686611451565b84611451565b9050600061099782611635565b90506109a1611f3e565b60208160c1846103e95afa6109b557600080fd5b6001816000600181106109c457fe5b60200201511493505050509392505050565b60008111610a19576040517f08c379a0000000000000000000000000000000000000000000000000000000008152600401610a10906129d0565b60405180910390fd5b606560009054906101000a900473ffffffffffffffffffffffffffffffffffffffff1673ffffffffffffffffffffffffffffffffffffffff166342966c68826040518263ffffffff1660e01b8152600401610a749190612a32565b600060405180830381600087803b158015610a8e57600080fd5b505af1158015610aa2573d6000803e3d6000fd5b505050507fa846a54d891a112f901986f77c78f5c69aad963ba295f5fdfc31e1a0dd7953e06067600083815260200190815260200160002060000160009054906101000a900473ffffffffffffffffffffffffffffffffffffffff166067600084815260200190815260200160002060010154606760008581526020019081526020016000206002015460676000868152602001908152602001600020600301606760008781526020019081526020016000206004015460676000888152602001908152602001600020600501604051610b81969594939291906128ea565b60405180910390a160676000828152602001908152602001600020600080820160006101000a81549073ffffffffffffffffffffffffffffffffffffffff021916905560018201600090556002820160009055600382016000610be49190612060565b6004820160009055600582016000610bfc9190612060565b505050565b60008211610c44576040517f08c379a0000000000000000000000000000000000000000000000000000000008152600401610c3b906129d0565b60405180910390fd5b6067600083815260200190815260200160002060000160009054906101000a900473ffffffffffffffffffffffffffffffffffffffff1673ffffffffffffffffffffffffffffffffffffffff163373ffffffffffffffffffffffffffffffffffffffff1614610ce8576040517f08c379a0000000000000000000000000000000000000000000000000000000008152600401610cdf90612990565b60405180910390fd5b80606760008481526020019081526020016000206005019080519060200190610d12929190611f60565b505050565b6000806103ec9050600060209050600060209050610d33611f3e565b6000805a90506000610d448961184b565b9050858151019250848484838a86fa610d5c57600080fd5b83600060018110610d6957fe5b6020020151975050505050505050919050565b60008111610dbf576040517f08c379a0000000000000000000000000000000000000000000000000000000008152600401610db6906129d0565b60405180910390fd5b606560009054906101000a900473ffffffffffffffffffffffffffffffffffffffff1673ffffffffffffffffffffffffffffffffffffffff166342842e0e3384846040518463ffffffff1660e01b8152600401610e1e93929190612832565b600060405180830381600087803b158015610e3857600080fd5b505af1158015610e4c573d6000803e3d6000fd5b50505050816067600083815260200190815260200160002060000160006101000a81548173ffffffffffffffffffffffffffffffffffffffff021916908373ffffffffffffffffffffffffffffffffffffffff1602179055505050565b610eb1611965565b73ffffffffffffffffffffffffffffffffffffffff16610ecf610593565b73ffffffffffffffffffffffffffffffffffffffff1614610f58576040517f08c379a00000000000000000000000000000000000000000000000000000000081526004018080602001828103825260208152602001807f4f776e61626c653a2063616c6c6572206973206e6f7420746865206f776e657281525060200191505060405180910390fd5b600073ffffffffffffffffffffffffffffffffffffffff168173ffffffffffffffffffffffffffffffffffffffff161415610fde576040517f08c379a0000000000000000000000000000000000000000000000000000000008152600401808060200182810382526026815260200180612c706026913960400191505060405180910390fd5b8073ffffffffffffffffffffffffffffffffffffffff16603360009054906101000a900473ffffffffffffffffffffffffffffffffffffffff1673ffffffffffffffffffffffffffffffffffffffff167f8be0079c531659141344cd1fd0a4f28419497f9722a3daafe3b4186f6b6457e060405160405180910390a380603360006101000a81548173ffffffffffffffffffffffffffffffffffffffff021916908373ffffffffffffffffffffffffffffffffffffffff16021790555050565b60006110ab848484610397565b9050600181146110f0576040517f08c379a00000000000000000000000000000000000000000000000000000000081526004016110e7906129f0565b60405180910390fd5b60006110fb85610d17565b9050426067600083815260200190815260200160002060020181905550846067600083815260200190815260200160002060040181905550336067600083815260200190815260200160002060000160006101000a81548173ffffffffffffffffffffffffffffffffffffffff021916908373ffffffffffffffffffffffffffffffffffffffff160217905550606560009054906101000a900473ffffffffffffffffffffffffffffffffffffffff1673ffffffffffffffffffffffffffffffffffffffff1663d3fc986433836040518363ffffffff1660e01b81526004016111e5929190612869565b600060405180830381600087803b1580156111ff57600080fd5b505af1158015611213573d6000803e3d6000fd5b505050507f7327a52cdebe8ff9ace20426ebd639d204d3d3b303adda96161107911fad2a523382428860405161124c94939291906128a5565b60405180910390a15050505050565b6060600082604051602001808273ffffffffffffffffffffffffffffffffffffffff1660601b815260140191505060405160208183030381529060405290506000602867ffffffffffffffff811180156112b457600080fd5b506040519080825280601f01601f1916602001820160405280156112e75781602001600182028036833780820191505090505b5090506112f5826014611a8c565b90508092505050919050565b60606000821415611349576040518060400160405280600181526020017f3000000000000000000000000000000000000000000000000000000000000000815250905061144c565b600082905060005b60008214611373578080600101915050600a828161136b57fe5b049150611351565b60008167ffffffffffffffff8111801561138c57600080fd5b506040519080825280601f01601f1916602001820160405280156113bf5781602001600182028036833780820191505090505b50905060008290505b60008614611444576001810390506000600a8088816113e357fe5b04028703603001905060008160f81b90508084848151811061140157fe5b60200101907effffffffffffffffffffffffffffffffffffffffffffffffffffffffffffff1916908160001a905350600a888161143a57fe5b04975050506113c8565b819450505050505b919050565b6060600083905060008390506000815183510167ffffffffffffffff8111801561147a57600080fd5b506040519080825280601f01601f1916602001820160405280156114ad5781602001600182028036833780820191505090505b50905060008190506000805b8551811015611527578581815181106114ce57fe5b602001015160f81c60f81b8383806001019450815181106114eb57fe5b60200101907effffffffffffffffffffffffffffffffffffffffffffffffffffffffffffff1916908160001a90535080806001019150506114b9565b5060005b84518110156115995784818151811061154057fe5b602001015160f81c60f81b83838060010194508151811061155d57fe5b60200101907effffffffffffffffffffffffffffffffffffffffffffffffffffffffffffff1916908160001a905350808060010191505061152b565b50829550505050505092915050565b60606000826040516020018082815260200191505060405160208183030381529060405290506000604067ffffffffffffffff811180156115e857600080fd5b506040519080825280601f01601f19166020018201604052801561161b5781602001600182028036833780820191505090505b509050611629826020611a8c565b90508092505050919050565b606060008290506000815167ffffffffffffffff8111801561165657600080fd5b506040519080825280602002602001820160405280156116855781602001602082028036833780820191505090505b50905060005b82518110156117565760008382815181106116a257fe5b602001015160f81c60f81b60f81c905060608160ff1611156116ea57600a60618203018383815181106116d157fe5b602002602001019060ff16908160ff1681525050611748565b60428160ff16111561172257600a604182030183838151811061170957fe5b602002602001019060ff16908160ff1681525050611747565b6030810383838151811061173257fe5b602002602001019060ff16908160ff16815250505b5b50808060010191505061168b565b506000600282518161176457fe5b0467ffffffffffffffff8111801561177b57600080fd5b506040519080825280601f01601f1916602001820160405280156117ae5781602001600182028036833780820191505090505b50905060005b825181101561183f578260018201815181106117cc57fe5b602002602001015160108483815181106117e257fe5b6020026020010151020160f81b82600283816117fa57fe5b048151811061180557fe5b60200101907effffffffffffffffffffffffffffffffffffffffffffffffffffffffffffff1916908160001a9053506002810190506117b4565b50809350505050919050565b6060602067ffffffffffffffff8111801561186557600080fd5b506040519080825280601f01601f1916602001820160405280156118985781602001600182028036833780820191505090505b509050816020820152919050565b60606000825184510167ffffffffffffffff811180156118c557600080fd5b506040519080825280601f01601f1916602001820160405280156118f85781602001600182028036833780820191505090505b509050600080600080600080600061190f8b611c1c565b80975081985050506119208a611c1c565b809550819650505061193188611c1c565b80925081945050508583019150611949878488611c2e565b611954858386611c2e565b879850505050505050505092915050565b600033905090565b600061197830611c86565b15905090565b600060019054906101000a900460ff168061199d575061199c61196d565b5b806119b3575060008054906101000a900460ff16155b611a08576040517f08c379a000000000000000000000000000000000000000000000000000000000815260040180806020018281038252602e815260200180612c96602e913960400191505060405180910390fd5b60008060019054906101000a900460ff161590508015611a58576001600060016101000a81548160ff02191690831515021790555060016000806101000a81548160ff0219169083151502179055505b611a60611c99565b611a68611d97565b8015611a895760008060016101000a81548160ff0219169083151502179055505b50565b606060006002830267ffffffffffffffff81118015611aaa57600080fd5b506040519080825280601f01601f191660200182016040528015611add5781602001600182028036833780820191505090505b50905060005b83811015611c115760006010868381518110611afb57fe5b602001015160f81c60f81b60f81c60ff1681611b1357fe5b049050600081601002878481518110611b2857fe5b602001015160f81c60f81b60f81c0390506000600a8360ff1610611b52576057830160f81b611b5a565b6030830160f81b5b90506000600a8360ff1610611b75576057830160f81b611b7d565b6030830160f81b5b905081868660020281518110611b8f57fe5b60200101907effffffffffffffffffffffffffffffffffffffffffffffffffffffffffffff1916908160001a90535080866001876002020181518110611bd157fe5b60200101907effffffffffffffffffffffffffffffffffffffffffffffffffffffffffffff1916908160001a905350505050508080600101915050611ae3565b508091505092915050565b60008082519050602083019150915091565b5b60208110611c525782518252602082019150602083019250602081039050611c2f565b6000811415611c6057611c81565b60006001826020036101000a03905080198451168184511681811785525050505b505050565b600080823b905060008111915050919050565b600060019054906101000a900460ff1680611cb85750611cb761196d565b5b80611cce575060008054906101000a900460ff16155b611d23576040517f08c379a000000000000000000000000000000000000000000000000000000000815260040180806020018281038252602e815260200180612c96602e913960400191505060405180910390fd5b60008060019054906101000a900460ff161590508015611d73576001600060016101000a81548160ff02191690831515021790555060016000806101000a81548160ff0219169083151502179055505b8015611d945760008060016101000a81548160ff0219169083151502179055505b50565b600060019054906101000a900460ff1680611db65750611db561196d565b5b80611dcc575060008054906101000a900460ff16155b611e21576040517f08c379a000000000000000000000000000000000000000000000000000000000815260040180806020018281038252602e815260200180612c96602e913960400191505060405180910390fd5b60008060019054906101000a900460ff161590508015611e71576001600060016101000a81548160ff02191690831515021790555060016000806101000a81548160ff0219169083151502179055505b6000611e7b611965565b905080603360006101000a81548173ffffffffffffffffffffffffffffffffffffffff021916908373ffffffffffffffffffffffffffffffffffffffff1602179055508073ffffffffffffffffffffffffffffffffffffffff16600073ffffffffffffffffffffffffffffffffffffffff167f8be0079c531659141344cd1fd0a4f28419497f9722a3daafe3b4186f6b6457e060405160405180910390a3508015611f3b5760008060016101000a81548160ff0219169083151502179055505b50565b6040518060200160405280600190602082028036833780820191505090505090565b828054600181600116156101000203166002900490600052602060002090601f016020900481019282611f965760008555611fdd565b82601f10611faf57805160ff1916838001178555611fdd565b82800160010185558215611fdd579182015b82811115611fdc578251825591602001919060010190611fc1565b5b509050611fea91906120a8565b5090565b6040518060c00160405280600073ffffffffffffffffffffffffffffffffffffffff16815260200160008152602001600081526020016060815260200160008019168152602001606081525090565b604051806101800160405280600c90602082028036833780820191505090505090565b50805460018160011615610100020316600290046000825580601f1061208657506120a5565b601f0160209004906000526020600020908101906120a491906120a8565b5b50565b5b808211156120c15760008160009055506001016120a9565b5090565b60006120d86120d384612a7e565b612a4d565b9050828152602081018484840111156120f057600080fd5b6120fb848285612bd5565b509392505050565b600061211661211184612aae565b612a4d565b90508281526020810184848401111561212e57600080fd5b612139848285612bd5565b509392505050565b60008135905061215081612c2a565b92915050565b60008135905061216581612c41565b92915050565b600082601f83011261217c57600080fd5b813561218c8482602086016120c5565b91505092915050565b600082601f8301126121a657600080fd5b81356121b6848260208601612103565b91505092915050565b6000813590506121ce81612c58565b92915050565b6000602082840312156121e657600080fd5b60006121f484828501612141565b91505092915050565b6000806040838503121561221057600080fd5b600061221e85828601612141565b925050602083013567ffffffffffffffff81111561223b57600080fd5b61224785828601612195565b9150509250929050565b6000806040838503121561226457600080fd5b600061227285828601612141565b9250506020612283858286016121bf565b9150509250929050565b6000806000606084860312156122a257600080fd5b60006122b086828701612141565b93505060206122c1868287016121bf565b92505060406122d286828701612156565b9150509250925092565b6000602082840312156122ee57600080fd5b60006122fc84828501612156565b91505092915050565b60008060006060848603121561231a57600080fd5b600061232886828701612156565b935050602084013567ffffffffffffffff81111561234557600080fd5b6123518682870161216b565b925050604084013567ffffffffffffffff81111561236e57600080fd5b61237a8682870161216b565b9150509250925092565b60008060006060848603121561239957600080fd5b600084013567ffffffffffffffff8111156123b357600080fd5b6123bf86828701612195565b935050602084013567ffffffffffffffff8111156123dc57600080fd5b6123e886828701612195565b925050604084013567ffffffffffffffff81111561240557600080fd5b61241186828701612195565b9150509250925092565b60006020828403121561242d57600080fd5b600061243b848285016121bf565b91505092915050565b6000806040838503121561245757600080fd5b6000612465858286016121bf565b925050602083013567ffffffffffffffff81111561248257600080fd5b61248e85828601612195565b9150509250929050565b60006124a48383612543565b60208301905092915050565b6124b981612b9f565b82525050565b6124c881612b4d565b82525050565b6124d781612b4d565b82525050565b6124e681612afd565b6124f08184612b20565b92506124fb82612ade565b8060005b8381101561252c5781516125138782612498565b965061251e83612b13565b9250506001810190506124ff565b505050505050565b61253d81612b5f565b82525050565b61254c81612b6b565b82525050565b61255b81612b6b565b82525050565b600061256c82612b08565b6125768185612b2b565b9350612586818560208601612be4565b61258f81612c19565b840191505092915050565b6000815460018116600081146125b757600181146125dd57612621565b607f60028304166125c88187612b3c565b955060ff198316865260208601935050612621565b600282046125eb8187612b3c565b95506125f685612ae8565b60005b82811015612618578154818901526001820191506020810190506125f9565b80880195505050505b505092915050565b6000612636601b83612b3c565b91507f7469636b6574206f776e6572206973206e6f7420636f6c6c65637400000000006000830152602082019050919050565b6000612676601b83612b3c565b91507f746f6b656e206964206d757374206c6172676572207468616e203000000000006000830152602082019050919050565b60006126b6600383612b3c565b91507f30783000000000000000000000000000000000000000000000000000000000006000830152602082019050919050565b60006126f6601f83612b3c565b91507f7374616b6520616d6f756e74206d757374206c6172676572207468616e2030006000830152602082019050919050565b6000612736601f83612b3c565b91507f706c6564676542696c6c2056657269667920646f206e6f7420706173732021006000830152602082019050919050565b600060c08301600083015161278160008601826124bf565b50602083015161279460208601826127f9565b5060408301516127a760408601826127f9565b50606083015184820360608601526127bf8282612561565b91505060808301516127d46080860182612543565b5060a083015184820360a08601526127ec8282612561565b9150508091505092915050565b61280281612b95565b82525050565b61281181612b95565b82525050565b600060208201905061282c60008301846124ce565b92915050565b600060608201905061284760008301866124b0565b61285460208301856124ce565b6128616040830184612808565b949350505050565b600060608201905061287e60008301856124b0565b61288b6020830184612808565b818103604083015261289c816126a9565b90509392505050565b60006080820190506128ba60008301876124b0565b6128c76020830186612808565b6128d46040830185612808565b6128e16060830184612552565b95945050505050565b600060c0820190506128ff60008301896124ce565b61290c6020830188612808565b6129196040830187612808565b818103606083015261292b818661259a565b905061293a6080830185612552565b81810360a083015261294c818461259a565b9050979650505050505050565b60006101808201905061296f60008301846124dd565b92915050565b600060208201905061298a6000830184612534565b92915050565b600060208201905081810360008301526129a981612629565b9050919050565b600060208201905081810360008301526129c981612669565b9050919050565b600060208201905081810360008301526129e9816126e9565b9050919050565b60006020820190508181036000830152612a0981612729565b9050919050565b60006020820190508181036000830152612a2a8184612769565b905092915050565b6000602082019050612a476000830184612808565b92915050565b6000604051905081810181811067ffffffffffffffff82111715612a7457612a73612c17565b5b8060405250919050565b600067ffffffffffffffff821115612a9957612a98612c17565b5b601f19601f8301169050602081019050919050565b600067ffffffffffffffff821115612ac957612ac8612c17565b5b601f19601f8301169050602081019050919050565b6000819050919050565b60008190508160005260206000209050919050565b6000600c9050919050565b600081519050919050565b6000602082019050919050565b600081905092915050565b600082825260208201905092915050565b600082825260208201905092915050565b6000612b5882612b75565b9050919050565b60008115159050919050565b6000819050919050565b600073ffffffffffffffffffffffffffffffffffffffff82169050919050565b6000819050919050565b6000612baa82612bb1565b9050919050565b6000612bbc82612bc3565b9050919050565b6000612bce82612b75565b9050919050565b82818337600083830152505050565b60005b83811015612c02578082015181840152602081019050612be7565b83811115612c11576000848401525b50505050565bfe5b6000601f19601f8301169050919050565b612c3381612b4d565b8114612c3e57600080fd5b50565b612c4a81612b6b565b8114612c5557600080fd5b50565b612c6181612b95565b8114612c6c57600080fd5b5056fe4f776e61626c653a206e6577206f776e657220697320746865207a65726f2061646472657373496e697469616c697a61626c653a20636f6e747261637420697320616c726561647920696e697469616c697a6564a26469706673582212200d9c780b6777b2fcb41e378076193cb55edc888f92fc668344af7520fbbebae664736f6c63430007060033",
  "linkReferences": {},
  "deployedLinkReferences": {}
}