{
  "_format": "hh-sol-artifact-1",
  "contractName": "StakeTicket",
  "sourceName": "contracts/StakeTicket.sol",
  "abi": [
    {
      "anonymous": false,
      "inputs": [
        {
          "indexed": true,
          "internalType": "address",
          "name": "previousOwner",
          "type": "address"
        },
        {
          "indexed": true,
          "internalType": "address",
          "name": "newOwner",
          "type": "address"
        }
      ],
      "name": "OwnershipTransferred",
      "type": "event"
    },
    {
      "anonymous": false,
      "inputs": [
        {
          "indexed": false,
          "internalType": "address",
          "name": "owner",
          "type": "address"
        },
        {
          "indexed": false,
          "internalType": "uint256",
          "name": "amount",
          "type": "uint256"
        },
        {
          "indexed": false,
          "internalType": "uint256",
          "name": "startTimeSpan",
          "type": "uint256"
        },
        {
          "indexed": false,
          "internalType": "string",
          "name": "supperNode",
          "type": "string"
        },
        {
          "indexed": false,
          "internalType": "bytes32",
          "name": "txHash",
          "type": "bytes32"
        },
        {
          "indexed": false,
          "internalType": "string",
          "name": "withDrawTo",
          "type": "string"
        }
      ],
      "name": "StakeTicketBurn",
      "type": "event"
    },
    {
      "anonymous": false,
      "inputs": [
        {
          "indexed": false,
          "internalType": "address",
          "name": "to",
          "type": "address"
        },
        {
          "indexed": false,
          "internalType": "uint256",
          "name": "tokenId",
          "type": "uint256"
        },
        {
          "indexed": false,
          "internalType": "uint256",
          "name": "startTimeSpan",
          "type": "uint256"
        },
        {
          "indexed": false,
          "internalType": "bytes32",
          "name": "txHash",
          "type": "bytes32"
        }
      ],
      "name": "StakeTicketMint",
      "type": "event"
    },
    {
      "inputs": [],
      "name": "ARBITER_NUM",
      "outputs": [
        {
          "internalType": "uint256",
          "name": "",
          "type": "uint256"
        }
      ],
      "stateMutability": "view",
      "type": "function"
    },
    {
      "inputs": [
        {
          "internalType": "address",
          "name": "erc721Address",
          "type": "address"
        },
        {
          "internalType": "string",
          "name": "version",
          "type": "string"
        }
      ],
      "name": "__StakeTicket_init",
      "outputs": [],
      "stateMutability": "nonpayable",
      "type": "function"
    },
    {
      "inputs": [
        {
          "internalType": "uint256",
          "name": "tokenId",
          "type": "uint256"
        }
      ],
      "name": "burnTick",
      "outputs": [],
      "stateMutability": "nonpayable",
      "type": "function"
    },
    {
      "inputs": [
        {
          "internalType": "bytes32",
          "name": "elaHash",
          "type": "bytes32"
        },
        {
          "internalType": "bytes",
          "name": "signature",
          "type": "bytes"
        },
        {
          "internalType": "bytes",
          "name": "publickey",
          "type": "bytes"
        }
      ],
      "name": "claim",
      "outputs": [],
      "stateMutability": "nonpayable",
      "type": "function"
    },
    {
      "inputs": [],
      "name": "getArbiterList",
      "outputs": [
        {
          "internalType": "bytes32[12]",
          "name": "",
          "type": "bytes32[12]"
        }
      ],
      "stateMutability": "view",
      "type": "function"
    },
    {
      "inputs": [
        {
          "internalType": "uint256",
          "name": "tokenId",
          "type": "uint256"
        }
      ],
      "name": "getTickFromTokenId",
      "outputs": [
        {
          "components": [
            {
              "internalType": "address",
              "name": "owner",
              "type": "address"
            },
            {
              "internalType": "uint256",
              "name": "amount",
              "type": "uint256"
            },
            {
              "internalType": "uint256",
              "name": "startTimeSpan",
              "type": "uint256"
            },
            {
              "internalType": "string",
              "name": "supperNode",
              "type": "string"
            },
            {
              "internalType": "bytes32",
              "name": "txHash",
              "type": "bytes32"
            },
            {
              "internalType": "string",
              "name": "withDrawTo",
              "type": "string"
            }
          ],
          "internalType": "struct StakeTicket.TickInfo",
          "name": "",
          "type": "tuple"
        }
      ],
      "stateMutability": "view",
      "type": "function"
    },
    {
      "inputs": [
        {
          "internalType": "address",
          "name": "to",
          "type": "address"
        },
        {
          "internalType": "uint256",
          "name": "tokenId",
          "type": "uint256"
        },
        {
          "internalType": "bytes32",
          "name": "txHash",
          "type": "bytes32"
        }
      ],
      "name": "mintTick",
      "outputs": [],
      "stateMutability": "nonpayable",
      "type": "function"
    },
    {
      "inputs": [],
      "name": "owner",
      "outputs": [
        {
          "internalType": "address",
          "name": "",
          "type": "address"
        }
      ],
      "stateMutability": "view",
      "type": "function"
    },
    {
      "inputs": [
        {
          "internalType": "string",
          "name": "_pubkey",
          "type": "string"
        },
        {
          "internalType": "string",
          "name": "_data",
          "type": "string"
        },
        {
          "internalType": "string",
          "name": "_sig",
          "type": "string"
        }
      ],
      "name": "p256Verify",
      "outputs": [
        {
          "internalType": "bool",
          "name": "",
          "type": "bool"
        }
      ],
      "stateMutability": "view",
      "type": "function"
    },
    {
      "inputs": [
        {
          "internalType": "bytes32",
          "name": "_elaHash",
          "type": "bytes32"
        },
        {
          "internalType": "bytes",
          "name": "_signature",
          "type": "bytes"
        },
        {
          "internalType": "bytes",
          "name": "_publicKey",
          "type": "bytes"
        }
      ],
      "name": "pledgeBillVerify",
      "outputs": [
        {
          "internalType": "uint256",
          "name": "",
          "type": "uint256"
        }
      ],
      "stateMutability": "view",
      "type": "function"
    },
    {
      "inputs": [
        {
          "internalType": "address",
          "name": "_to",
          "type": "address"
        },
        {
          "internalType": "uint256",
          "name": "_tokenId",
          "type": "uint256"
        },
        {
          "internalType": "bytes32",
          "name": "_txHash",
          "type": "bytes32"
        }
      ],
      "name": "pledgeBillVerifyTest",
      "outputs": [
        {
          "internalType": "bool",
          "name": "",
          "type": "bool"
        }
      ],
      "stateMutability": "view",
      "type": "function"
    },
    {
      "inputs": [],
      "name": "renounceOwnership",
      "outputs": [],
      "stateMutability": "nonpayable",
      "type": "function"
    },
    {
      "inputs": [
        {
          "internalType": "address",
          "name": "to",
          "type": "address"
        },
        {
          "internalType": "uint256",
          "name": "tokenId",
          "type": "uint256"
        }
      ],
      "name": "tranferTick",
      "outputs": [],
      "stateMutability": "nonpayable",
      "type": "function"
    },
    {
      "inputs": [
        {
          "internalType": "address",
          "name": "newOwner",
          "type": "address"
        }
      ],
      "name": "transferOwnership",
      "outputs": [],
      "stateMutability": "nonpayable",
      "type": "function"
    },
    {
      "inputs": [
        {
          "internalType": "uint256",
          "name": "tokenId",
          "type": "uint256"
        },
        {
          "internalType": "string",
          "name": "withDrawTo",
          "type": "string"
        }
      ],
      "name": "withDrawTick",
      "outputs": [],
      "stateMutability": "nonpayable",
      "type": "function"
    }
  ],
  "bytecode": "0x608060405234801561001057600080fd5b50612a0a806100206000396000f3fe608060405234801561001057600080fd5b50600436106100f55760003560e01c8063a0d956e911610097578063d78f7d7b11610066578063d78f7d7b14610272578063f20711f81461028e578063f2fde38b146102aa578063f7349b91146102c6576100f5565b8063a0d956e9146101d8578063aa12bc3c14610208578063b16b5a1314610226578063d6d02ae814610256576100f5565b80636ef38232116100d35780636ef3823214610176578063715018a6146101945780638da5cb5b1461019e57806399e0e483146101bc576100f5565b8063181e79eb146100fa578063350d4b151461012a578063502c77571461015a575b600080fd5b610114600480360381019061010f9190612088565b6102e2565b6040516101219190612686565b60405180910390f35b610144600480360381019061013f91906120d7565b61035c565b6040516101519190612743565b60405180910390f35b610174600480360381019061016f9190612088565b6103de565b005b61017e6103e3565b60405161018b9190612743565b60405180910390f35b61019c6103e8565b005b6101a6610558565b6040516101b391906125a9565b60405180910390f35b6101d660048036038101906101d19190611ff8565b610582565b005b6101f260048036038101906101ed91906121ed565b6106e2565b6040516101ff9190612721565b60405180910390f35b61021061090a565b60405161021d919061266a565b60405180910390f35b610240600480360381019061023b9190612156565b610939565b60405161024d9190612686565b60405180910390f35b610270600480360381019061026b91906121ed565b61099b565b005b61028c60048036038101906102879190612216565b610bc6565b005b6102a860048036038101906102a3919061204c565b610cdc565b005b6102c460048036038101906102bf9190611fcf565b610e09565b005b6102e060048036038101906102db91906120d7565b610ffe565b005b6000806103106103026102f487611056565b6102fd876110fc565b61124c565b61030b856113a3565b61124c565b9050600061031d82611430565b9050610327611d39565b6020816093846103eb5afa61033b57600080fd5b60018160006001811061034a57fe5b60200201511493505050509392505050565b6000806103eb9050600060209050600060209050610378611d39565b6000805a905060006103898b611646565b90506000610397828c6116a1565b90506103a3818b6116a1565b9050868151019350858585838b87fa6103bb57600080fd5b846000600181106103c857fe5b6020020151985050505050505050509392505050565b505050565b600c81565b6103f0611760565b73ffffffffffffffffffffffffffffffffffffffff1661040e610558565b73ffffffffffffffffffffffffffffffffffffffff1614610497576040517f08c379a00000000000000000000000000000000000000000000000000000000081526004018080602001828103825260208152602001807f4f776e61626c653a2063616c6c6572206973206e6f7420746865206f776e657281525060200191505060405180910390fd5b600073ffffffffffffffffffffffffffffffffffffffff16603360009054906101000a900473ffffffffffffffffffffffffffffffffffffffff1673ffffffffffffffffffffffffffffffffffffffff167f8be0079c531659141344cd1fd0a4f28419497f9722a3daafe3b4186f6b6457e060405160405180910390a36000603360006101000a81548173ffffffffffffffffffffffffffffffffffffffff021916908373ffffffffffffffffffffffffffffffffffffffff160217905550565b6000603360009054906101000a900473ffffffffffffffffffffffffffffffffffffffff16905090565b600060019054906101000a900460ff16806105a157506105a0611768565b5b806105b7575060008054906101000a900460ff16155b61060c576040517f08c379a000000000000000000000000000000000000000000000000000000000815260040180806020018281038252602e8152602001806129a7602e913960400191505060405180910390fd5b60008060019054906101000a900460ff16159050801561065c576001600060016101000a81548160ff02191690831515021790555060016000806101000a81548160ff0219169083151502179055505b82606560006101000a81548173ffffffffffffffffffffffffffffffffffffffff021916908373ffffffffffffffffffffffffffffffffffffffff16021790555081606690805190602001906106b3929190611d5b565b506106bc611779565b80156106dd5760008060016101000a81548160ff0219169083151502179055505b505050565b6106ea611de9565b6000821161072d576040517f08c379a0000000000000000000000000000000000000000000000000000000008152600401610724906126c1565b60405180910390fd5b606760008381526020019081526020016000206040518060c00160405290816000820160009054906101000a900473ffffffffffffffffffffffffffffffffffffffff1673ffffffffffffffffffffffffffffffffffffffff1673ffffffffffffffffffffffffffffffffffffffff1681526020016001820154815260200160028201548152602001600382018054600181600116156101000203166002900480601f01602080910402602001604051908101604052809291908181526020018280546001816001161561010002031660029004801561084e5780601f106108235761010080835404028352916020019161084e565b820191906000526020600020905b81548152906001019060200180831161083157829003601f168201915b5050505050815260200160048201548152602001600582018054600181600116156101000203166002900480601f0160208091040260200160405190810160405280929190818152602001828054600181600116156101000203166002900480156108fa5780601f106108cf576101008083540402835291602001916108fa565b820191906000526020600020905b8154815290600101906020018083116108dd57829003601f168201915b5050505050815250509050919050565b610912611e38565b61091a611e38565b6000610180826000836103e85afa61093157600080fd5b819250505090565b60008061094f610949868661124c565b8461124c565b9050600061095c82611430565b9050610966611d39565b60208160c1846103e95afa61097a57600080fd5b60018160006001811061098957fe5b60200201511493505050509392505050565b600081116109de576040517f08c379a00000000000000000000000000000000000000000000000000000000081526004016109d5906126e1565b60405180910390fd5b606560009054906101000a900473ffffffffffffffffffffffffffffffffffffffff1673ffffffffffffffffffffffffffffffffffffffff166342966c68826040518263ffffffff1660e01b8152600401610a399190612743565b600060405180830381600087803b158015610a5357600080fd5b505af1158015610a67573d6000803e3d6000fd5b505050507fa846a54d891a112f901986f77c78f5c69aad963ba295f5fdfc31e1a0dd7953e06067600083815260200190815260200160002060000160009054906101000a900473ffffffffffffffffffffffffffffffffffffffff166067600084815260200190815260200160002060010154606760008581526020019081526020016000206002015460676000868152602001908152602001600020600301606760008781526020019081526020016000206004015460676000888152602001908152602001600020600501604051610b46969594939291906125fb565b60405180910390a160676000828152602001908152602001600020600080820160006101000a81549073ffffffffffffffffffffffffffffffffffffffff021916905560018201600090556002820160009055600382016000610ba99190611e5b565b6004820160009055600582016000610bc19190611e5b565b505050565b60008211610c09576040517f08c379a0000000000000000000000000000000000000000000000000000000008152600401610c00906126e1565b60405180910390fd5b6067600083815260200190815260200160002060000160009054906101000a900473ffffffffffffffffffffffffffffffffffffffff1673ffffffffffffffffffffffffffffffffffffffff163373ffffffffffffffffffffffffffffffffffffffff1614610cad576040517f08c379a0000000000000000000000000000000000000000000000000000000008152600401610ca4906126a1565b60405180910390fd5b80606760008481526020019081526020016000206005019080519060200190610cd7929190611d5b565b505050565b60008111610d1f576040517f08c379a0000000000000000000000000000000000000000000000000000000008152600401610d16906126e1565b60405180910390fd5b606560009054906101000a900473ffffffffffffffffffffffffffffffffffffffff1673ffffffffffffffffffffffffffffffffffffffff166342842e0e3384846040518463ffffffff1660e01b8152600401610d7e939291906125c4565b600060405180830381600087803b158015610d9857600080fd5b505af1158015610dac573d6000803e3d6000fd5b50505050816067600083815260200190815260200160002060000160006101000a81548173ffffffffffffffffffffffffffffffffffffffff021916908373ffffffffffffffffffffffffffffffffffffffff1602179055505050565b610e11611760565b73ffffffffffffffffffffffffffffffffffffffff16610e2f610558565b73ffffffffffffffffffffffffffffffffffffffff1614610eb8576040517f08c379a00000000000000000000000000000000000000000000000000000000081526004018080602001828103825260208152602001807f4f776e61626c653a2063616c6c6572206973206e6f7420746865206f776e657281525060200191505060405180910390fd5b600073ffffffffffffffffffffffffffffffffffffffff168173ffffffffffffffffffffffffffffffffffffffff161415610f3e576040517f08c379a00000000000000000000000000000000000000000000000000000000081526004018080602001828103825260268152602001806129816026913960400191505060405180910390fd5b8073ffffffffffffffffffffffffffffffffffffffff16603360009054906101000a900473ffffffffffffffffffffffffffffffffffffffff1673ffffffffffffffffffffffffffffffffffffffff167f8be0079c531659141344cd1fd0a4f28419497f9722a3daafe3b4186f6b6457e060405160405180910390a380603360006101000a81548173ffffffffffffffffffffffffffffffffffffffff021916908373ffffffffffffffffffffffffffffffffffffffff16021790555050565b600061100b84848461035c565b905060018114611050576040517f08c379a000000000000000000000000000000000000000000000000000000000815260040161104790612701565b60405180910390fd5b50505050565b6060600082604051602001808273ffffffffffffffffffffffffffffffffffffffff1660601b815260140191505060405160208183030381529060405290506000602867ffffffffffffffff811180156110af57600080fd5b506040519080825280601f01601f1916602001820160405280156110e25781602001600182028036833780820191505090505b5090506110f0826014611887565b90508092505050919050565b60606000821415611144576040518060400160405280600181526020017f30000000000000000000000000000000000000000000000000000000000000008152509050611247565b600082905060005b6000821461116e578080600101915050600a828161116657fe5b04915061114c565b60008167ffffffffffffffff8111801561118757600080fd5b506040519080825280601f01601f1916602001820160405280156111ba5781602001600182028036833780820191505090505b50905060008290505b6000861461123f576001810390506000600a8088816111de57fe5b04028703603001905060008160f81b9050808484815181106111fc57fe5b60200101907effffffffffffffffffffffffffffffffffffffffffffffffffffffffffffff1916908160001a905350600a888161123557fe5b04975050506111c3565b819450505050505b919050565b6060600083905060008390506000815183510167ffffffffffffffff8111801561127557600080fd5b506040519080825280601f01601f1916602001820160405280156112a85781602001600182028036833780820191505090505b50905060008190506000805b8551811015611322578581815181106112c957fe5b602001015160f81c60f81b8383806001019450815181106112e657fe5b60200101907effffffffffffffffffffffffffffffffffffffffffffffffffffffffffffff1916908160001a90535080806001019150506112b4565b5060005b84518110156113945784818151811061133b57fe5b602001015160f81c60f81b83838060010194508151811061135857fe5b60200101907effffffffffffffffffffffffffffffffffffffffffffffffffffffffffffff1916908160001a9053508080600101915050611326565b50829550505050505092915050565b60606000826040516020018082815260200191505060405160208183030381529060405290506000604067ffffffffffffffff811180156113e357600080fd5b506040519080825280601f01601f1916602001820160405280156114165781602001600182028036833780820191505090505b509050611424826020611887565b90508092505050919050565b606060008290506000815167ffffffffffffffff8111801561145157600080fd5b506040519080825280602002602001820160405280156114805781602001602082028036833780820191505090505b50905060005b825181101561155157600083828151811061149d57fe5b602001015160f81c60f81b60f81c905060608160ff1611156114e557600a60618203018383815181106114cc57fe5b602002602001019060ff16908160ff1681525050611543565b60428160ff16111561151d57600a604182030183838151811061150457fe5b602002602001019060ff16908160ff1681525050611542565b6030810383838151811061152d57fe5b602002602001019060ff16908160ff16815250505b5b508080600101915050611486565b506000600282518161155f57fe5b0467ffffffffffffffff8111801561157657600080fd5b506040519080825280601f01601f1916602001820160405280156115a95781602001600182028036833780820191505090505b50905060005b825181101561163a578260018201815181106115c757fe5b602002602001015160108483815181106115dd57fe5b6020026020010151020160f81b82600283816115f557fe5b048151811061160057fe5b60200101907effffffffffffffffffffffffffffffffffffffffffffffffffffffffffffff1916908160001a9053506002810190506115af565b50809350505050919050565b6060602067ffffffffffffffff8111801561166057600080fd5b506040519080825280601f01601f1916602001820160405280156116935781602001600182028036833780820191505090505b509050816020820152919050565b60606000825184510167ffffffffffffffff811180156116c057600080fd5b506040519080825280601f01601f1916602001820160405280156116f35781602001600182028036833780820191505090505b509050600080600080600080600061170a8b611a17565b809750819850505061171b8a611a17565b809550819650505061172c88611a17565b80925081945050508583019150611744878488611a29565b61174f858386611a29565b879850505050505050505092915050565b600033905090565b600061177330611a81565b15905090565b600060019054906101000a900460ff16806117985750611797611768565b5b806117ae575060008054906101000a900460ff16155b611803576040517f08c379a000000000000000000000000000000000000000000000000000000000815260040180806020018281038252602e8152602001806129a7602e913960400191505060405180910390fd5b60008060019054906101000a900460ff161590508015611853576001600060016101000a81548160ff02191690831515021790555060016000806101000a81548160ff0219169083151502179055505b61185b611a94565b611863611b92565b80156118845760008060016101000a81548160ff0219169083151502179055505b50565b606060006002830267ffffffffffffffff811180156118a557600080fd5b506040519080825280601f01601f1916602001820160405280156118d85781602001600182028036833780820191505090505b50905060005b83811015611a0c57600060108683815181106118f657fe5b602001015160f81c60f81b60f81c60ff168161190e57fe5b04905060008160100287848151811061192357fe5b602001015160f81c60f81b60f81c0390506000600a8360ff161061194d576057830160f81b611955565b6030830160f81b5b90506000600a8360ff1610611970576057830160f81b611978565b6030830160f81b5b90508186866002028151811061198a57fe5b60200101907effffffffffffffffffffffffffffffffffffffffffffffffffffffffffffff1916908160001a905350808660018760020201815181106119cc57fe5b60200101907effffffffffffffffffffffffffffffffffffffffffffffffffffffffffffff1916908160001a9053505050505080806001019150506118de565b508091505092915050565b60008082519050602083019150915091565b5b60208110611a4d5782518252602082019150602083019250602081039050611a2a565b6000811415611a5b57611a7c565b60006001826020036101000a03905080198451168184511681811785525050505b505050565b600080823b905060008111915050919050565b600060019054906101000a900460ff1680611ab35750611ab2611768565b5b80611ac9575060008054906101000a900460ff16155b611b1e576040517f08c379a000000000000000000000000000000000000000000000000000000000815260040180806020018281038252602e8152602001806129a7602e913960400191505060405180910390fd5b60008060019054906101000a900460ff161590508015611b6e576001600060016101000a81548160ff02191690831515021790555060016000806101000a81548160ff0219169083151502179055505b8015611b8f5760008060016101000a81548160ff0219169083151502179055505b50565b600060019054906101000a900460ff1680611bb15750611bb0611768565b5b80611bc7575060008054906101000a900460ff16155b611c1c576040517f08c379a000000000000000000000000000000000000000000000000000000000815260040180806020018281038252602e8152602001806129a7602e913960400191505060405180910390fd5b60008060019054906101000a900460ff161590508015611c6c576001600060016101000a81548160ff02191690831515021790555060016000806101000a81548160ff0219169083151502179055505b6000611c76611760565b905080603360006101000a81548173ffffffffffffffffffffffffffffffffffffffff021916908373ffffffffffffffffffffffffffffffffffffffff1602179055508073ffffffffffffffffffffffffffffffffffffffff16600073ffffffffffffffffffffffffffffffffffffffff167f8be0079c531659141344cd1fd0a4f28419497f9722a3daafe3b4186f6b6457e060405160405180910390a3508015611d365760008060016101000a81548160ff0219169083151502179055505b50565b6040518060200160405280600190602082028036833780820191505090505090565b828054600181600116156101000203166002900490600052602060002090601f016020900481019282611d915760008555611dd8565b82601f10611daa57805160ff1916838001178555611dd8565b82800160010185558215611dd8579182015b82811115611dd7578251825591602001919060010190611dbc565b5b509050611de59190611ea3565b5090565b6040518060c00160405280600073ffffffffffffffffffffffffffffffffffffffff16815260200160008152602001600081526020016060815260200160008019168152602001606081525090565b604051806101800160405280600c90602082028036833780820191505090505090565b50805460018160011615610100020316600290046000825580601f10611e815750611ea0565b601f016020900490600052602060002090810190611e9f9190611ea3565b5b50565b5b80821115611ebc576000816000905550600101611ea4565b5090565b6000611ed3611ece8461278f565b61275e565b905082815260208101848484011115611eeb57600080fd5b611ef68482856128e6565b509392505050565b6000611f11611f0c846127bf565b61275e565b905082815260208101848484011115611f2957600080fd5b611f348482856128e6565b509392505050565b600081359050611f4b8161293b565b92915050565b600081359050611f6081612952565b92915050565b600082601f830112611f7757600080fd5b8135611f87848260208601611ec0565b91505092915050565b600082601f830112611fa157600080fd5b8135611fb1848260208601611efe565b91505092915050565b600081359050611fc981612969565b92915050565b600060208284031215611fe157600080fd5b6000611fef84828501611f3c565b91505092915050565b6000806040838503121561200b57600080fd5b600061201985828601611f3c565b925050602083013567ffffffffffffffff81111561203657600080fd5b61204285828601611f90565b9150509250929050565b6000806040838503121561205f57600080fd5b600061206d85828601611f3c565b925050602061207e85828601611fba565b9150509250929050565b60008060006060848603121561209d57600080fd5b60006120ab86828701611f3c565b93505060206120bc86828701611fba565b92505060406120cd86828701611f51565b9150509250925092565b6000806000606084860312156120ec57600080fd5b60006120fa86828701611f51565b935050602084013567ffffffffffffffff81111561211757600080fd5b61212386828701611f66565b925050604084013567ffffffffffffffff81111561214057600080fd5b61214c86828701611f66565b9150509250925092565b60008060006060848603121561216b57600080fd5b600084013567ffffffffffffffff81111561218557600080fd5b61219186828701611f90565b935050602084013567ffffffffffffffff8111156121ae57600080fd5b6121ba86828701611f90565b925050604084013567ffffffffffffffff8111156121d757600080fd5b6121e386828701611f90565b9150509250925092565b6000602082840312156121ff57600080fd5b600061220d84828501611fba565b91505092915050565b6000806040838503121561222957600080fd5b600061223785828601611fba565b925050602083013567ffffffffffffffff81111561225457600080fd5b61226085828601611f90565b9150509250929050565b60006122768383612315565b60208301905092915050565b61228b816128b0565b82525050565b61229a8161285e565b82525050565b6122a98161285e565b82525050565b6122b88161280e565b6122c28184612831565b92506122cd826127ef565b8060005b838110156122fe5781516122e5878261226a565b96506122f083612824565b9250506001810190506122d1565b505050505050565b61230f81612870565b82525050565b61231e8161287c565b82525050565b61232d8161287c565b82525050565b600061233e82612819565b612348818561283c565b93506123588185602086016128f5565b6123618161292a565b840191505092915050565b60008154600181166000811461238957600181146123af576123f3565b607f600283041661239a818761284d565b955060ff1983168652602086019350506123f3565b600282046123bd818761284d565b95506123c8856127f9565b60005b828110156123ea578154818901526001820191506020810190506123cb565b80880195505050505b505092915050565b6000612408601b8361284d565b91507f7469636b6574206f776e6572206973206e6f7420636f6c6c65637400000000006000830152602082019050919050565b6000612448601b8361284d565b91507f746f6b656e206964206d757374206c6172676572207468616e203000000000006000830152602082019050919050565b6000612488601f8361284d565b91507f7374616b6520616d6f756e74206d757374206c6172676572207468616e2030006000830152602082019050919050565b60006124c8601e8361284d565b91507f706c6564676542696c6c2056657269667920646f206e6f7420706173732000006000830152602082019050919050565b600060c0830160008301516125136000860182612291565b506020830151612526602086018261258b565b506040830151612539604086018261258b565b50606083015184820360608601526125518282612333565b91505060808301516125666080860182612315565b5060a083015184820360a086015261257e8282612333565b9150508091505092915050565b612594816128a6565b82525050565b6125a3816128a6565b82525050565b60006020820190506125be60008301846122a0565b92915050565b60006060820190506125d96000830186612282565b6125e660208301856122a0565b6125f3604083018461259a565b949350505050565b600060c08201905061261060008301896122a0565b61261d602083018861259a565b61262a604083018761259a565b818103606083015261263c818661236c565b905061264b6080830185612324565b81810360a083015261265d818461236c565b9050979650505050505050565b60006101808201905061268060008301846122af565b92915050565b600060208201905061269b6000830184612306565b92915050565b600060208201905081810360008301526126ba816123fb565b9050919050565b600060208201905081810360008301526126da8161243b565b9050919050565b600060208201905081810360008301526126fa8161247b565b9050919050565b6000602082019050818103600083015261271a816124bb565b9050919050565b6000602082019050818103600083015261273b81846124fb565b905092915050565b6000602082019050612758600083018461259a565b92915050565b6000604051905081810181811067ffffffffffffffff8211171561278557612784612928565b5b8060405250919050565b600067ffffffffffffffff8211156127aa576127a9612928565b5b601f19601f8301169050602081019050919050565b600067ffffffffffffffff8211156127da576127d9612928565b5b601f19601f8301169050602081019050919050565b6000819050919050565b60008190508160005260206000209050919050565b6000600c9050919050565b600081519050919050565b6000602082019050919050565b600081905092915050565b600082825260208201905092915050565b600082825260208201905092915050565b600061286982612886565b9050919050565b60008115159050919050565b6000819050919050565b600073ffffffffffffffffffffffffffffffffffffffff82169050919050565b6000819050919050565b60006128bb826128c2565b9050919050565b60006128cd826128d4565b9050919050565b60006128df82612886565b9050919050565b82818337600083830152505050565b60005b838110156129135780820151818401526020810190506128f8565b83811115612922576000848401525b50505050565bfe5b6000601f19601f8301169050919050565b6129448161285e565b811461294f57600080fd5b50565b61295b8161287c565b811461296657600080fd5b50565b612972816128a6565b811461297d57600080fd5b5056fe4f776e61626c653a206e6577206f776e657220697320746865207a65726f2061646472657373496e697469616c697a61626c653a20636f6e747261637420697320616c726561647920696e697469616c697a6564a26469706673582212205f104b9d71b99990dea63d72329acf2d6a01f96335d5ec0f76f04444ff499fc664736f6c63430007060033",
  "linkReferences": {},
  "deployedLinkReferences": {}
}