{
  "_format": "hh-sol-artifact-1",
  "contractName": "StakeTicket",
  "sourceName": "contracts/StakeTicket.sol",
  "abi": [
    {
      "anonymous": false,
      "inputs": [
        {
          "indexed": true,
          "internalType": "address",
          "name": "previousOwner",
          "type": "address"
        },
        {
          "indexed": true,
          "internalType": "address",
          "name": "newOwner",
          "type": "address"
        }
      ],
      "name": "OwnershipTransferred",
      "type": "event"
    },
    {
      "anonymous": false,
      "inputs": [
        {
          "indexed": false,
          "internalType": "address",
          "name": "owner",
          "type": "address"
        },
        {
          "indexed": false,
          "internalType": "uint256",
          "name": "amount",
          "type": "uint256"
        },
        {
          "indexed": false,
          "internalType": "uint256",
          "name": "startTimeSpan",
          "type": "uint256"
        },
        {
          "indexed": false,
          "internalType": "string",
          "name": "supperNode",
          "type": "string"
        },
        {
          "indexed": false,
          "internalType": "bytes32",
          "name": "txHash",
          "type": "bytes32"
        },
        {
          "indexed": false,
          "internalType": "string",
          "name": "withDrawTo",
          "type": "string"
        }
      ],
      "name": "StakeTicketBurn",
      "type": "event"
    },
    {
      "anonymous": false,
      "inputs": [
        {
          "indexed": false,
          "internalType": "address",
          "name": "to",
          "type": "address"
        },
        {
          "indexed": false,
          "internalType": "uint256",
          "name": "tokenId",
          "type": "uint256"
        },
        {
          "indexed": false,
          "internalType": "uint256",
          "name": "startTimeSpan",
          "type": "uint256"
        },
        {
          "indexed": false,
          "internalType": "bytes32",
          "name": "txHash",
          "type": "bytes32"
        }
      ],
      "name": "StakeTicketMint",
      "type": "event"
    },
    {
      "inputs": [],
      "name": "ARBITER_NUM",
      "outputs": [
        {
          "internalType": "uint256",
          "name": "",
          "type": "uint256"
        }
      ],
      "stateMutability": "view",
      "type": "function"
    },
    {
      "inputs": [
        {
          "internalType": "address",
          "name": "erc721Address",
          "type": "address"
        },
        {
          "internalType": "string",
          "name": "version",
          "type": "string"
        }
      ],
      "name": "__StakeTicket_init",
      "outputs": [],
      "stateMutability": "nonpayable",
      "type": "function"
    },
    {
      "inputs": [
        {
          "internalType": "uint256",
          "name": "tokenId",
          "type": "uint256"
        }
      ],
      "name": "burnTick",
      "outputs": [],
      "stateMutability": "nonpayable",
      "type": "function"
    },
    {
      "inputs": [],
      "name": "getArbiterList",
      "outputs": [
        {
          "internalType": "bytes32[12]",
          "name": "",
          "type": "bytes32[12]"
        }
      ],
      "stateMutability": "view",
      "type": "function"
    },
    {
      "inputs": [
        {
          "internalType": "uint256",
          "name": "tokenId",
          "type": "uint256"
        }
      ],
      "name": "getTickFromTokenId",
      "outputs": [
        {
          "components": [
            {
              "internalType": "address",
              "name": "owner",
              "type": "address"
            },
            {
              "internalType": "uint256",
              "name": "amount",
              "type": "uint256"
            },
            {
              "internalType": "uint256",
              "name": "startTimeSpan",
              "type": "uint256"
            },
            {
              "internalType": "string",
              "name": "supperNode",
              "type": "string"
            },
            {
              "internalType": "bytes32",
              "name": "txHash",
              "type": "bytes32"
            },
            {
              "internalType": "string",
              "name": "withDrawTo",
              "type": "string"
            }
          ],
          "internalType": "struct StakeTicket.TickInfo",
          "name": "",
          "type": "tuple"
        }
      ],
      "stateMutability": "view",
      "type": "function"
    },
    {
      "inputs": [
        {
          "internalType": "address",
          "name": "to",
          "type": "address"
        },
        {
          "internalType": "uint256",
          "name": "tokenId",
          "type": "uint256"
        },
        {
          "internalType": "bytes32",
          "name": "txHash",
          "type": "bytes32"
        }
      ],
      "name": "mintTick",
      "outputs": [],
      "stateMutability": "nonpayable",
      "type": "function"
    },
    {
      "inputs": [],
      "name": "owner",
      "outputs": [
        {
          "internalType": "address",
          "name": "",
          "type": "address"
        }
      ],
      "stateMutability": "view",
      "type": "function"
    },
    {
      "inputs": [
        {
          "internalType": "string",
          "name": "_pubkey",
          "type": "string"
        },
        {
          "internalType": "string",
          "name": "_data",
          "type": "string"
        },
        {
          "internalType": "string",
          "name": "_sig",
          "type": "string"
        }
      ],
      "name": "p256Verify",
      "outputs": [
        {
          "internalType": "bool",
          "name": "",
          "type": "bool"
        }
      ],
      "stateMutability": "view",
      "type": "function"
    },
    {
      "inputs": [],
      "name": "renounceOwnership",
      "outputs": [],
      "stateMutability": "nonpayable",
      "type": "function"
    },
    {
      "inputs": [
        {
          "internalType": "address",
          "name": "to",
          "type": "address"
        },
        {
          "internalType": "uint256",
          "name": "tokenId",
          "type": "uint256"
        }
      ],
      "name": "tranferTick",
      "outputs": [],
      "stateMutability": "nonpayable",
      "type": "function"
    },
    {
      "inputs": [
        {
          "internalType": "address",
          "name": "newOwner",
          "type": "address"
        }
      ],
      "name": "transferOwnership",
      "outputs": [],
      "stateMutability": "nonpayable",
      "type": "function"
    },
    {
      "inputs": [
        {
          "internalType": "uint256",
          "name": "tokenId",
          "type": "uint256"
        },
        {
          "internalType": "string",
          "name": "withDrawTo",
          "type": "string"
        }
      ],
      "name": "withDrawTick",
      "outputs": [],
      "stateMutability": "nonpayable",
      "type": "function"
    }
  ],
  "bytecode": "0x608060405234801561001057600080fd5b5061230e806100206000396000f3fe608060405234801561001057600080fd5b50600436106100b45760003560e01c8063aa12bc3c11610071578063aa12bc3c14610167578063b16b5a1314610185578063d6d02ae8146101b5578063d78f7d7b146101d1578063f20711f8146101ed578063f2fde38b14610209576100b4565b8063502c7757146100b95780636ef38232146100d5578063715018a6146100f35780638da5cb5b146100fd57806399e0e4831461011b578063a0d956e914610137575b600080fd5b6100d360048036038101906100ce91906119da565b610225565b005b6100dd61038c565b6040516100ea9190612077565b60405180910390f35b6100fb610391565b005b610105610501565b6040516101129190611e7c565b60405180910390f35b6101356004803603810190610130919061194a565b61052b565b005b610151600480360381019061014c9190611ac0565b61068b565b60405161015e9190612055565b60405180910390f35b61016f6108b3565b60405161017c9190611fbe565b60405180910390f35b61019f600480360381019061019a9190611a29565b6108e2565b6040516101ac9190611fda565b60405180910390f35b6101cf60048036038101906101ca9190611ac0565b610944565b005b6101eb60048036038101906101e69190611ae9565b610b6f565b005b6102076004803603810190610202919061199e565b610c85565b005b610223600480360381019061021e9190611921565b610db2565b005b6000808060001b9050426067600086815260200190815260200160002060020181905550806067600086815260200190815260200160002060040181905550846067600086815260200190815260200160002060000160006101000a81548173ffffffffffffffffffffffffffffffffffffffff021916908373ffffffffffffffffffffffffffffffffffffffff160217905550606560009054906101000a900473ffffffffffffffffffffffffffffffffffffffff1673ffffffffffffffffffffffffffffffffffffffff1663d3fc986486866040518363ffffffff1660e01b8152600401610316929190611ece565b600060405180830381600087803b15801561033057600080fd5b505af1158015610344573d6000803e3d6000fd5b505050507f7327a52cdebe8ff9ace20426ebd639d204d3d3b303adda96161107911fad2a528585428460405161037d9493929190611f0a565b60405180910390a15050505050565b600c81565b610399610fa7565b73ffffffffffffffffffffffffffffffffffffffff166103b7610501565b73ffffffffffffffffffffffffffffffffffffffff1614610440576040517f08c379a00000000000000000000000000000000000000000000000000000000081526004018080602001828103825260208152602001807f4f776e61626c653a2063616c6c6572206973206e6f7420746865206f776e657281525060200191505060405180910390fd5b600073ffffffffffffffffffffffffffffffffffffffff16603360009054906101000a900473ffffffffffffffffffffffffffffffffffffffff1673ffffffffffffffffffffffffffffffffffffffff167f8be0079c531659141344cd1fd0a4f28419497f9722a3daafe3b4186f6b6457e060405160405180910390a36000603360006101000a81548173ffffffffffffffffffffffffffffffffffffffff021916908373ffffffffffffffffffffffffffffffffffffffff160217905550565b6000603360009054906101000a900473ffffffffffffffffffffffffffffffffffffffff16905090565b600060019054906101000a900460ff168061054a5750610549610faf565b5b80610560575060008054906101000a900460ff16155b6105b5576040517f08c379a000000000000000000000000000000000000000000000000000000000815260040180806020018281038252602e8152602001806122ab602e913960400191505060405180910390fd5b60008060019054906101000a900460ff161590508015610605576001600060016101000a81548160ff02191690831515021790555060016000806101000a81548160ff0219169083151502179055505b82606560006101000a81548173ffffffffffffffffffffffffffffffffffffffff021916908373ffffffffffffffffffffffffffffffffffffffff160217905550816066908051906020019061065c9291906116f3565b50610665610fc0565b80156106865760008060016101000a81548160ff0219169083151502179055505b505050565b610693611781565b600082116106d6576040517f08c379a00000000000000000000000000000000000000000000000000000000081526004016106cd90612015565b60405180910390fd5b606760008381526020019081526020016000206040518060c00160405290816000820160009054906101000a900473ffffffffffffffffffffffffffffffffffffffff1673ffffffffffffffffffffffffffffffffffffffff1673ffffffffffffffffffffffffffffffffffffffff1681526020016001820154815260200160028201548152602001600382018054600181600116156101000203166002900480601f0160208091040260200160405190810160405280929190818152602001828054600181600116156101000203166002900480156107f75780601f106107cc576101008083540402835291602001916107f7565b820191906000526020600020905b8154815290600101906020018083116107da57829003601f168201915b5050505050815260200160048201548152602001600582018054600181600116156101000203166002900480601f0160208091040260200160405190810160405280929190818152602001828054600181600116156101000203166002900480156108a35780601f10610878576101008083540402835291602001916108a3565b820191906000526020600020905b81548152906001019060200180831161088657829003601f168201915b5050505050815250509050919050565b6108bb6117d0565b6108c36117d0565b6000610180826000836103e85afa6108da57600080fd5b819250505090565b6000806108f86108f286866110ce565b846110ce565b9050600061090582611225565b905061090f6117f3565b60208160c1846103e95afa61092357600080fd5b60018160006001811061093257fe5b60200201511493505050509392505050565b60008111610987576040517f08c379a000000000000000000000000000000000000000000000000000000000815260040161097e90612035565b60405180910390fd5b606560009054906101000a900473ffffffffffffffffffffffffffffffffffffffff1673ffffffffffffffffffffffffffffffffffffffff166342966c68826040518263ffffffff1660e01b81526004016109e29190612077565b600060405180830381600087803b1580156109fc57600080fd5b505af1158015610a10573d6000803e3d6000fd5b505050507fa846a54d891a112f901986f77c78f5c69aad963ba295f5fdfc31e1a0dd7953e06067600083815260200190815260200160002060000160009054906101000a900473ffffffffffffffffffffffffffffffffffffffff166067600084815260200190815260200160002060010154606760008581526020019081526020016000206002015460676000868152602001908152602001600020600301606760008781526020019081526020016000206004015460676000888152602001908152602001600020600501604051610aef96959493929190611f4f565b60405180910390a160676000828152602001908152602001600020600080820160006101000a81549073ffffffffffffffffffffffffffffffffffffffff021916905560018201600090556002820160009055600382016000610b529190611815565b6004820160009055600582016000610b6a9190611815565b505050565b60008211610bb2576040517f08c379a0000000000000000000000000000000000000000000000000000000008152600401610ba990612035565b60405180910390fd5b6067600083815260200190815260200160002060000160009054906101000a900473ffffffffffffffffffffffffffffffffffffffff1673ffffffffffffffffffffffffffffffffffffffff163373ffffffffffffffffffffffffffffffffffffffff1614610c56576040517f08c379a0000000000000000000000000000000000000000000000000000000008152600401610c4d90611ff5565b60405180910390fd5b80606760008481526020019081526020016000206005019080519060200190610c809291906116f3565b505050565b60008111610cc8576040517f08c379a0000000000000000000000000000000000000000000000000000000008152600401610cbf90612035565b60405180910390fd5b606560009054906101000a900473ffffffffffffffffffffffffffffffffffffffff1673ffffffffffffffffffffffffffffffffffffffff166342842e0e3384846040518463ffffffff1660e01b8152600401610d2793929190611e97565b600060405180830381600087803b158015610d4157600080fd5b505af1158015610d55573d6000803e3d6000fd5b50505050816067600083815260200190815260200160002060000160006101000a81548173ffffffffffffffffffffffffffffffffffffffff021916908373ffffffffffffffffffffffffffffffffffffffff1602179055505050565b610dba610fa7565b73ffffffffffffffffffffffffffffffffffffffff16610dd8610501565b73ffffffffffffffffffffffffffffffffffffffff1614610e61576040517f08c379a00000000000000000000000000000000000000000000000000000000081526004018080602001828103825260208152602001807f4f776e61626c653a2063616c6c6572206973206e6f7420746865206f776e657281525060200191505060405180910390fd5b600073ffffffffffffffffffffffffffffffffffffffff168173ffffffffffffffffffffffffffffffffffffffff161415610ee7576040517f08c379a00000000000000000000000000000000000000000000000000000000081526004018080602001828103825260268152602001806122856026913960400191505060405180910390fd5b8073ffffffffffffffffffffffffffffffffffffffff16603360009054906101000a900473ffffffffffffffffffffffffffffffffffffffff1673ffffffffffffffffffffffffffffffffffffffff167f8be0079c531659141344cd1fd0a4f28419497f9722a3daafe3b4186f6b6457e060405160405180910390a380603360006101000a81548173ffffffffffffffffffffffffffffffffffffffff021916908373ffffffffffffffffffffffffffffffffffffffff16021790555050565b600033905090565b6000610fba3061143b565b15905090565b600060019054906101000a900460ff1680610fdf5750610fde610faf565b5b80610ff5575060008054906101000a900460ff16155b61104a576040517f08c379a000000000000000000000000000000000000000000000000000000000815260040180806020018281038252602e8152602001806122ab602e913960400191505060405180910390fd5b60008060019054906101000a900460ff16159050801561109a576001600060016101000a81548160ff02191690831515021790555060016000806101000a81548160ff0219169083151502179055505b6110a261144e565b6110aa61154c565b80156110cb5760008060016101000a81548160ff0219169083151502179055505b50565b6060600083905060008390506000815183510167ffffffffffffffff811180156110f757600080fd5b506040519080825280601f01601f19166020018201604052801561112a5781602001600182028036833780820191505090505b50905060008190506000805b85518110156111a45785818151811061114b57fe5b602001015160f81c60f81b83838060010194508151811061116857fe5b60200101907effffffffffffffffffffffffffffffffffffffffffffffffffffffffffffff1916908160001a9053508080600101915050611136565b5060005b8451811015611216578481815181106111bd57fe5b602001015160f81c60f81b8383806001019450815181106111da57fe5b60200101907effffffffffffffffffffffffffffffffffffffffffffffffffffffffffffff1916908160001a90535080806001019150506111a8565b50829550505050505092915050565b606060008290506000815167ffffffffffffffff8111801561124657600080fd5b506040519080825280602002602001820160405280156112755781602001602082028036833780820191505090505b50905060005b825181101561134657600083828151811061129257fe5b602001015160f81c60f81b60f81c905060608160ff1611156112da57600a60618203018383815181106112c157fe5b602002602001019060ff16908160ff1681525050611338565b60428160ff16111561131257600a60418203018383815181106112f957fe5b602002602001019060ff16908160ff1681525050611337565b6030810383838151811061132257fe5b602002602001019060ff16908160ff16815250505b5b50808060010191505061127b565b506000600282518161135457fe5b0467ffffffffffffffff8111801561136b57600080fd5b506040519080825280601f01601f19166020018201604052801561139e5781602001600182028036833780820191505090505b50905060005b825181101561142f578260018201815181106113bc57fe5b602002602001015160108483815181106113d257fe5b6020026020010151020160f81b82600283816113ea57fe5b04815181106113f557fe5b60200101907effffffffffffffffffffffffffffffffffffffffffffffffffffffffffffff1916908160001a9053506002810190506113a4565b50809350505050919050565b600080823b905060008111915050919050565b600060019054906101000a900460ff168061146d575061146c610faf565b5b80611483575060008054906101000a900460ff16155b6114d8576040517f08c379a000000000000000000000000000000000000000000000000000000000815260040180806020018281038252602e8152602001806122ab602e913960400191505060405180910390fd5b60008060019054906101000a900460ff161590508015611528576001600060016101000a81548160ff02191690831515021790555060016000806101000a81548160ff0219169083151502179055505b80156115495760008060016101000a81548160ff0219169083151502179055505b50565b600060019054906101000a900460ff168061156b575061156a610faf565b5b80611581575060008054906101000a900460ff16155b6115d6576040517f08c379a000000000000000000000000000000000000000000000000000000000815260040180806020018281038252602e8152602001806122ab602e913960400191505060405180910390fd5b60008060019054906101000a900460ff161590508015611626576001600060016101000a81548160ff02191690831515021790555060016000806101000a81548160ff0219169083151502179055505b6000611630610fa7565b905080603360006101000a81548173ffffffffffffffffffffffffffffffffffffffff021916908373ffffffffffffffffffffffffffffffffffffffff1602179055508073ffffffffffffffffffffffffffffffffffffffff16600073ffffffffffffffffffffffffffffffffffffffff167f8be0079c531659141344cd1fd0a4f28419497f9722a3daafe3b4186f6b6457e060405160405180910390a35080156116f05760008060016101000a81548160ff0219169083151502179055505b50565b828054600181600116156101000203166002900490600052602060002090601f0160209004810192826117295760008555611770565b82601f1061174257805160ff1916838001178555611770565b82800160010185558215611770579182015b8281111561176f578251825591602001919060010190611754565b5b50905061177d919061185d565b5090565b6040518060c00160405280600073ffffffffffffffffffffffffffffffffffffffff16815260200160008152602001600081526020016060815260200160008019168152602001606081525090565b604051806101800160405280600c90602082028036833780820191505090505090565b6040518060200160405280600190602082028036833780820191505090505090565b50805460018160011615610100020316600290046000825580601f1061183b575061185a565b601f016020900490600052602060002090810190611859919061185d565b5b50565b5b8082111561187657600081600090555060010161185e565b5090565b600061188d611888846120c3565b612092565b9050828152602081018484840111156118a557600080fd5b6118b08482856121ea565b509392505050565b6000813590506118c78161223f565b92915050565b6000813590506118dc81612256565b92915050565b600082601f8301126118f357600080fd5b813561190384826020860161187a565b91505092915050565b60008135905061191b8161226d565b92915050565b60006020828403121561193357600080fd5b6000611941848285016118b8565b91505092915050565b6000806040838503121561195d57600080fd5b600061196b858286016118b8565b925050602083013567ffffffffffffffff81111561198857600080fd5b611994858286016118e2565b9150509250929050565b600080604083850312156119b157600080fd5b60006119bf858286016118b8565b92505060206119d08582860161190c565b9150509250929050565b6000806000606084860312156119ef57600080fd5b60006119fd868287016118b8565b9350506020611a0e8682870161190c565b9250506040611a1f868287016118cd565b9150509250925092565b600080600060608486031215611a3e57600080fd5b600084013567ffffffffffffffff811115611a5857600080fd5b611a64868287016118e2565b935050602084013567ffffffffffffffff811115611a8157600080fd5b611a8d868287016118e2565b925050604084013567ffffffffffffffff811115611aaa57600080fd5b611ab6868287016118e2565b9150509250925092565b600060208284031215611ad257600080fd5b6000611ae08482850161190c565b91505092915050565b60008060408385031215611afc57600080fd5b6000611b0a8582860161190c565b925050602083013567ffffffffffffffff811115611b2757600080fd5b611b33858286016118e2565b9150509250929050565b6000611b498383611be8565b60208301905092915050565b611b5e816121b4565b82525050565b611b6d81612162565b82525050565b611b7c81612162565b82525050565b611b8b81612112565b611b958184612135565b9250611ba0826120f3565b8060005b83811015611bd1578151611bb88782611b3d565b9650611bc383612128565b925050600181019050611ba4565b505050505050565b611be281612174565b82525050565b611bf181612180565b82525050565b611c0081612180565b82525050565b6000611c118261211d565b611c1b8185612140565b9350611c2b8185602086016121f9565b611c348161222e565b840191505092915050565b600081546001811660008114611c5c5760018114611c8257611cc6565b607f6002830416611c6d8187612151565b955060ff198316865260208601935050611cc6565b60028204611c908187612151565b9550611c9b856120fd565b60005b82811015611cbd57815481890152600182019150602081019050611c9e565b80880195505050505b505092915050565b6000611cdb601b83612151565b91507f7469636b6574206f776e6572206973206e6f7420636f6c6c65637400000000006000830152602082019050919050565b6000611d1b601b83612151565b91507f746f6b656e206964206d757374206c6172676572207468616e203000000000006000830152602082019050919050565b6000611d5b600383612151565b91507f30783000000000000000000000000000000000000000000000000000000000006000830152602082019050919050565b6000611d9b601f83612151565b91507f7374616b6520616d6f756e74206d757374206c6172676572207468616e2030006000830152602082019050919050565b600060c083016000830151611de66000860182611b64565b506020830151611df96020860182611e5e565b506040830151611e0c6040860182611e5e565b5060608301518482036060860152611e248282611c06565b9150506080830151611e396080860182611be8565b5060a083015184820360a0860152611e518282611c06565b9150508091505092915050565b611e67816121aa565b82525050565b611e76816121aa565b82525050565b6000602082019050611e916000830184611b73565b92915050565b6000606082019050611eac6000830186611b55565b611eb96020830185611b73565b611ec66040830184611e6d565b949350505050565b6000606082019050611ee36000830185611b73565b611ef06020830184611e6d565b8181036040830152611f0181611d4e565b90509392505050565b6000608082019050611f1f6000830187611b73565b611f2c6020830186611e6d565b611f396040830185611e6d565b611f466060830184611bf7565b95945050505050565b600060c082019050611f646000830189611b73565b611f716020830188611e6d565b611f7e6040830187611e6d565b8181036060830152611f908186611c3f565b9050611f9f6080830185611bf7565b81810360a0830152611fb18184611c3f565b9050979650505050505050565b600061018082019050611fd46000830184611b82565b92915050565b6000602082019050611fef6000830184611bd9565b92915050565b6000602082019050818103600083015261200e81611cce565b9050919050565b6000602082019050818103600083015261202e81611d0e565b9050919050565b6000602082019050818103600083015261204e81611d8e565b9050919050565b6000602082019050818103600083015261206f8184611dce565b905092915050565b600060208201905061208c6000830184611e6d565b92915050565b6000604051905081810181811067ffffffffffffffff821117156120b9576120b861222c565b5b8060405250919050565b600067ffffffffffffffff8211156120de576120dd61222c565b5b601f19601f8301169050602081019050919050565b6000819050919050565b60008190508160005260206000209050919050565b6000600c9050919050565b600081519050919050565b6000602082019050919050565b600081905092915050565b600082825260208201905092915050565b600082825260208201905092915050565b600061216d8261218a565b9050919050565b60008115159050919050565b6000819050919050565b600073ffffffffffffffffffffffffffffffffffffffff82169050919050565b6000819050919050565b60006121bf826121c6565b9050919050565b60006121d1826121d8565b9050919050565b60006121e38261218a565b9050919050565b82818337600083830152505050565b60005b838110156122175780820151818401526020810190506121fc565b83811115612226576000848401525b50505050565bfe5b6000601f19601f8301169050919050565b61224881612162565b811461225357600080fd5b50565b61225f81612180565b811461226a57600080fd5b50565b612276816121aa565b811461228157600080fd5b5056fe4f776e61626c653a206e6577206f776e657220697320746865207a65726f2061646472657373496e697469616c697a61626c653a20636f6e747261637420697320616c726561647920696e697469616c697a6564a2646970667358221220f08a3d10b351f487e105090f31c793875a57696b2158d68e3dce326cdd52598464736f6c63430007060033",
  "linkReferences": {},
  "deployedLinkReferences": {}
}