{
  "_format": "hh-sol-artifact-1",
  "contractName": "StakeTicket",
  "sourceName": "contracts/StakeTicket.sol",
  "abi": [
    {
      "anonymous": false,
      "inputs": [
        {
          "indexed": true,
          "internalType": "address",
          "name": "previousOwner",
          "type": "address"
        },
        {
          "indexed": true,
          "internalType": "address",
          "name": "newOwner",
          "type": "address"
        }
      ],
      "name": "OwnershipTransferred",
      "type": "event"
    },
    {
      "anonymous": false,
      "inputs": [
        {
          "indexed": false,
          "internalType": "uint256",
          "name": "tokenId",
          "type": "uint256"
        },
        {
          "indexed": false,
          "internalType": "string",
          "name": "elaAddress",
          "type": "string"
        }
      ],
      "name": "StakeTicketBurn",
      "type": "event"
    },
    {
      "anonymous": false,
      "inputs": [
        {
          "indexed": false,
          "internalType": "address",
          "name": "to",
          "type": "address"
        },
        {
          "indexed": false,
          "internalType": "uint256",
          "name": "tokenId",
          "type": "uint256"
        },
        {
          "indexed": false,
          "internalType": "uint256",
          "name": "startTimeSpan",
          "type": "uint256"
        },
        {
          "indexed": false,
          "internalType": "bytes32",
          "name": "txHash",
          "type": "bytes32"
        }
      ],
      "name": "StakeTicketMint",
      "type": "event"
    },
    {
      "inputs": [],
      "name": "ARBITER_NUM",
      "outputs": [
        {
          "internalType": "uint256",
          "name": "",
          "type": "uint256"
        }
      ],
      "stateMutability": "view",
      "type": "function"
    },
    {
      "inputs": [
        {
          "internalType": "address",
          "name": "erc721Address",
          "type": "address"
        },
        {
          "internalType": "string",
          "name": "version",
          "type": "string"
        }
      ],
      "name": "__StakeTicket_init",
      "outputs": [],
      "stateMutability": "nonpayable",
      "type": "function"
    },
    {
      "inputs": [
        {
          "internalType": "uint256",
          "name": "tokenId",
          "type": "uint256"
        },
        {
          "internalType": "string",
          "name": "saddress",
          "type": "string"
        }
      ],
      "name": "burnTick",
      "outputs": [],
      "stateMutability": "nonpayable",
      "type": "function"
    },
    {
      "inputs": [
        {
          "internalType": "bytes32",
          "name": "elaHash",
          "type": "bytes32"
        },
        {
          "internalType": "bytes",
          "name": "signature",
          "type": "bytes"
        },
        {
          "internalType": "bytes",
          "name": "publicKey",
          "type": "bytes"
        }
      ],
      "name": "claim",
      "outputs": [],
      "stateMutability": "nonpayable",
      "type": "function"
    },
    {
      "inputs": [],
      "name": "getArbiterList",
      "outputs": [
        {
          "internalType": "bytes32[12]",
          "name": "",
          "type": "bytes32[12]"
        }
      ],
      "stateMutability": "view",
      "type": "function"
    },
    {
      "inputs": [
        {
          "internalType": "uint256",
          "name": "tokenId",
          "type": "uint256"
        }
      ],
      "name": "getTickFromTokenId",
      "outputs": [
        {
          "components": [
            {
              "internalType": "address",
              "name": "owner",
              "type": "address"
            },
            {
              "internalType": "uint256",
              "name": "amount",
              "type": "uint256"
            },
            {
              "internalType": "uint256",
              "name": "startTimeSpan",
              "type": "uint256"
            },
            {
              "internalType": "string",
              "name": "supperNode",
              "type": "string"
            },
            {
              "internalType": "bytes32",
              "name": "txHash",
              "type": "bytes32"
            },
            {
              "internalType": "string",
              "name": "withDrawTo",
              "type": "string"
            }
          ],
          "internalType": "struct StakeTicket.TickInfo",
          "name": "",
          "type": "tuple"
        }
      ],
      "stateMutability": "view",
      "type": "function"
    },
    {
      "inputs": [
        {
          "internalType": "bytes32",
          "name": "_elaHash",
          "type": "bytes32"
        }
      ],
      "name": "getTokenIDByTxhash",
      "outputs": [
        {
          "internalType": "uint256",
          "name": "",
          "type": "uint256"
        }
      ],
      "stateMutability": "view",
      "type": "function"
    },
    {
      "inputs": [
        {
          "internalType": "uint256",
          "name": "tokenId",
          "type": "uint256"
        }
      ],
      "name": "mintTick",
      "outputs": [],
      "stateMutability": "nonpayable",
      "type": "function"
    },
    {
      "inputs": [],
      "name": "owner",
      "outputs": [
        {
          "internalType": "address",
          "name": "",
          "type": "address"
        }
      ],
      "stateMutability": "view",
      "type": "function"
    },
    {
      "inputs": [
        {
          "internalType": "string",
          "name": "_pubkey",
          "type": "string"
        },
        {
          "internalType": "string",
          "name": "_data",
          "type": "string"
        },
        {
          "internalType": "string",
          "name": "_sig",
          "type": "string"
        }
      ],
      "name": "p256Verify",
      "outputs": [
        {
          "internalType": "bool",
          "name": "",
          "type": "bool"
        }
      ],
      "stateMutability": "view",
      "type": "function"
    },
    {
      "inputs": [
        {
          "internalType": "bytes32",
          "name": "_elaHash",
          "type": "bytes32"
        },
        {
          "internalType": "bytes",
          "name": "_signature",
          "type": "bytes"
        },
        {
          "internalType": "bytes",
          "name": "_publicKey",
          "type": "bytes"
        }
      ],
      "name": "pledgeBillVerify",
      "outputs": [
        {
          "internalType": "uint256",
          "name": "",
          "type": "uint256"
        }
      ],
      "stateMutability": "view",
      "type": "function"
    },
    {
      "inputs": [
        {
          "internalType": "address",
          "name": "_to",
          "type": "address"
        },
        {
          "internalType": "uint256",
          "name": "_tokenId",
          "type": "uint256"
        },
        {
          "internalType": "bytes32",
          "name": "_txHash",
          "type": "bytes32"
        }
      ],
      "name": "pledgeBillVerifyTest",
      "outputs": [
        {
          "internalType": "bool",
          "name": "",
          "type": "bool"
        }
      ],
      "stateMutability": "view",
      "type": "function"
    },
    {
      "inputs": [],
      "name": "renounceOwnership",
      "outputs": [],
      "stateMutability": "nonpayable",
      "type": "function"
    },
    {
      "inputs": [
        {
          "internalType": "address",
          "name": "to",
          "type": "address"
        },
        {
          "internalType": "uint256",
          "name": "tokenId",
          "type": "uint256"
        }
      ],
      "name": "tranferTick",
      "outputs": [],
      "stateMutability": "nonpayable",
      "type": "function"
    },
    {
      "inputs": [
        {
          "internalType": "address",
          "name": "newOwner",
          "type": "address"
        }
      ],
      "name": "transferOwnership",
      "outputs": [],
      "stateMutability": "nonpayable",
      "type": "function"
    },
    {
      "inputs": [
        {
          "internalType": "uint256",
          "name": "tokenId",
          "type": "uint256"
        },
        {
          "internalType": "string",
          "name": "withDrawTo",
          "type": "string"
        }
      ],
      "name": "withDrawTick",
      "outputs": [],
      "stateMutability": "nonpayable",
      "type": "function"
    }
  ],
  "bytecode": "0x608060405234801561001057600080fd5b50612878806100206000396000f3fe608060405234801561001057600080fd5b50600436106101005760003560e01c8063aa12bc3c11610097578063e6731fcb11610066578063e6731fcb14610299578063f20711f8146102c9578063f2fde38b146102e5578063f7349b911461030157610100565b8063aa12bc3c14610213578063b16b5a1314610231578063bdfed66114610261578063d78f7d7b1461027d57610100565b8063715018a6116100d3578063715018a61461019f5780638da5cb5b146101a957806399e0e483146101c7578063a0d956e9146101e357610100565b806311656f5514610105578063181e79eb14610121578063350d4b15146101515780636ef3823214610181575b600080fd5b61011f600480360381019061011a919061206d565b61031d565b005b61013b60048036038101906101369190611eb6565b61049f565b60405161014891906124d9565b60405180910390f35b61016b60048036038101906101669190611f2e565b610519565b6040516101789190612596565b60405180910390f35b61018961059b565b6040516101969190612596565b60405180910390f35b6101a76105a0565b005b6101b1610710565b6040516101be91906123ea565b60405180910390f35b6101e160048036038101906101dc9190611e26565b61073a565b005b6101fd60048036038101906101f89190612044565b610892565b60405161020a9190612574565b60405180910390f35b61021b610aba565b60405161022891906124bd565b60405180910390f35b61024b60048036038101906102469190611fad565b610ae9565b60405161025891906124d9565b60405180910390f35b61027b60048036038101906102769190612044565b610b4b565b005b6102976004803603810190610292919061206d565b610bdd565b005b6102b360048036038101906102ae9190611f05565b610cf3565b6040516102c09190612596565b60405180910390f35b6102e360048036038101906102de9190611e7a565b610d58565b005b6102ff60048036038101906102fa9190611dfd565b610e85565b005b61031b60048036038101906103169190611f2e565b61107a565b005b60008211610360576040517f08c379a000000000000000000000000000000000000000000000000000000000815260040161035790612534565b60405180910390fd5b606560009054906101000a900473ffffffffffffffffffffffffffffffffffffffff1673ffffffffffffffffffffffffffffffffffffffff166342966c68836040518263ffffffff1660e01b81526004016103bb9190612596565b600060405180830381600087803b1580156103d557600080fd5b505af11580156103e9573d6000803e3d6000fd5b505050507fcd7b03ed1150e6d52d6a1420503bf19d713dc8e1affff7c1497c45e3bdf08524828260405161041e9291906125b1565b60405180910390a160676000838152602001908152602001600020600080820160006101000a81549073ffffffffffffffffffffffffffffffffffffffff0219169055600182016000905560028201600090556003820160006104819190611b67565b60048201600090556005820160006104999190611b67565b50505050565b6000806104cd6104bf6104b187611237565b6104ba876112dd565b61142d565b6104c885611584565b61142d565b905060006104da82611611565b90506104e4611baf565b6020816093846103eb5afa6104f857600080fd5b60018160006001811061050757fe5b60200201511493505050509392505050565b6000806103eb9050600060209050600060209050610535611baf565b6000805a905060006105468b611827565b90506000610554828c611882565b9050610560818b611882565b9050868151019350858585838b87fa61057857600080fd5b8460006001811061058557fe5b6020020151985050505050505050509392505050565b600c81565b6105a8611941565b73ffffffffffffffffffffffffffffffffffffffff166105c6610710565b73ffffffffffffffffffffffffffffffffffffffff161461064f576040517f08c379a00000000000000000000000000000000000000000000000000000000081526004018080602001828103825260208152602001807f4f776e61626c653a2063616c6c6572206973206e6f7420746865206f776e657281525060200191505060405180910390fd5b600073ffffffffffffffffffffffffffffffffffffffff16603360009054906101000a900473ffffffffffffffffffffffffffffffffffffffff1673ffffffffffffffffffffffffffffffffffffffff167f8be0079c531659141344cd1fd0a4f28419497f9722a3daafe3b4186f6b6457e060405160405180910390a36000603360006101000a81548173ffffffffffffffffffffffffffffffffffffffff021916908373ffffffffffffffffffffffffffffffffffffffff160217905550565b6000603360009054906101000a900473ffffffffffffffffffffffffffffffffffffffff16905090565b600060019054906101000a900460ff16806107595750610758611949565b5b8061076f575060008054906101000a900460ff16155b6107c4576040517f08c379a000000000000000000000000000000000000000000000000000000000815260040180806020018281038252602e815260200180612815602e913960400191505060405180910390fd5b60008060019054906101000a900460ff161590508015610814576001600060016101000a81548160ff02191690831515021790555060016000806101000a81548160ff0219169083151502179055505b82606560006101000a81548173ffffffffffffffffffffffffffffffffffffffff021916908373ffffffffffffffffffffffffffffffffffffffff160217905550816066908051906020019061086b929190611bd1565b50801561088d5760008060016101000a81548160ff0219169083151502179055505b505050565b61089a611c5f565b600082116108dd576040517f08c379a00000000000000000000000000000000000000000000000000000000081526004016108d490612514565b60405180910390fd5b606760008381526020019081526020016000206040518060c00160405290816000820160009054906101000a900473ffffffffffffffffffffffffffffffffffffffff1673ffffffffffffffffffffffffffffffffffffffff1673ffffffffffffffffffffffffffffffffffffffff1681526020016001820154815260200160028201548152602001600382018054600181600116156101000203166002900480601f0160208091040260200160405190810160405280929190818152602001828054600181600116156101000203166002900480156109fe5780601f106109d3576101008083540402835291602001916109fe565b820191906000526020600020905b8154815290600101906020018083116109e157829003601f168201915b5050505050815260200160048201548152602001600582018054600181600116156101000203166002900480601f016020809104026020016040519081016040528092919081815260200182805460018160011615610100020316600290048015610aaa5780601f10610a7f57610100808354040283529160200191610aaa565b820191906000526020600020905b815481529060010190602001808311610a8d57829003601f168201915b5050505050815250509050919050565b610ac2611cae565b610aca611cae565b6000610180826000836103e85afa610ae157600080fd5b819250505090565b600080610aff610af9868661142d565b8461142d565b90506000610b0c82611611565b9050610b16611baf565b60208160c1846103e95afa610b2a57600080fd5b600181600060018110610b3957fe5b60200201511493505050509392505050565b606560009054906101000a900473ffffffffffffffffffffffffffffffffffffffff1673ffffffffffffffffffffffffffffffffffffffff1663d3fc986433836040518363ffffffff1660e01b8152600401610ba892919061243c565b600060405180830381600087803b158015610bc257600080fd5b505af1158015610bd6573d6000803e3d6000fd5b5050505050565b60008211610c20576040517f08c379a0000000000000000000000000000000000000000000000000000000008152600401610c1790612534565b60405180910390fd5b6067600083815260200190815260200160002060000160009054906101000a900473ffffffffffffffffffffffffffffffffffffffff1673ffffffffffffffffffffffffffffffffffffffff163373ffffffffffffffffffffffffffffffffffffffff1614610cc4576040517f08c379a0000000000000000000000000000000000000000000000000000000008152600401610cbb906124f4565b60405180910390fd5b80606760008481526020019081526020016000206005019080519060200190610cee929190611bd1565b505050565b6000806103ec9050600060209050600060209050610d0f611baf565b6000805a90506000610d2089611827565b9050858151019250848484838a86fa610d3857600080fd5b83600060018110610d4557fe5b6020020151975050505050505050919050565b60008111610d9b576040517f08c379a0000000000000000000000000000000000000000000000000000000008152600401610d9290612534565b60405180910390fd5b606560009054906101000a900473ffffffffffffffffffffffffffffffffffffffff1673ffffffffffffffffffffffffffffffffffffffff166342842e0e3384846040518463ffffffff1660e01b8152600401610dfa93929190612405565b600060405180830381600087803b158015610e1457600080fd5b505af1158015610e28573d6000803e3d6000fd5b50505050816067600083815260200190815260200160002060000160006101000a81548173ffffffffffffffffffffffffffffffffffffffff021916908373ffffffffffffffffffffffffffffffffffffffff1602179055505050565b610e8d611941565b73ffffffffffffffffffffffffffffffffffffffff16610eab610710565b73ffffffffffffffffffffffffffffffffffffffff1614610f34576040517f08c379a00000000000000000000000000000000000000000000000000000000081526004018080602001828103825260208152602001807f4f776e61626c653a2063616c6c6572206973206e6f7420746865206f776e657281525060200191505060405180910390fd5b600073ffffffffffffffffffffffffffffffffffffffff168173ffffffffffffffffffffffffffffffffffffffff161415610fba576040517f08c379a00000000000000000000000000000000000000000000000000000000081526004018080602001828103825260268152602001806127ef6026913960400191505060405180910390fd5b8073ffffffffffffffffffffffffffffffffffffffff16603360009054906101000a900473ffffffffffffffffffffffffffffffffffffffff1673ffffffffffffffffffffffffffffffffffffffff167f8be0079c531659141344cd1fd0a4f28419497f9722a3daafe3b4186f6b6457e060405160405180910390a380603360006101000a81548173ffffffffffffffffffffffffffffffffffffffff021916908373ffffffffffffffffffffffffffffffffffffffff16021790555050565b6000611087848484610519565b9050600181146110cc576040517f08c379a00000000000000000000000000000000000000000000000000000000081526004016110c390612554565b60405180910390fd5b60006110d785610cf3565b9050426067600083815260200190815260200160002060020181905550846067600083815260200190815260200160002060040181905550336067600083815260200190815260200160002060000160006101000a81548173ffffffffffffffffffffffffffffffffffffffff021916908373ffffffffffffffffffffffffffffffffffffffff160217905550606560009054906101000a900473ffffffffffffffffffffffffffffffffffffffff1673ffffffffffffffffffffffffffffffffffffffff1663d3fc986433836040518363ffffffff1660e01b81526004016111c192919061243c565b600060405180830381600087803b1580156111db57600080fd5b505af11580156111ef573d6000803e3d6000fd5b505050507f7327a52cdebe8ff9ace20426ebd639d204d3d3b303adda96161107911fad2a52338242886040516112289493929190612478565b60405180910390a15050505050565b6060600082604051602001808273ffffffffffffffffffffffffffffffffffffffff1660601b815260140191505060405160208183030381529060405290506000602867ffffffffffffffff8111801561129057600080fd5b506040519080825280601f01601f1916602001820160405280156112c35781602001600182028036833780820191505090505b5090506112d182601461195a565b90508092505050919050565b60606000821415611325576040518060400160405280600181526020017f30000000000000000000000000000000000000000000000000000000000000008152509050611428565b600082905060005b6000821461134f578080600101915050600a828161134757fe5b04915061132d565b60008167ffffffffffffffff8111801561136857600080fd5b506040519080825280601f01601f19166020018201604052801561139b5781602001600182028036833780820191505090505b50905060008290505b60008614611420576001810390506000600a8088816113bf57fe5b04028703603001905060008160f81b9050808484815181106113dd57fe5b60200101907effffffffffffffffffffffffffffffffffffffffffffffffffffffffffffff1916908160001a905350600a888161141657fe5b04975050506113a4565b819450505050505b919050565b6060600083905060008390506000815183510167ffffffffffffffff8111801561145657600080fd5b506040519080825280601f01601f1916602001820160405280156114895781602001600182028036833780820191505090505b50905060008190506000805b8551811015611503578581815181106114aa57fe5b602001015160f81c60f81b8383806001019450815181106114c757fe5b60200101907effffffffffffffffffffffffffffffffffffffffffffffffffffffffffffff1916908160001a9053508080600101915050611495565b5060005b84518110156115755784818151811061151c57fe5b602001015160f81c60f81b83838060010194508151811061153957fe5b60200101907effffffffffffffffffffffffffffffffffffffffffffffffffffffffffffff1916908160001a9053508080600101915050611507565b50829550505050505092915050565b60606000826040516020018082815260200191505060405160208183030381529060405290506000604067ffffffffffffffff811180156115c457600080fd5b506040519080825280601f01601f1916602001820160405280156115f75781602001600182028036833780820191505090505b50905061160582602061195a565b90508092505050919050565b606060008290506000815167ffffffffffffffff8111801561163257600080fd5b506040519080825280602002602001820160405280156116615781602001602082028036833780820191505090505b50905060005b825181101561173257600083828151811061167e57fe5b602001015160f81c60f81b60f81c905060608160ff1611156116c657600a60618203018383815181106116ad57fe5b602002602001019060ff16908160ff1681525050611724565b60428160ff1611156116fe57600a60418203018383815181106116e557fe5b602002602001019060ff16908160ff1681525050611723565b6030810383838151811061170e57fe5b602002602001019060ff16908160ff16815250505b5b508080600101915050611667565b506000600282518161174057fe5b0467ffffffffffffffff8111801561175757600080fd5b506040519080825280601f01601f19166020018201604052801561178a5781602001600182028036833780820191505090505b50905060005b825181101561181b578260018201815181106117a857fe5b602002602001015160108483815181106117be57fe5b6020026020010151020160f81b82600283816117d657fe5b04815181106117e157fe5b60200101907effffffffffffffffffffffffffffffffffffffffffffffffffffffffffffff1916908160001a905350600281019050611790565b50809350505050919050565b6060602067ffffffffffffffff8111801561184157600080fd5b506040519080825280601f01601f1916602001820160405280156118745781602001600182028036833780820191505090505b509050816020820152919050565b60606000825184510167ffffffffffffffff811180156118a157600080fd5b506040519080825280601f01601f1916602001820160405280156118d45781602001600182028036833780820191505090505b50905060008060008060008060006118eb8b611aea565b80975081985050506118fc8a611aea565b809550819650505061190d88611aea565b80925081945050508583019150611925878488611afc565b611930858386611afc565b879850505050505050505092915050565b600033905090565b600061195430611b54565b15905090565b606060006002830267ffffffffffffffff8111801561197857600080fd5b506040519080825280601f01601f1916602001820160405280156119ab5781602001600182028036833780820191505090505b50905060005b83811015611adf57600060108683815181106119c957fe5b602001015160f81c60f81b60f81c60ff16816119e157fe5b0490506000816010028784815181106119f657fe5b602001015160f81c60f81b60f81c0390506000600a8360ff1610611a20576057830160f81b611a28565b6030830160f81b5b90506000600a8360ff1610611a43576057830160f81b611a4b565b6030830160f81b5b905081868660020281518110611a5d57fe5b60200101907effffffffffffffffffffffffffffffffffffffffffffffffffffffffffffff1916908160001a90535080866001876002020181518110611a9f57fe5b60200101907effffffffffffffffffffffffffffffffffffffffffffffffffffffffffffff1916908160001a9053505050505080806001019150506119b1565b508091505092915050565b60008082519050602083019150915091565b5b60208110611b205782518252602082019150602083019250602081039050611afd565b6000811415611b2e57611b4f565b60006001826020036101000a03905080198451168184511681811785525050505b505050565b600080823b905060008111915050919050565b50805460018160011615610100020316600290046000825580601f10611b8d5750611bac565b601f016020900490600052602060002090810190611bab9190611cd1565b5b50565b6040518060200160405280600190602082028036833780820191505090505090565b828054600181600116156101000203166002900490600052602060002090601f016020900481019282611c075760008555611c4e565b82601f10611c2057805160ff1916838001178555611c4e565b82800160010185558215611c4e579182015b82811115611c4d578251825591602001919060010190611c32565b5b509050611c5b9190611cd1565b5090565b6040518060c00160405280600073ffffffffffffffffffffffffffffffffffffffff16815260200160008152602001600081526020016060815260200160008019168152602001606081525090565b604051806101800160405280600c90602082028036833780820191505090505090565b5b80821115611cea576000816000905550600101611cd2565b5090565b6000611d01611cfc84612612565b6125e1565b905082815260208101848484011115611d1957600080fd5b611d24848285612754565b509392505050565b6000611d3f611d3a84612642565b6125e1565b905082815260208101848484011115611d5757600080fd5b611d62848285612754565b509392505050565b600081359050611d79816127a9565b92915050565b600081359050611d8e816127c0565b92915050565b600082601f830112611da557600080fd5b8135611db5848260208601611cee565b91505092915050565b600082601f830112611dcf57600080fd5b8135611ddf848260208601611d2c565b91505092915050565b600081359050611df7816127d7565b92915050565b600060208284031215611e0f57600080fd5b6000611e1d84828501611d6a565b91505092915050565b60008060408385031215611e3957600080fd5b6000611e4785828601611d6a565b925050602083013567ffffffffffffffff811115611e6457600080fd5b611e7085828601611dbe565b9150509250929050565b60008060408385031215611e8d57600080fd5b6000611e9b85828601611d6a565b9250506020611eac85828601611de8565b9150509250929050565b600080600060608486031215611ecb57600080fd5b6000611ed986828701611d6a565b9350506020611eea86828701611de8565b9250506040611efb86828701611d7f565b9150509250925092565b600060208284031215611f1757600080fd5b6000611f2584828501611d7f565b91505092915050565b600080600060608486031215611f4357600080fd5b6000611f5186828701611d7f565b935050602084013567ffffffffffffffff811115611f6e57600080fd5b611f7a86828701611d94565b925050604084013567ffffffffffffffff811115611f9757600080fd5b611fa386828701611d94565b9150509250925092565b600080600060608486031215611fc257600080fd5b600084013567ffffffffffffffff811115611fdc57600080fd5b611fe886828701611dbe565b935050602084013567ffffffffffffffff81111561200557600080fd5b61201186828701611dbe565b925050604084013567ffffffffffffffff81111561202e57600080fd5b61203a86828701611dbe565b9150509250925092565b60006020828403121561205657600080fd5b600061206484828501611de8565b91505092915050565b6000806040838503121561208057600080fd5b600061208e85828601611de8565b925050602083013567ffffffffffffffff8111156120ab57600080fd5b6120b785828601611dbe565b9150509250929050565b60006120cd838361216c565b60208301905092915050565b6120e28161271e565b82525050565b6120f1816126cc565b82525050565b612100816126cc565b82525050565b61210f8161267c565b612119818461269f565b925061212482612672565b8060005b8381101561215557815161213c87826120c1565b965061214783612692565b925050600181019050612128565b505050505050565b612166816126de565b82525050565b612175816126ea565b82525050565b612184816126ea565b82525050565b600061219582612687565b61219f81856126aa565b93506121af818560208601612763565b6121b881612798565b840191505092915050565b60006121ce82612687565b6121d881856126bb565b93506121e8818560208601612763565b6121f181612798565b840191505092915050565b6000612209601b836126bb565b91507f7469636b6574206f776e6572206973206e6f7420636f6c6c65637400000000006000830152602082019050919050565b6000612249601b836126bb565b91507f746f6b656e206964206d757374206c6172676572207468616e203000000000006000830152602082019050919050565b60006122896003836126bb565b91507f30783000000000000000000000000000000000000000000000000000000000006000830152602082019050919050565b60006122c9601f836126bb565b91507f7374616b6520616d6f756e74206d757374206c6172676572207468616e2030006000830152602082019050919050565b6000612309601f836126bb565b91507f706c6564676542696c6c2056657269667920646f206e6f7420706173732021006000830152602082019050919050565b600060c08301600083015161235460008601826120e8565b50602083015161236760208601826123cc565b50604083015161237a60408601826123cc565b5060608301518482036060860152612392828261218a565b91505060808301516123a7608086018261216c565b5060a083015184820360a08601526123bf828261218a565b9150508091505092915050565b6123d581612714565b82525050565b6123e481612714565b82525050565b60006020820190506123ff60008301846120f7565b92915050565b600060608201905061241a60008301866120d9565b61242760208301856120f7565b61243460408301846123db565b949350505050565b600060608201905061245160008301856120d9565b61245e60208301846123db565b818103604083015261246f8161227c565b90509392505050565b600060808201905061248d60008301876120d9565b61249a60208301866123db565b6124a760408301856123db565b6124b4606083018461217b565b95945050505050565b6000610180820190506124d36000830184612106565b92915050565b60006020820190506124ee600083018461215d565b92915050565b6000602082019050818103600083015261250d816121fc565b9050919050565b6000602082019050818103600083015261252d8161223c565b9050919050565b6000602082019050818103600083015261254d816122bc565b9050919050565b6000602082019050818103600083015261256d816122fc565b9050919050565b6000602082019050818103600083015261258e818461233c565b905092915050565b60006020820190506125ab60008301846123db565b92915050565b60006040820190506125c660008301856123db565b81810360208301526125d881846121c3565b90509392505050565b6000604051905081810181811067ffffffffffffffff8211171561260857612607612796565b5b8060405250919050565b600067ffffffffffffffff82111561262d5761262c612796565b5b601f19601f8301169050602081019050919050565b600067ffffffffffffffff82111561265d5761265c612796565b5b601f19601f8301169050602081019050919050565b6000819050919050565b6000600c9050919050565b600081519050919050565b6000602082019050919050565b600081905092915050565b600082825260208201905092915050565b600082825260208201905092915050565b60006126d7826126f4565b9050919050565b60008115159050919050565b6000819050919050565b600073ffffffffffffffffffffffffffffffffffffffff82169050919050565b6000819050919050565b600061272982612730565b9050919050565b600061273b82612742565b9050919050565b600061274d826126f4565b9050919050565b82818337600083830152505050565b60005b83811015612781578082015181840152602081019050612766565b83811115612790576000848401525b50505050565bfe5b6000601f19601f8301169050919050565b6127b2816126cc565b81146127bd57600080fd5b50565b6127c9816126ea565b81146127d457600080fd5b50565b6127e081612714565b81146127eb57600080fd5b5056fe4f776e61626c653a206e6577206f776e657220697320746865207a65726f2061646472657373496e697469616c697a61626c653a20636f6e747261637420697320616c726561647920696e697469616c697a6564a2646970667358221220c5f68eefb913ebf366352e5ca17a9f21541f989a3f487f7767e0b1491fed0b8864736f6c63430007060033",
  "linkReferences": {},
  "deployedLinkReferences": {}
}