{
  "_format": "hh-sol-artifact-1",
  "contractName": "StakeTicket",
  "sourceName": "contracts/StakeTicket.sol",
  "abi": [
    {
      "anonymous": false,
      "inputs": [
        {
          "indexed": true,
          "internalType": "address",
          "name": "previousOwner",
          "type": "address"
        },
        {
          "indexed": true,
          "internalType": "address",
          "name": "newOwner",
          "type": "address"
        }
      ],
      "name": "OwnershipTransferred",
      "type": "event"
    },
    {
      "anonymous": false,
      "inputs": [
        {
          "indexed": false,
          "internalType": "address",
          "name": "owner",
          "type": "address"
        },
        {
          "indexed": false,
          "internalType": "uint256",
          "name": "amount",
          "type": "uint256"
        },
        {
          "indexed": false,
          "internalType": "uint256",
          "name": "startTimeSpan",
          "type": "uint256"
        },
        {
          "indexed": false,
          "internalType": "string",
          "name": "supperNode",
          "type": "string"
        },
        {
          "indexed": false,
          "internalType": "bytes32",
          "name": "txHash",
          "type": "bytes32"
        },
        {
          "indexed": false,
          "internalType": "string",
          "name": "withDrawTo",
          "type": "string"
        }
      ],
      "name": "StakeTicketBurn",
      "type": "event"
    },
    {
      "anonymous": false,
      "inputs": [
        {
          "indexed": false,
          "internalType": "address",
          "name": "to",
          "type": "address"
        },
        {
          "indexed": false,
          "internalType": "uint256",
          "name": "tokenId",
          "type": "uint256"
        },
        {
          "indexed": false,
          "internalType": "uint256",
          "name": "startTimeSpan",
          "type": "uint256"
        },
        {
          "indexed": false,
          "internalType": "bytes32",
          "name": "txHash",
          "type": "bytes32"
        }
      ],
      "name": "StakeTicketMint",
      "type": "event"
    },
    {
      "inputs": [],
      "name": "ARBITER_NUM",
      "outputs": [
        {
          "internalType": "uint256",
          "name": "",
          "type": "uint256"
        }
      ],
      "stateMutability": "view",
      "type": "function"
    },
    {
      "inputs": [
        {
          "internalType": "address",
          "name": "erc721Address",
          "type": "address"
        },
        {
          "internalType": "string",
          "name": "version",
          "type": "string"
        }
      ],
      "name": "__StakeTicket_init",
      "outputs": [],
      "stateMutability": "nonpayable",
      "type": "function"
    },
    {
      "inputs": [
        {
          "internalType": "uint256",
          "name": "tokenId",
          "type": "uint256"
        }
      ],
      "name": "burnTick",
      "outputs": [],
      "stateMutability": "nonpayable",
      "type": "function"
    },
    {
      "inputs": [],
      "name": "getArbiterList",
      "outputs": [
        {
          "internalType": "bytes32[12]",
          "name": "",
          "type": "bytes32[12]"
        }
      ],
      "stateMutability": "view",
      "type": "function"
    },
    {
      "inputs": [
        {
          "internalType": "uint256",
          "name": "tokenId",
          "type": "uint256"
        }
      ],
      "name": "getTickFromTokenId",
      "outputs": [
        {
          "components": [
            {
              "internalType": "address",
              "name": "owner",
              "type": "address"
            },
            {
              "internalType": "uint256",
              "name": "amount",
              "type": "uint256"
            },
            {
              "internalType": "uint256",
              "name": "startTimeSpan",
              "type": "uint256"
            },
            {
              "internalType": "string",
              "name": "supperNode",
              "type": "string"
            },
            {
              "internalType": "bytes32",
              "name": "txHash",
              "type": "bytes32"
            },
            {
              "internalType": "string",
              "name": "withDrawTo",
              "type": "string"
            }
          ],
          "internalType": "struct StakeTicket.TickInfo",
          "name": "",
          "type": "tuple"
        }
      ],
      "stateMutability": "view",
      "type": "function"
    },
    {
      "inputs": [
        {
          "internalType": "address",
          "name": "to",
          "type": "address"
        },
        {
          "internalType": "uint256",
          "name": "tokenId",
          "type": "uint256"
        },
        {
          "internalType": "bytes32",
          "name": "txHash",
          "type": "bytes32"
        }
      ],
      "name": "mintTick",
      "outputs": [],
      "stateMutability": "nonpayable",
      "type": "function"
    },
    {
      "inputs": [
        {
          "internalType": "address",
          "name": "to",
          "type": "address"
        },
        {
          "internalType": "uint256",
          "name": "tokenId",
          "type": "uint256"
        },
        {
          "internalType": "bytes32",
          "name": "txHash",
          "type": "bytes32"
        }
      ],
      "name": "mintTickTest",
      "outputs": [],
      "stateMutability": "nonpayable",
      "type": "function"
    },
    {
      "inputs": [],
      "name": "owner",
      "outputs": [
        {
          "internalType": "address",
          "name": "",
          "type": "address"
        }
      ],
      "stateMutability": "view",
      "type": "function"
    },
    {
      "inputs": [
        {
          "internalType": "string",
          "name": "_pubkey",
          "type": "string"
        },
        {
          "internalType": "string",
          "name": "_data",
          "type": "string"
        },
        {
          "internalType": "string",
          "name": "_sig",
          "type": "string"
        }
      ],
      "name": "p256Verify",
      "outputs": [
        {
          "internalType": "bool",
          "name": "",
          "type": "bool"
        }
      ],
      "stateMutability": "view",
      "type": "function"
    },
    {
      "inputs": [
        {
          "internalType": "address",
          "name": "_to",
          "type": "address"
        },
        {
          "internalType": "uint256",
          "name": "_tokenId",
          "type": "uint256"
        },
        {
          "internalType": "bytes32",
          "name": "_txHash",
          "type": "bytes32"
        }
      ],
      "name": "pledgeBillVerify",
      "outputs": [
        {
          "internalType": "uint256",
          "name": "",
          "type": "uint256"
        }
      ],
      "stateMutability": "view",
      "type": "function"
    },
    {
      "inputs": [
        {
          "internalType": "address",
          "name": "_to",
          "type": "address"
        },
        {
          "internalType": "uint256",
          "name": "_tokenId",
          "type": "uint256"
        },
        {
          "internalType": "bytes32",
          "name": "_txHash",
          "type": "bytes32"
        }
      ],
      "name": "pledgeBillVerifyTest",
      "outputs": [
        {
          "internalType": "bool",
          "name": "",
          "type": "bool"
        }
      ],
      "stateMutability": "view",
      "type": "function"
    },
    {
      "inputs": [],
      "name": "renounceOwnership",
      "outputs": [],
      "stateMutability": "nonpayable",
      "type": "function"
    },
    {
      "inputs": [
        {
          "internalType": "address",
          "name": "to",
          "type": "address"
        },
        {
          "internalType": "uint256",
          "name": "tokenId",
          "type": "uint256"
        }
      ],
      "name": "tranferTick",
      "outputs": [],
      "stateMutability": "nonpayable",
      "type": "function"
    },
    {
      "inputs": [
        {
          "internalType": "address",
          "name": "newOwner",
          "type": "address"
        }
      ],
      "name": "transferOwnership",
      "outputs": [],
      "stateMutability": "nonpayable",
      "type": "function"
    },
    {
      "inputs": [
        {
          "internalType": "uint256",
          "name": "tokenId",
          "type": "uint256"
        },
        {
          "internalType": "string",
          "name": "withDrawTo",
          "type": "string"
        }
      ],
      "name": "withDrawTick",
      "outputs": [],
      "stateMutability": "nonpayable",
      "type": "function"
    }
  ],
  "bytecode": "0x608060405234801561001057600080fd5b50612e79806100206000396000f3fe608060405234801561001057600080fd5b50600436106100f55760003560e01c806399e0e48311610097578063d6d02ae811610066578063d6d02ae814610272578063d78f7d7b1461028e578063f20711f8146102aa578063f2fde38b146102c6576100f5565b806399e0e483146101d8578063a0d956e9146101f4578063aa12bc3c14610224578063b16b5a1314610242576100f5565b80636ef38232116100d35780636ef3823214610162578063715018a614610180578063739c264a1461018a5780638da5cb5b146101ba576100f5565b8063181e79eb146100fa57806332088be21461012a578063502c775714610146575b600080fd5b610114600480360381019061010f91906124e5565b6102e2565b6040516101219190612b25565b60405180910390f35b610144600480360381019061013f91906124e5565b61035c565b005b610160600480360381019061015b91906124e5565b61036d565b005b61016a61051c565b6040516101779190612be2565b60405180910390f35b610188610521565b005b6101a4600480360381019061019f91906124e5565b610691565b6040516101b19190612be2565b60405180910390f35b6101c2610777565b6040516101cf91906129c7565b60405180910390f35b6101f260048036038101906101ed9190612455565b6107a1565b005b61020e600480360381019061020991906125cb565b610901565b60405161021b9190612bc0565b60405180910390f35b61022c610b29565b6040516102399190612b09565b60405180910390f35b61025c60048036038101906102579190612534565b610b58565b6040516102699190612b25565b60405180910390f35b61028c600480360381019061028791906125cb565b610bba565b005b6102a860048036038101906102a391906125f4565b610de5565b005b6102c460048036038101906102bf91906124a9565b610efb565b005b6102e060048036038101906102db919061242c565b611028565b005b6000806103106103026102f48761121d565b6102fd876112c3565b611413565b61030b8561156a565b611413565b9050600061031d826115f7565b90506103276121fe565b6020816093846103eb5afa61033b57600080fd5b60018160006001811061034a57fe5b60200201511493505050509392505050565b610367838383610691565b50505050565b600061037a848484610691565b9050600181146103bf576040517f08c379a00000000000000000000000000000000000000000000000000000000081526004016103b690612ba0565b60405180910390fd5b426067600085815260200190815260200160002060020181905550816067600085815260200190815260200160002060040181905550836067600085815260200190815260200160002060000160006101000a81548173ffffffffffffffffffffffffffffffffffffffff021916908373ffffffffffffffffffffffffffffffffffffffff160217905550606560009054906101000a900473ffffffffffffffffffffffffffffffffffffffff1673ffffffffffffffffffffffffffffffffffffffff1663d3fc986485856040518363ffffffff1660e01b81526004016104a7929190612a19565b600060405180830381600087803b1580156104c157600080fd5b505af11580156104d5573d6000803e3d6000fd5b505050507f7327a52cdebe8ff9ace20426ebd639d204d3d3b303adda96161107911fad2a528484428560405161050e9493929190612a55565b60405180910390a150505050565b600c81565b61052961180d565b73ffffffffffffffffffffffffffffffffffffffff16610547610777565b73ffffffffffffffffffffffffffffffffffffffff16146105d0576040517f08c379a00000000000000000000000000000000000000000000000000000000081526004018080602001828103825260208152602001807f4f776e61626c653a2063616c6c6572206973206e6f7420746865206f776e657281525060200191505060405180910390fd5b600073ffffffffffffffffffffffffffffffffffffffff16603360009054906101000a900473ffffffffffffffffffffffffffffffffffffffff1673ffffffffffffffffffffffffffffffffffffffff167f8be0079c531659141344cd1fd0a4f28419497f9722a3daafe3b4186f6b6457e060405160405180910390a36000603360006101000a81548173ffffffffffffffffffffffffffffffffffffffff021916908373ffffffffffffffffffffffffffffffffffffffff160217905550565b6000806103eb90506000602090506000602090506106ad6121fe565b6000805a905060006106be8b611815565b905060006106cb8b611846565b905060006106d88b61185d565b905060006106e684846118b8565b90506106f281836118b8565b905088815101955061070381611977565b6107426040518060400160405280600a81526020017f73697a652069732025640000000000000000000000000000000000000000000081525087611a75565b878787838d89fa61075257600080fd5b8660006001811061075f57fe5b60200201519a50505050505050505050509392505050565b6000603360009054906101000a900473ffffffffffffffffffffffffffffffffffffffff16905090565b600060019054906101000a900460ff16806107c057506107bf611b7c565b5b806107d6575060008054906101000a900460ff16155b61082b576040517f08c379a000000000000000000000000000000000000000000000000000000000815260040180806020018281038252602e815260200180612e16602e913960400191505060405180910390fd5b60008060019054906101000a900460ff16159050801561087b576001600060016101000a81548160ff02191690831515021790555060016000806101000a81548160ff0219169083151502179055505b82606560006101000a81548173ffffffffffffffffffffffffffffffffffffffff021916908373ffffffffffffffffffffffffffffffffffffffff16021790555081606690805190602001906108d2929190612220565b506108db611b8d565b80156108fc5760008060016101000a81548160ff0219169083151502179055505b505050565b6109096122ae565b6000821161094c576040517f08c379a000000000000000000000000000000000000000000000000000000000815260040161094390612b60565b60405180910390fd5b606760008381526020019081526020016000206040518060c00160405290816000820160009054906101000a900473ffffffffffffffffffffffffffffffffffffffff1673ffffffffffffffffffffffffffffffffffffffff1673ffffffffffffffffffffffffffffffffffffffff1681526020016001820154815260200160028201548152602001600382018054600181600116156101000203166002900480601f016020809104026020016040519081016040528092919081815260200182805460018160011615610100020316600290048015610a6d5780601f10610a4257610100808354040283529160200191610a6d565b820191906000526020600020905b815481529060010190602001808311610a5057829003601f168201915b5050505050815260200160048201548152602001600582018054600181600116156101000203166002900480601f016020809104026020016040519081016040528092919081815260200182805460018160011615610100020316600290048015610b195780601f10610aee57610100808354040283529160200191610b19565b820191906000526020600020905b815481529060010190602001808311610afc57829003601f168201915b5050505050815250509050919050565b610b316122fd565b610b396122fd565b6000610180826000836103e85afa610b5057600080fd5b819250505090565b600080610b6e610b688686611413565b84611413565b90506000610b7b826115f7565b9050610b856121fe565b60208160c1846103e95afa610b9957600080fd5b600181600060018110610ba857fe5b60200201511493505050509392505050565b60008111610bfd576040517f08c379a0000000000000000000000000000000000000000000000000000000008152600401610bf490612b80565b60405180910390fd5b606560009054906101000a900473ffffffffffffffffffffffffffffffffffffffff1673ffffffffffffffffffffffffffffffffffffffff166342966c68826040518263ffffffff1660e01b8152600401610c589190612be2565b600060405180830381600087803b158015610c7257600080fd5b505af1158015610c86573d6000803e3d6000fd5b505050507fa846a54d891a112f901986f77c78f5c69aad963ba295f5fdfc31e1a0dd7953e06067600083815260200190815260200160002060000160009054906101000a900473ffffffffffffffffffffffffffffffffffffffff166067600084815260200190815260200160002060010154606760008581526020019081526020016000206002015460676000868152602001908152602001600020600301606760008781526020019081526020016000206004015460676000888152602001908152602001600020600501604051610d6596959493929190612a9a565b60405180910390a160676000828152602001908152602001600020600080820160006101000a81549073ffffffffffffffffffffffffffffffffffffffff021916905560018201600090556002820160009055600382016000610dc89190612320565b6004820160009055600582016000610de09190612320565b505050565b60008211610e28576040517f08c379a0000000000000000000000000000000000000000000000000000000008152600401610e1f90612b80565b60405180910390fd5b6067600083815260200190815260200160002060000160009054906101000a900473ffffffffffffffffffffffffffffffffffffffff1673ffffffffffffffffffffffffffffffffffffffff163373ffffffffffffffffffffffffffffffffffffffff1614610ecc576040517f08c379a0000000000000000000000000000000000000000000000000000000008152600401610ec390612b40565b60405180910390fd5b80606760008481526020019081526020016000206005019080519060200190610ef6929190612220565b505050565b60008111610f3e576040517f08c379a0000000000000000000000000000000000000000000000000000000008152600401610f3590612b80565b60405180910390fd5b606560009054906101000a900473ffffffffffffffffffffffffffffffffffffffff1673ffffffffffffffffffffffffffffffffffffffff166342842e0e3384846040518463ffffffff1660e01b8152600401610f9d939291906129e2565b600060405180830381600087803b158015610fb757600080fd5b505af1158015610fcb573d6000803e3d6000fd5b50505050816067600083815260200190815260200160002060000160006101000a81548173ffffffffffffffffffffffffffffffffffffffff021916908373ffffffffffffffffffffffffffffffffffffffff1602179055505050565b61103061180d565b73ffffffffffffffffffffffffffffffffffffffff1661104e610777565b73ffffffffffffffffffffffffffffffffffffffff16146110d7576040517f08c379a00000000000000000000000000000000000000000000000000000000081526004018080602001828103825260208152602001807f4f776e61626c653a2063616c6c6572206973206e6f7420746865206f776e657281525060200191505060405180910390fd5b600073ffffffffffffffffffffffffffffffffffffffff168173ffffffffffffffffffffffffffffffffffffffff16141561115d576040517f08c379a0000000000000000000000000000000000000000000000000000000008152600401808060200182810382526026815260200180612df06026913960400191505060405180910390fd5b8073ffffffffffffffffffffffffffffffffffffffff16603360009054906101000a900473ffffffffffffffffffffffffffffffffffffffff1673ffffffffffffffffffffffffffffffffffffffff167f8be0079c531659141344cd1fd0a4f28419497f9722a3daafe3b4186f6b6457e060405160405180910390a380603360006101000a81548173ffffffffffffffffffffffffffffffffffffffff021916908373ffffffffffffffffffffffffffffffffffffffff16021790555050565b6060600082604051602001808273ffffffffffffffffffffffffffffffffffffffff1660601b815260140191505060405160208183030381529060405290506000602867ffffffffffffffff8111801561127657600080fd5b506040519080825280601f01601f1916602001820160405280156112a95781602001600182028036833780820191505090505b5090506112b7826014611c9b565b90508092505050919050565b6060600082141561130b576040518060400160405280600181526020017f3000000000000000000000000000000000000000000000000000000000000000815250905061140e565b600082905060005b60008214611335578080600101915050600a828161132d57fe5b049150611313565b60008167ffffffffffffffff8111801561134e57600080fd5b506040519080825280601f01601f1916602001820160405280156113815781602001600182028036833780820191505090505b50905060008290505b60008614611406576001810390506000600a8088816113a557fe5b04028703603001905060008160f81b9050808484815181106113c357fe5b60200101907effffffffffffffffffffffffffffffffffffffffffffffffffffffffffffff1916908160001a905350600a88816113fc57fe5b049750505061138a565b819450505050505b919050565b6060600083905060008390506000815183510167ffffffffffffffff8111801561143c57600080fd5b506040519080825280601f01601f19166020018201604052801561146f5781602001600182028036833780820191505090505b50905060008190506000805b85518110156114e95785818151811061149057fe5b602001015160f81c60f81b8383806001019450815181106114ad57fe5b60200101907effffffffffffffffffffffffffffffffffffffffffffffffffffffffffffff1916908160001a905350808060010191505061147b565b5060005b845181101561155b5784818151811061150257fe5b602001015160f81c60f81b83838060010194508151811061151f57fe5b60200101907effffffffffffffffffffffffffffffffffffffffffffffffffffffffffffff1916908160001a90535080806001019150506114ed565b50829550505050505092915050565b60606000826040516020018082815260200191505060405160208183030381529060405290506000604067ffffffffffffffff811180156115aa57600080fd5b506040519080825280601f01601f1916602001820160405280156115dd5781602001600182028036833780820191505090505b5090506115eb826020611c9b565b90508092505050919050565b606060008290506000815167ffffffffffffffff8111801561161857600080fd5b506040519080825280602002602001820160405280156116475781602001602082028036833780820191505090505b50905060005b825181101561171857600083828151811061166457fe5b602001015160f81c60f81b60f81c905060608160ff1611156116ac57600a606182030183838151811061169357fe5b602002602001019060ff16908160ff168152505061170a565b60428160ff1611156116e457600a60418203018383815181106116cb57fe5b602002602001019060ff16908160ff1681525050611709565b603081038383815181106116f457fe5b602002602001019060ff16908160ff16815250505b5b50808060010191505061164d565b506000600282518161172657fe5b0467ffffffffffffffff8111801561173d57600080fd5b506040519080825280601f01601f1916602001820160405280156117705781602001600182028036833780820191505090505b50905060005b82518110156118015782600182018151811061178e57fe5b602002602001015160108483815181106117a457fe5b6020026020010151020160f81b82600283816117bc57fe5b04815181106117c757fe5b60200101907effffffffffffffffffffffffffffffffffffffffffffffffffffffffffffff1916908160001a905350600281019050611776565b50809350505050919050565b600033905090565b606061183f60608373ffffffffffffffffffffffffffffffffffffffff16901b60001b6014611e2b565b9050919050565b60606118568260001b6020611e2b565b9050919050565b6060602067ffffffffffffffff8111801561187757600080fd5b506040519080825280601f01601f1916602001820160405280156118aa5781602001600182028036833780820191505090505b509050816020820152919050565b60606000825184510167ffffffffffffffff811180156118d757600080fd5b506040519080825280601f01601f19166020018201604052801561190a5781602001600182028036833780820191505090505b50905060008060008060008060006119218b611eb3565b80975081985050506119328a611eb3565b809550819650505061194388611eb3565b8092508194505050858301915061195b878488611ec5565b611966858386611ec5565b879850505050505050505092915050565b611a72816040516024018080602001828103825283818151815260200191508051906020019080838360005b838110156119be5780820151818401526020810190506119a3565b50505050905090810190601f1680156119eb5780820380516001836020036101000a031916815260200191505b50925050506040516020818303038152906040527f0be77f56000000000000000000000000000000000000000000000000000000007bffffffffffffffffffffffffffffffffffffffffffffffffffffffff19166020820180517bffffffffffffffffffffffffffffffffffffffffffffffffffffffff8381831617835250505050611f1d565b50565b611b7882826040516024018080602001838152602001828103825284818151815260200191508051906020019080838360005b83811015611ac3578082015181840152602081019050611aa8565b50505050905090810190601f168015611af05780820380516001836020036101000a031916815260200191505b5093505050506040516020818303038152906040527f9710a9d0000000000000000000000000000000000000000000000000000000007bffffffffffffffffffffffffffffffffffffffffffffffffffffffff19166020820180517bffffffffffffffffffffffffffffffffffffffffffffffffffffffff8381831617835250505050611f1d565b5050565b6000611b8730611f46565b15905090565b600060019054906101000a900460ff1680611bac5750611bab611b7c565b5b80611bc2575060008054906101000a900460ff16155b611c17576040517f08c379a000000000000000000000000000000000000000000000000000000000815260040180806020018281038252602e815260200180612e16602e913960400191505060405180910390fd5b60008060019054906101000a900460ff161590508015611c67576001600060016101000a81548160ff02191690831515021790555060016000806101000a81548160ff0219169083151502179055505b611c6f611f59565b611c77612057565b8015611c985760008060016101000a81548160ff0219169083151502179055505b50565b606060006002830267ffffffffffffffff81118015611cb957600080fd5b506040519080825280601f01601f191660200182016040528015611cec5781602001600182028036833780820191505090505b50905060005b83811015611e205760006010868381518110611d0a57fe5b602001015160f81c60f81b60f81c60ff1681611d2257fe5b049050600081601002878481518110611d3757fe5b602001015160f81c60f81b60f81c0390506000600a8360ff1610611d61576057830160f81b611d69565b6030830160f81b5b90506000600a8360ff1610611d84576057830160f81b611d8c565b6030830160f81b5b905081868660020281518110611d9e57fe5b60200101907effffffffffffffffffffffffffffffffffffffffffffffffffffffffffffff1916908160001a90535080866001876002020181518110611de057fe5b60200101907effffffffffffffffffffffffffffffffffffffffffffffffffffffffffffff1916908160001a905350505050508080600101915050611cf2565b508091505092915050565b606060208260ff161115611e3e57600080fd5b8160ff1667ffffffffffffffff81118015611e5857600080fd5b506040519080825280601f01601f191660200182016040528015611e8b5781602001600182028036833780820191505090505b50905060006008836020030260ff16600019901b8460001c1690508060208301525092915050565b60008082519050602083019150915091565b5b60208110611ee95782518252602082019150602083019250602081039050611ec6565b6000811415611ef757611f18565b60006001826020036101000a03905080198451168184511681811785525050505b505050565b60008151905060006a636f6e736f6c652e6c6f679050602083016000808483855afa5050505050565b600080823b905060008111915050919050565b600060019054906101000a900460ff1680611f785750611f77611b7c565b5b80611f8e575060008054906101000a900460ff16155b611fe3576040517f08c379a000000000000000000000000000000000000000000000000000000000815260040180806020018281038252602e815260200180612e16602e913960400191505060405180910390fd5b60008060019054906101000a900460ff161590508015612033576001600060016101000a81548160ff02191690831515021790555060016000806101000a81548160ff0219169083151502179055505b80156120545760008060016101000a81548160ff0219169083151502179055505b50565b600060019054906101000a900460ff16806120765750612075611b7c565b5b8061208c575060008054906101000a900460ff16155b6120e1576040517f08c379a000000000000000000000000000000000000000000000000000000000815260040180806020018281038252602e815260200180612e16602e913960400191505060405180910390fd5b60008060019054906101000a900460ff161590508015612131576001600060016101000a81548160ff02191690831515021790555060016000806101000a81548160ff0219169083151502179055505b600061213b61180d565b905080603360006101000a81548173ffffffffffffffffffffffffffffffffffffffff021916908373ffffffffffffffffffffffffffffffffffffffff1602179055508073ffffffffffffffffffffffffffffffffffffffff16600073ffffffffffffffffffffffffffffffffffffffff167f8be0079c531659141344cd1fd0a4f28419497f9722a3daafe3b4186f6b6457e060405160405180910390a35080156121fb5760008060016101000a81548160ff0219169083151502179055505b50565b6040518060200160405280600190602082028036833780820191505090505090565b828054600181600116156101000203166002900490600052602060002090601f016020900481019282612256576000855561229d565b82601f1061226f57805160ff191683800117855561229d565b8280016001018555821561229d579182015b8281111561229c578251825591602001919060010190612281565b5b5090506122aa9190612368565b5090565b6040518060c00160405280600073ffffffffffffffffffffffffffffffffffffffff16815260200160008152602001600081526020016060815260200160008019168152602001606081525090565b604051806101800160405280600c90602082028036833780820191505090505090565b50805460018160011615610100020316600290046000825580601f106123465750612365565b601f0160209004906000526020600020908101906123649190612368565b5b50565b5b80821115612381576000816000905550600101612369565b5090565b600061239861239384612c2e565b612bfd565b9050828152602081018484840111156123b057600080fd5b6123bb848285612d55565b509392505050565b6000813590506123d281612daa565b92915050565b6000813590506123e781612dc1565b92915050565b600082601f8301126123fe57600080fd5b813561240e848260208601612385565b91505092915050565b60008135905061242681612dd8565b92915050565b60006020828403121561243e57600080fd5b600061244c848285016123c3565b91505092915050565b6000806040838503121561246857600080fd5b6000612476858286016123c3565b925050602083013567ffffffffffffffff81111561249357600080fd5b61249f858286016123ed565b9150509250929050565b600080604083850312156124bc57600080fd5b60006124ca858286016123c3565b92505060206124db85828601612417565b9150509250929050565b6000806000606084860312156124fa57600080fd5b6000612508868287016123c3565b935050602061251986828701612417565b925050604061252a868287016123d8565b9150509250925092565b60008060006060848603121561254957600080fd5b600084013567ffffffffffffffff81111561256357600080fd5b61256f868287016123ed565b935050602084013567ffffffffffffffff81111561258c57600080fd5b612598868287016123ed565b925050604084013567ffffffffffffffff8111156125b557600080fd5b6125c1868287016123ed565b9150509250925092565b6000602082840312156125dd57600080fd5b60006125eb84828501612417565b91505092915050565b6000806040838503121561260757600080fd5b600061261585828601612417565b925050602083013567ffffffffffffffff81111561263257600080fd5b61263e858286016123ed565b9150509250929050565b600061265483836126f3565b60208301905092915050565b61266981612d1f565b82525050565b61267881612ccd565b82525050565b61268781612ccd565b82525050565b61269681612c7d565b6126a08184612ca0565b92506126ab82612c5e565b8060005b838110156126dc5781516126c38782612648565b96506126ce83612c93565b9250506001810190506126af565b505050505050565b6126ed81612cdf565b82525050565b6126fc81612ceb565b82525050565b61270b81612ceb565b82525050565b600061271c82612c88565b6127268185612cab565b9350612736818560208601612d64565b61273f81612d99565b840191505092915050565b600081546001811660008114612767576001811461278d576127d1565b607f60028304166127788187612cbc565b955060ff1983168652602086019350506127d1565b6002820461279b8187612cbc565b95506127a685612c68565b60005b828110156127c8578154818901526001820191506020810190506127a9565b80880195505050505b505092915050565b60006127e6601b83612cbc565b91507f7469636b6574206f776e6572206973206e6f7420636f6c6c65637400000000006000830152602082019050919050565b6000612826601b83612cbc565b91507f746f6b656e206964206d757374206c6172676572207468616e203000000000006000830152602082019050919050565b6000612866600383612cbc565b91507f30783000000000000000000000000000000000000000000000000000000000006000830152602082019050919050565b60006128a6601f83612cbc565b91507f7374616b6520616d6f756e74206d757374206c6172676572207468616e2030006000830152602082019050919050565b60006128e6601f83612cbc565b91507f706c6564676542696c6c2056657269667920646f206e6f7420706173732021006000830152602082019050919050565b600060c083016000830151612931600086018261266f565b50602083015161294460208601826129a9565b50604083015161295760408601826129a9565b506060830151848203606086015261296f8282612711565b915050608083015161298460808601826126f3565b5060a083015184820360a086015261299c8282612711565b9150508091505092915050565b6129b281612d15565b82525050565b6129c181612d15565b82525050565b60006020820190506129dc600083018461267e565b92915050565b60006060820190506129f76000830186612660565b612a04602083018561267e565b612a1160408301846129b8565b949350505050565b6000606082019050612a2e600083018561267e565b612a3b60208301846129b8565b8181036040830152612a4c81612859565b90509392505050565b6000608082019050612a6a600083018761267e565b612a7760208301866129b8565b612a8460408301856129b8565b612a916060830184612702565b95945050505050565b600060c082019050612aaf600083018961267e565b612abc60208301886129b8565b612ac960408301876129b8565b8181036060830152612adb818661274a565b9050612aea6080830185612702565b81810360a0830152612afc818461274a565b9050979650505050505050565b600061018082019050612b1f600083018461268d565b92915050565b6000602082019050612b3a60008301846126e4565b92915050565b60006020820190508181036000830152612b59816127d9565b9050919050565b60006020820190508181036000830152612b7981612819565b9050919050565b60006020820190508181036000830152612b9981612899565b9050919050565b60006020820190508181036000830152612bb9816128d9565b9050919050565b60006020820190508181036000830152612bda8184612919565b905092915050565b6000602082019050612bf760008301846129b8565b92915050565b6000604051905081810181811067ffffffffffffffff82111715612c2457612c23612d97565b5b8060405250919050565b600067ffffffffffffffff821115612c4957612c48612d97565b5b601f19601f8301169050602081019050919050565b6000819050919050565b60008190508160005260206000209050919050565b6000600c9050919050565b600081519050919050565b6000602082019050919050565b600081905092915050565b600082825260208201905092915050565b600082825260208201905092915050565b6000612cd882612cf5565b9050919050565b60008115159050919050565b6000819050919050565b600073ffffffffffffffffffffffffffffffffffffffff82169050919050565b6000819050919050565b6000612d2a82612d31565b9050919050565b6000612d3c82612d43565b9050919050565b6000612d4e82612cf5565b9050919050565b82818337600083830152505050565b60005b83811015612d82578082015181840152602081019050612d67565b83811115612d91576000848401525b50505050565bfe5b6000601f19601f8301169050919050565b612db381612ccd565b8114612dbe57600080fd5b50565b612dca81612ceb565b8114612dd557600080fd5b50565b612de181612d15565b8114612dec57600080fd5b5056fe4f776e61626c653a206e6577206f776e657220697320746865207a65726f2061646472657373496e697469616c697a61626c653a20636f6e747261637420697320616c726561647920696e697469616c697a6564a264697066735822122058dfe9c43c8537e3b29ec6f4ff10f87cb682c6c673542e1d98443236e0a4a9b564736f6c63430007060033",
  "linkReferences": {},
  "deployedLinkReferences": {}
}