{
  "_format": "hh-sol-artifact-1",
  "contractName": "StakeTicket",
  "sourceName": "contracts/StakeTicket.sol",
  "abi": [
    {
      "anonymous": false,
      "inputs": [
        {
          "indexed": true,
          "internalType": "address",
          "name": "previousOwner",
          "type": "address"
        },
        {
          "indexed": true,
          "internalType": "address",
          "name": "newOwner",
          "type": "address"
        }
      ],
      "name": "OwnershipTransferred",
      "type": "event"
    },
    {
      "anonymous": false,
      "inputs": [
        {
          "indexed": false,
          "internalType": "address",
          "name": "owner",
          "type": "address"
        },
        {
          "indexed": false,
          "internalType": "uint256",
          "name": "tokenId",
          "type": "uint256"
        },
        {
          "indexed": false,
          "internalType": "uint256",
          "name": "startTimeSpan",
          "type": "uint256"
        },
        {
          "indexed": false,
          "internalType": "bytes32",
          "name": "txHash",
          "type": "bytes32"
        }
      ],
      "name": "StakeTicketBurn",
      "type": "event"
    },
    {
      "anonymous": false,
      "inputs": [
        {
          "indexed": false,
          "internalType": "address",
          "name": "to",
          "type": "address"
        },
        {
          "indexed": false,
          "internalType": "uint256",
          "name": "tokenId",
          "type": "uint256"
        },
        {
          "indexed": false,
          "internalType": "uint256",
          "name": "startTimeSpan",
          "type": "uint256"
        },
        {
          "indexed": false,
          "internalType": "bytes32",
          "name": "txHash",
          "type": "bytes32"
        }
      ],
      "name": "StakeTicketMint",
      "type": "event"
    },
    {
      "inputs": [],
      "name": "ARBITER_NUM",
      "outputs": [
        {
          "internalType": "uint256",
          "name": "",
          "type": "uint256"
        }
      ],
      "stateMutability": "view",
      "type": "function"
    },
    {
      "inputs": [
        {
          "internalType": "address",
          "name": "erc721Address",
          "type": "address"
        },
        {
          "internalType": "string",
          "name": "version",
          "type": "string"
        }
      ],
      "name": "__StakeTicket_init",
      "outputs": [],
      "stateMutability": "nonpayable",
      "type": "function"
    },
    {
      "inputs": [
        {
          "internalType": "uint256",
          "name": "tokenId",
          "type": "uint256"
        }
      ],
      "name": "burnTick",
      "outputs": [],
      "stateMutability": "nonpayable",
      "type": "function"
    },
    {
      "inputs": [
        {
          "internalType": "bytes32",
          "name": "elaHash",
          "type": "bytes32"
        },
        {
          "internalType": "bytes",
          "name": "signature",
          "type": "bytes"
        },
        {
          "internalType": "bytes",
          "name": "publicKey",
          "type": "bytes"
        }
      ],
      "name": "claim",
      "outputs": [],
      "stateMutability": "nonpayable",
      "type": "function"
    },
    {
      "inputs": [],
      "name": "getArbiterList",
      "outputs": [
        {
          "internalType": "bytes32[12]",
          "name": "",
          "type": "bytes32[12]"
        }
      ],
      "stateMutability": "view",
      "type": "function"
    },
    {
      "inputs": [
        {
          "internalType": "uint256",
          "name": "tokenId",
          "type": "uint256"
        }
      ],
      "name": "getTickFromTokenId",
      "outputs": [
        {
          "components": [
            {
              "internalType": "address",
              "name": "owner",
              "type": "address"
            },
            {
              "internalType": "uint256",
              "name": "amount",
              "type": "uint256"
            },
            {
              "internalType": "uint256",
              "name": "startTimeSpan",
              "type": "uint256"
            },
            {
              "internalType": "string",
              "name": "supperNode",
              "type": "string"
            },
            {
              "internalType": "bytes32",
              "name": "txHash",
              "type": "bytes32"
            },
            {
              "internalType": "string",
              "name": "withDrawTo",
              "type": "string"
            }
          ],
          "internalType": "struct StakeTicket.TickInfo",
          "name": "",
          "type": "tuple"
        }
      ],
      "stateMutability": "view",
      "type": "function"
    },
    {
      "inputs": [
        {
          "internalType": "bytes32",
          "name": "_elaHash",
          "type": "bytes32"
        }
      ],
      "name": "getTokenIDByTxhash",
      "outputs": [
        {
          "internalType": "uint256",
          "name": "",
          "type": "uint256"
        }
      ],
      "stateMutability": "view",
      "type": "function"
    },
    {
      "inputs": [],
      "name": "owner",
      "outputs": [
        {
          "internalType": "address",
          "name": "",
          "type": "address"
        }
      ],
      "stateMutability": "view",
      "type": "function"
    },
    {
      "inputs": [
        {
          "internalType": "string",
          "name": "_pubkey",
          "type": "string"
        },
        {
          "internalType": "string",
          "name": "_data",
          "type": "string"
        },
        {
          "internalType": "string",
          "name": "_sig",
          "type": "string"
        }
      ],
      "name": "p256Verify",
      "outputs": [
        {
          "internalType": "bool",
          "name": "",
          "type": "bool"
        }
      ],
      "stateMutability": "view",
      "type": "function"
    },
    {
      "inputs": [
        {
          "internalType": "bytes32",
          "name": "_elaHash",
          "type": "bytes32"
        },
        {
          "internalType": "bytes",
          "name": "_signature",
          "type": "bytes"
        },
        {
          "internalType": "bytes",
          "name": "_publicKey",
          "type": "bytes"
        }
      ],
      "name": "pledgeBillVerify",
      "outputs": [
        {
          "internalType": "uint256",
          "name": "",
          "type": "uint256"
        }
      ],
      "stateMutability": "view",
      "type": "function"
    },
    {
      "inputs": [
        {
          "internalType": "address",
          "name": "_to",
          "type": "address"
        },
        {
          "internalType": "uint256",
          "name": "_tokenId",
          "type": "uint256"
        },
        {
          "internalType": "bytes32",
          "name": "_txHash",
          "type": "bytes32"
        }
      ],
      "name": "pledgeBillVerifyTest",
      "outputs": [
        {
          "internalType": "bool",
          "name": "",
          "type": "bool"
        }
      ],
      "stateMutability": "view",
      "type": "function"
    },
    {
      "inputs": [],
      "name": "renounceOwnership",
      "outputs": [],
      "stateMutability": "nonpayable",
      "type": "function"
    },
    {
      "inputs": [
        {
          "internalType": "address",
          "name": "to",
          "type": "address"
        },
        {
          "internalType": "uint256",
          "name": "tokenId",
          "type": "uint256"
        }
      ],
      "name": "tranferTick",
      "outputs": [],
      "stateMutability": "nonpayable",
      "type": "function"
    },
    {
      "inputs": [
        {
          "internalType": "address",
          "name": "newOwner",
          "type": "address"
        }
      ],
      "name": "transferOwnership",
      "outputs": [],
      "stateMutability": "nonpayable",
      "type": "function"
    },
    {
      "inputs": [
        {
          "internalType": "uint256",
          "name": "tokenId",
          "type": "uint256"
        },
        {
          "internalType": "string",
          "name": "withDrawTo",
          "type": "string"
        }
      ],
      "name": "withDrawTick",
      "outputs": [],
      "stateMutability": "nonpayable",
      "type": "function"
    }
  ],
  "bytecode": "0x608060405234801561001057600080fd5b50612bbb806100206000396000f3fe608060405234801561001057600080fd5b50600436106100f55760003560e01c8063aa12bc3c11610097578063e6731fcb11610066578063e6731fcb14610272578063f20711f8146102a2578063f2fde38b146102be578063f7349b91146102da576100f5565b8063aa12bc3c146101ec578063b16b5a131461020a578063d6d02ae81461023a578063d78f7d7b14610256576100f5565b8063715018a6116100d3578063715018a6146101785780638da5cb5b1461018257806399e0e483146101a0578063a0d956e9146101bc576100f5565b8063181e79eb146100fa578063350d4b151461012a5780636ef382321461015a575b600080fd5b610114600480360381019061010f919061221d565b6102f6565b604051610121919061284c565b60405180910390f35b610144600480360381019061013f9190612295565b610370565b6040516101519190612909565b60405180910390f35b6101626103f2565b60405161016f9190612909565b60405180910390f35b6101806103f7565b005b61018a610567565b6040516101979190612718565b60405180910390f35b6101ba60048036038101906101b5919061218d565b610591565b005b6101d660048036038101906101d191906123ab565b6106f1565b6040516101e391906128e7565b60405180910390f35b6101f4610919565b6040516102019190612830565b60405180910390f35b610224600480360381019061021f9190612314565b610948565b604051610231919061284c565b60405180910390f35b610254600480360381019061024f91906123ab565b6109aa565b005b610270600480360381019061026b91906123d4565b610b91565b005b61028c6004803603810190610287919061226c565b610ca7565b6040516102999190612909565b60405180910390f35b6102bc60048036038101906102b791906121e1565b610d0c565b005b6102d860048036038101906102d39190612164565b610e39565b005b6102f460048036038101906102ef9190612295565b61102e565b005b600080610324610316610308876111eb565b61031187611291565b6113e1565b61031f85611538565b6113e1565b90506000610331826115c5565b905061033b611ece565b6020816093846103eb5afa61034f57600080fd5b60018160006001811061035e57fe5b60200201511493505050509392505050565b6000806103eb905060006020905060006020905061038c611ece565b6000805a9050600061039d8b6117db565b905060006103ab828c611836565b90506103b7818b611836565b9050868151019350858585838b87fa6103cf57600080fd5b846000600181106103dc57fe5b6020020151985050505050505050509392505050565b600c81565b6103ff6118f5565b73ffffffffffffffffffffffffffffffffffffffff1661041d610567565b73ffffffffffffffffffffffffffffffffffffffff16146104a6576040517f08c379a00000000000000000000000000000000000000000000000000000000081526004018080602001828103825260208152602001807f4f776e61626c653a2063616c6c6572206973206e6f7420746865206f776e657281525060200191505060405180910390fd5b600073ffffffffffffffffffffffffffffffffffffffff16603360009054906101000a900473ffffffffffffffffffffffffffffffffffffffff1673ffffffffffffffffffffffffffffffffffffffff167f8be0079c531659141344cd1fd0a4f28419497f9722a3daafe3b4186f6b6457e060405160405180910390a36000603360006101000a81548173ffffffffffffffffffffffffffffffffffffffff021916908373ffffffffffffffffffffffffffffffffffffffff160217905550565b6000603360009054906101000a900473ffffffffffffffffffffffffffffffffffffffff16905090565b600060019054906101000a900460ff16806105b057506105af6118fd565b5b806105c6575060008054906101000a900460ff16155b61061b576040517f08c379a000000000000000000000000000000000000000000000000000000000815260040180806020018281038252602e815260200180612b58602e913960400191505060405180910390fd5b60008060019054906101000a900460ff16159050801561066b576001600060016101000a81548160ff02191690831515021790555060016000806101000a81548160ff0219169083151502179055505b82606560006101000a81548173ffffffffffffffffffffffffffffffffffffffff021916908373ffffffffffffffffffffffffffffffffffffffff16021790555081606690805190602001906106c2929190611ef0565b506106cb61190e565b80156106ec5760008060016101000a81548160ff0219169083151502179055505b505050565b6106f9611f7e565b6000821161073c576040517f08c379a000000000000000000000000000000000000000000000000000000000815260040161073390612887565b60405180910390fd5b606760008381526020019081526020016000206040518060c00160405290816000820160009054906101000a900473ffffffffffffffffffffffffffffffffffffffff1673ffffffffffffffffffffffffffffffffffffffff1673ffffffffffffffffffffffffffffffffffffffff1681526020016001820154815260200160028201548152602001600382018054600181600116156101000203166002900480601f01602080910402602001604051908101604052809291908181526020018280546001816001161561010002031660029004801561085d5780601f106108325761010080835404028352916020019161085d565b820191906000526020600020905b81548152906001019060200180831161084057829003601f168201915b5050505050815260200160048201548152602001600582018054600181600116156101000203166002900480601f0160208091040260200160405190810160405280929190818152602001828054600181600116156101000203166002900480156109095780601f106108de57610100808354040283529160200191610909565b820191906000526020600020905b8154815290600101906020018083116108ec57829003601f168201915b5050505050815250509050919050565b610921611fcd565b610929611fcd565b6000610180826000836103e85afa61094057600080fd5b819250505090565b60008061095e61095886866113e1565b846113e1565b9050600061096b826115c5565b9050610975611ece565b60208160c1846103e95afa61098957600080fd5b60018160006001811061099857fe5b60200201511493505050509392505050565b600081116109ed576040517f08c379a00000000000000000000000000000000000000000000000000000000081526004016109e4906128a7565b60405180910390fd5b606560009054906101000a900473ffffffffffffffffffffffffffffffffffffffff1673ffffffffffffffffffffffffffffffffffffffff166342966c68826040518263ffffffff1660e01b8152600401610a489190612909565b600060405180830381600087803b158015610a6257600080fd5b505af1158015610a76573d6000803e3d6000fd5b505050507fba1a2a4722f69d9cb900706399d7fe21217b45c257d78a3c734d639011e028e86067600083815260200190815260200160002060000160009054906101000a900473ffffffffffffffffffffffffffffffffffffffff168260676000858152602001908152602001600020600201546067600086815260200190815260200160002060040154604051610b1194939291906127eb565b60405180910390a160676000828152602001908152602001600020600080820160006101000a81549073ffffffffffffffffffffffffffffffffffffffff021916905560018201600090556002820160009055600382016000610b749190611ff0565b6004820160009055600582016000610b8c9190611ff0565b505050565b60008211610bd4576040517f08c379a0000000000000000000000000000000000000000000000000000000008152600401610bcb906128a7565b60405180910390fd5b6067600083815260200190815260200160002060000160009054906101000a900473ffffffffffffffffffffffffffffffffffffffff1673ffffffffffffffffffffffffffffffffffffffff163373ffffffffffffffffffffffffffffffffffffffff1614610c78576040517f08c379a0000000000000000000000000000000000000000000000000000000008152600401610c6f90612867565b60405180910390fd5b80606760008481526020019081526020016000206005019080519060200190610ca2929190611ef0565b505050565b6000806103ec9050600060209050600060209050610cc3611ece565b6000805a90506000610cd4896117db565b9050858151019250848484838a86fa610cec57600080fd5b83600060018110610cf957fe5b6020020151975050505050505050919050565b60008111610d4f576040517f08c379a0000000000000000000000000000000000000000000000000000000008152600401610d46906128a7565b60405180910390fd5b606560009054906101000a900473ffffffffffffffffffffffffffffffffffffffff1673ffffffffffffffffffffffffffffffffffffffff166342842e0e3384846040518463ffffffff1660e01b8152600401610dae93929190612733565b600060405180830381600087803b158015610dc857600080fd5b505af1158015610ddc573d6000803e3d6000fd5b50505050816067600083815260200190815260200160002060000160006101000a81548173ffffffffffffffffffffffffffffffffffffffff021916908373ffffffffffffffffffffffffffffffffffffffff1602179055505050565b610e416118f5565b73ffffffffffffffffffffffffffffffffffffffff16610e5f610567565b73ffffffffffffffffffffffffffffffffffffffff1614610ee8576040517f08c379a00000000000000000000000000000000000000000000000000000000081526004018080602001828103825260208152602001807f4f776e61626c653a2063616c6c6572206973206e6f7420746865206f776e657281525060200191505060405180910390fd5b600073ffffffffffffffffffffffffffffffffffffffff168173ffffffffffffffffffffffffffffffffffffffff161415610f6e576040517f08c379a0000000000000000000000000000000000000000000000000000000008152600401808060200182810382526026815260200180612b326026913960400191505060405180910390fd5b8073ffffffffffffffffffffffffffffffffffffffff16603360009054906101000a900473ffffffffffffffffffffffffffffffffffffffff1673ffffffffffffffffffffffffffffffffffffffff167f8be0079c531659141344cd1fd0a4f28419497f9722a3daafe3b4186f6b6457e060405160405180910390a380603360006101000a81548173ffffffffffffffffffffffffffffffffffffffff021916908373ffffffffffffffffffffffffffffffffffffffff16021790555050565b600061103b848484610370565b905060018114611080576040517f08c379a0000000000000000000000000000000000000000000000000000000008152600401611077906128c7565b60405180910390fd5b600061108b85610ca7565b9050426067600083815260200190815260200160002060020181905550846067600083815260200190815260200160002060040181905550336067600083815260200190815260200160002060000160006101000a81548173ffffffffffffffffffffffffffffffffffffffff021916908373ffffffffffffffffffffffffffffffffffffffff160217905550606560009054906101000a900473ffffffffffffffffffffffffffffffffffffffff1673ffffffffffffffffffffffffffffffffffffffff1663d3fc986433836040518363ffffffff1660e01b815260040161117592919061276a565b600060405180830381600087803b15801561118f57600080fd5b505af11580156111a3573d6000803e3d6000fd5b505050507f7327a52cdebe8ff9ace20426ebd639d204d3d3b303adda96161107911fad2a52338242886040516111dc94939291906127a6565b60405180910390a15050505050565b6060600082604051602001808273ffffffffffffffffffffffffffffffffffffffff1660601b815260140191505060405160208183030381529060405290506000602867ffffffffffffffff8111801561124457600080fd5b506040519080825280601f01601f1916602001820160405280156112775781602001600182028036833780820191505090505b509050611285826014611a1c565b90508092505050919050565b606060008214156112d9576040518060400160405280600181526020017f300000000000000000000000000000000000000000000000000000000000000081525090506113dc565b600082905060005b60008214611303578080600101915050600a82816112fb57fe5b0491506112e1565b60008167ffffffffffffffff8111801561131c57600080fd5b506040519080825280601f01601f19166020018201604052801561134f5781602001600182028036833780820191505090505b50905060008290505b600086146113d4576001810390506000600a80888161137357fe5b04028703603001905060008160f81b90508084848151811061139157fe5b60200101907effffffffffffffffffffffffffffffffffffffffffffffffffffffffffffff1916908160001a905350600a88816113ca57fe5b0497505050611358565b819450505050505b919050565b6060600083905060008390506000815183510167ffffffffffffffff8111801561140a57600080fd5b506040519080825280601f01601f19166020018201604052801561143d5781602001600182028036833780820191505090505b50905060008190506000805b85518110156114b75785818151811061145e57fe5b602001015160f81c60f81b83838060010194508151811061147b57fe5b60200101907effffffffffffffffffffffffffffffffffffffffffffffffffffffffffffff1916908160001a9053508080600101915050611449565b5060005b8451811015611529578481815181106114d057fe5b602001015160f81c60f81b8383806001019450815181106114ed57fe5b60200101907effffffffffffffffffffffffffffffffffffffffffffffffffffffffffffff1916908160001a90535080806001019150506114bb565b50829550505050505092915050565b60606000826040516020018082815260200191505060405160208183030381529060405290506000604067ffffffffffffffff8111801561157857600080fd5b506040519080825280601f01601f1916602001820160405280156115ab5781602001600182028036833780820191505090505b5090506115b9826020611a1c565b90508092505050919050565b606060008290506000815167ffffffffffffffff811180156115e657600080fd5b506040519080825280602002602001820160405280156116155781602001602082028036833780820191505090505b50905060005b82518110156116e657600083828151811061163257fe5b602001015160f81c60f81b60f81c905060608160ff16111561167a57600a606182030183838151811061166157fe5b602002602001019060ff16908160ff16815250506116d8565b60428160ff1611156116b257600a604182030183838151811061169957fe5b602002602001019060ff16908160ff16815250506116d7565b603081038383815181106116c257fe5b602002602001019060ff16908160ff16815250505b5b50808060010191505061161b565b50600060028251816116f457fe5b0467ffffffffffffffff8111801561170b57600080fd5b506040519080825280601f01601f19166020018201604052801561173e5781602001600182028036833780820191505090505b50905060005b82518110156117cf5782600182018151811061175c57fe5b6020026020010151601084838151811061177257fe5b6020026020010151020160f81b826002838161178a57fe5b048151811061179557fe5b60200101907effffffffffffffffffffffffffffffffffffffffffffffffffffffffffffff1916908160001a905350600281019050611744565b50809350505050919050565b6060602067ffffffffffffffff811180156117f557600080fd5b506040519080825280601f01601f1916602001820160405280156118285781602001600182028036833780820191505090505b509050816020820152919050565b60606000825184510167ffffffffffffffff8111801561185557600080fd5b506040519080825280601f01601f1916602001820160405280156118885781602001600182028036833780820191505090505b509050600080600080600080600061189f8b611bac565b80975081985050506118b08a611bac565b80955081965050506118c188611bac565b809250819450505085830191506118d9878488611bbe565b6118e4858386611bbe565b879850505050505050505092915050565b600033905090565b600061190830611c16565b15905090565b600060019054906101000a900460ff168061192d575061192c6118fd565b5b80611943575060008054906101000a900460ff16155b611998576040517f08c379a000000000000000000000000000000000000000000000000000000000815260040180806020018281038252602e815260200180612b58602e913960400191505060405180910390fd5b60008060019054906101000a900460ff1615905080156119e8576001600060016101000a81548160ff02191690831515021790555060016000806101000a81548160ff0219169083151502179055505b6119f0611c29565b6119f8611d27565b8015611a195760008060016101000a81548160ff0219169083151502179055505b50565b606060006002830267ffffffffffffffff81118015611a3a57600080fd5b506040519080825280601f01601f191660200182016040528015611a6d5781602001600182028036833780820191505090505b50905060005b83811015611ba15760006010868381518110611a8b57fe5b602001015160f81c60f81b60f81c60ff1681611aa357fe5b049050600081601002878481518110611ab857fe5b602001015160f81c60f81b60f81c0390506000600a8360ff1610611ae2576057830160f81b611aea565b6030830160f81b5b90506000600a8360ff1610611b05576057830160f81b611b0d565b6030830160f81b5b905081868660020281518110611b1f57fe5b60200101907effffffffffffffffffffffffffffffffffffffffffffffffffffffffffffff1916908160001a90535080866001876002020181518110611b6157fe5b60200101907effffffffffffffffffffffffffffffffffffffffffffffffffffffffffffff1916908160001a905350505050508080600101915050611a73565b508091505092915050565b60008082519050602083019150915091565b5b60208110611be25782518252602082019150602083019250602081039050611bbf565b6000811415611bf057611c11565b60006001826020036101000a03905080198451168184511681811785525050505b505050565b600080823b905060008111915050919050565b600060019054906101000a900460ff1680611c485750611c476118fd565b5b80611c5e575060008054906101000a900460ff16155b611cb3576040517f08c379a000000000000000000000000000000000000000000000000000000000815260040180806020018281038252602e815260200180612b58602e913960400191505060405180910390fd5b60008060019054906101000a900460ff161590508015611d03576001600060016101000a81548160ff02191690831515021790555060016000806101000a81548160ff0219169083151502179055505b8015611d245760008060016101000a81548160ff0219169083151502179055505b50565b600060019054906101000a900460ff1680611d465750611d456118fd565b5b80611d5c575060008054906101000a900460ff16155b611db1576040517f08c379a000000000000000000000000000000000000000000000000000000000815260040180806020018281038252602e815260200180612b58602e913960400191505060405180910390fd5b60008060019054906101000a900460ff161590508015611e01576001600060016101000a81548160ff02191690831515021790555060016000806101000a81548160ff0219169083151502179055505b6000611e0b6118f5565b905080603360006101000a81548173ffffffffffffffffffffffffffffffffffffffff021916908373ffffffffffffffffffffffffffffffffffffffff1602179055508073ffffffffffffffffffffffffffffffffffffffff16600073ffffffffffffffffffffffffffffffffffffffff167f8be0079c531659141344cd1fd0a4f28419497f9722a3daafe3b4186f6b6457e060405160405180910390a3508015611ecb5760008060016101000a81548160ff0219169083151502179055505b50565b6040518060200160405280600190602082028036833780820191505090505090565b828054600181600116156101000203166002900490600052602060002090601f016020900481019282611f265760008555611f6d565b82601f10611f3f57805160ff1916838001178555611f6d565b82800160010185558215611f6d579182015b82811115611f6c578251825591602001919060010190611f51565b5b509050611f7a9190612038565b5090565b6040518060c00160405280600073ffffffffffffffffffffffffffffffffffffffff16815260200160008152602001600081526020016060815260200160008019168152602001606081525090565b604051806101800160405280600c90602082028036833780820191505090505090565b50805460018160011615610100020316600290046000825580601f106120165750612035565b601f0160209004906000526020600020908101906120349190612038565b5b50565b5b80821115612051576000816000905550600101612039565b5090565b600061206861206384612955565b612924565b90508281526020810184848401111561208057600080fd5b61208b848285612a97565b509392505050565b60006120a66120a184612985565b612924565b9050828152602081018484840111156120be57600080fd5b6120c9848285612a97565b509392505050565b6000813590506120e081612aec565b92915050565b6000813590506120f581612b03565b92915050565b600082601f83011261210c57600080fd5b813561211c848260208601612055565b91505092915050565b600082601f83011261213657600080fd5b8135612146848260208601612093565b91505092915050565b60008135905061215e81612b1a565b92915050565b60006020828403121561217657600080fd5b6000612184848285016120d1565b91505092915050565b600080604083850312156121a057600080fd5b60006121ae858286016120d1565b925050602083013567ffffffffffffffff8111156121cb57600080fd5b6121d785828601612125565b9150509250929050565b600080604083850312156121f457600080fd5b6000612202858286016120d1565b92505060206122138582860161214f565b9150509250929050565b60008060006060848603121561223257600080fd5b6000612240868287016120d1565b93505060206122518682870161214f565b9250506040612262868287016120e6565b9150509250925092565b60006020828403121561227e57600080fd5b600061228c848285016120e6565b91505092915050565b6000806000606084860312156122aa57600080fd5b60006122b8868287016120e6565b935050602084013567ffffffffffffffff8111156122d557600080fd5b6122e1868287016120fb565b925050604084013567ffffffffffffffff8111156122fe57600080fd5b61230a868287016120fb565b9150509250925092565b60008060006060848603121561232957600080fd5b600084013567ffffffffffffffff81111561234357600080fd5b61234f86828701612125565b935050602084013567ffffffffffffffff81111561236c57600080fd5b61237886828701612125565b925050604084013567ffffffffffffffff81111561239557600080fd5b6123a186828701612125565b9150509250925092565b6000602082840312156123bd57600080fd5b60006123cb8482850161214f565b91505092915050565b600080604083850312156123e757600080fd5b60006123f58582860161214f565b925050602083013567ffffffffffffffff81111561241257600080fd5b61241e85828601612125565b9150509250929050565b600061243483836124d3565b60208301905092915050565b61244981612a61565b82525050565b61245881612a0f565b82525050565b61246781612a0f565b82525050565b612476816129bf565b61248081846129e2565b925061248b826129b5565b8060005b838110156124bc5781516124a38782612428565b96506124ae836129d5565b92505060018101905061248f565b505050505050565b6124cd81612a21565b82525050565b6124dc81612a2d565b82525050565b6124eb81612a2d565b82525050565b60006124fc826129ca565b61250681856129ed565b9350612516818560208601612aa6565b61251f81612adb565b840191505092915050565b6000612537601b836129fe565b91507f7469636b6574206f776e6572206973206e6f7420636f6c6c65637400000000006000830152602082019050919050565b6000612577601b836129fe565b91507f746f6b656e206964206d757374206c6172676572207468616e203000000000006000830152602082019050919050565b60006125b76003836129fe565b91507f30783000000000000000000000000000000000000000000000000000000000006000830152602082019050919050565b60006125f7601f836129fe565b91507f7374616b6520616d6f756e74206d757374206c6172676572207468616e2030006000830152602082019050919050565b6000612637601f836129fe565b91507f706c6564676542696c6c2056657269667920646f206e6f7420706173732021006000830152602082019050919050565b600060c083016000830151612682600086018261244f565b50602083015161269560208601826126fa565b5060408301516126a860408601826126fa565b50606083015184820360608601526126c082826124f1565b91505060808301516126d560808601826124d3565b5060a083015184820360a08601526126ed82826124f1565b9150508091505092915050565b61270381612a57565b82525050565b61271281612a57565b82525050565b600060208201905061272d600083018461245e565b92915050565b60006060820190506127486000830186612440565b612755602083018561245e565b6127626040830184612709565b949350505050565b600060608201905061277f6000830185612440565b61278c6020830184612709565b818103604083015261279d816125aa565b90509392505050565b60006080820190506127bb6000830187612440565b6127c86020830186612709565b6127d56040830185612709565b6127e260608301846124e2565b95945050505050565b6000608082019050612800600083018761245e565b61280d6020830186612709565b61281a6040830185612709565b61282760608301846124e2565b95945050505050565b600061018082019050612846600083018461246d565b92915050565b600060208201905061286160008301846124c4565b92915050565b600060208201905081810360008301526128808161252a565b9050919050565b600060208201905081810360008301526128a08161256a565b9050919050565b600060208201905081810360008301526128c0816125ea565b9050919050565b600060208201905081810360008301526128e08161262a565b9050919050565b60006020820190508181036000830152612901818461266a565b905092915050565b600060208201905061291e6000830184612709565b92915050565b6000604051905081810181811067ffffffffffffffff8211171561294b5761294a612ad9565b5b8060405250919050565b600067ffffffffffffffff8211156129705761296f612ad9565b5b601f19601f8301169050602081019050919050565b600067ffffffffffffffff8211156129a05761299f612ad9565b5b601f19601f8301169050602081019050919050565b6000819050919050565b6000600c9050919050565b600081519050919050565b6000602082019050919050565b600081905092915050565b600082825260208201905092915050565b600082825260208201905092915050565b6000612a1a82612a37565b9050919050565b60008115159050919050565b6000819050919050565b600073ffffffffffffffffffffffffffffffffffffffff82169050919050565b6000819050919050565b6000612a6c82612a73565b9050919050565b6000612a7e82612a85565b9050919050565b6000612a9082612a37565b9050919050565b82818337600083830152505050565b60005b83811015612ac4578082015181840152602081019050612aa9565b83811115612ad3576000848401525b50505050565bfe5b6000601f19601f8301169050919050565b612af581612a0f565b8114612b0057600080fd5b50565b612b0c81612a2d565b8114612b1757600080fd5b50565b612b2381612a57565b8114612b2e57600080fd5b5056fe4f776e61626c653a206e6577206f776e657220697320746865207a65726f2061646472657373496e697469616c697a61626c653a20636f6e747261637420697320616c726561647920696e697469616c697a6564a264697066735822122037d8b02d37c5c67e446c450a0cb483603883d2b11ead0be5797e02d4f9b9c10964736f6c63430007060033",
  "linkReferences": {},
  "deployedLinkReferences": {}
}