{
  "_format": "hh-sol-artifact-1",
  "contractName": "AccessControlSegregator",
  "sourceName": "contracts/utils/AccessControlSegregator.sol",
  "abi": [
    {
      "inputs": [
        {
          "internalType": "bytes4[]",
          "name": "functions",
          "type": "bytes4[]"
        },
        {
          "internalType": "address[]",
          "name": "accounts",
          "type": "address[]"
        }
      ],
      "stateMutability": "nonpayable",
      "type": "constructor"
    },
    {
      "inputs": [],
      "name": "GRANT_ACCESS_SIG",
      "outputs": [
        {
          "internalType": "bytes4",
          "name": "",
          "type": "bytes4"
        }
      ],
      "stateMutability": "view",
      "type": "function"
    },
    {
      "inputs": [
        {
          "internalType": "bytes4",
          "name": "",
          "type": "bytes4"
        }
      ],
      "name": "functionAccess",
      "outputs": [
        {
          "internalType": "address",
          "name": "",
          "type": "address"
        }
      ],
      "stateMutability": "view",
      "type": "function"
    },
    {
      "inputs": [
        {
          "internalType": "bytes4",
          "name": "sig",
          "type": "bytes4"
        },
        {
          "internalType": "address",
          "name": "account",
          "type": "address"
        }
      ],
      "name": "grantAccess",
      "outputs": [],
      "stateMutability": "nonpayable",
      "type": "function"
    },
    {
      "inputs": [
        {
          "internalType": "bytes4",
          "name": "sig",
          "type": "bytes4"
        },
        {
          "internalType": "address",
          "name": "account",
          "type": "address"
        }
      ],
      "name": "hasAccess",
      "outputs": [
        {
          "internalType": "bool",
          "name": "",
          "type": "bool"
        }
      ],
      "stateMutability": "view",
      "type": "function"
    }
  ],
  "bytecode": "0x608060405234801561001057600080fd5b506040516107243803806107248339818101604052604081101561003357600080fd5b810190808051604051939291908464010000000082111561005357600080fd5b8382019150602082018581111561006957600080fd5b825186602082028301116401000000008211171561008657600080fd5b8083526020830192505050908051906020019060200280838360005b838110156100bd5780820151818401526020810190506100a2565b50505050905001604052602001805160405193929190846401000000008211156100e657600080fd5b838201915060208201858111156100fc57600080fd5b825186602082028301116401000000008211171561011957600080fd5b8083526020830192505050908051906020019060200280838360005b83811015610150578082015181840152602081019050610135565b5050505090500160405250505081518151146101d4576040517f08c379a000000000000000000000000000000000000000000000000000000000815260040180806020018281038252601c8152602001807f6172726179206c656e6774682073686f756c6420626520657175616c0000000081525060200191505060405180910390fd5b6101eb63a973ec9360e01b3361024260201b60201c565b60005b815181101561023a5761022d83828151811061020657fe5b602002602001015183838151811061021a57fe5b602002602001015161024260201b60201c565b80806001019150506101ee565b5050506102d5565b80600080847bffffffffffffffffffffffffffffffffffffffffffffffffffffffff19167bffffffffffffffffffffffffffffffffffffffffffffffffffffffff1916815260200190815260200160002060006101000a81548173ffffffffffffffffffffffffffffffffffffffff021916908373ffffffffffffffffffffffffffffffffffffffff1602179055505050565b610440806102e46000396000f3fe608060405234801561001057600080fd5b506004361061004c5760003560e01c806371c9521c146100515780639bec8dd3146100d4578063a973ec9314610111578063f2bff7881461017e575b600080fd5b6100bc6004803603604081101561006757600080fd5b8101908080357bffffffffffffffffffffffffffffffffffffffffffffffffffffffff19169060200190929190803573ffffffffffffffffffffffffffffffffffffffff1690602001909291905050506101f5565b60405180821515815260200191505060405180910390f35b6100dc61029e565b60405180827bffffffffffffffffffffffffffffffffffffffffffffffffffffffff1916815260200191505060405180910390f35b61017c6004803603604081101561012757600080fd5b8101908080357bffffffffffffffffffffffffffffffffffffffffffffffffffffffff19169060200190929190803573ffffffffffffffffffffffffffffffffffffffff1690602001909291905050506102a9565b005b6101c96004803603602081101561019457600080fd5b8101908080357bffffffffffffffffffffffffffffffffffffffffffffffffffffffff1916906020019092919050505061031d565b604051808273ffffffffffffffffffffffffffffffffffffffff16815260200191505060405180910390f35b60008173ffffffffffffffffffffffffffffffffffffffff16600080857bffffffffffffffffffffffffffffffffffffffffffffffffffffffff19167bffffffffffffffffffffffffffffffffffffffffffffffffffffffff1916815260200190815260200160002060009054906101000a900473ffffffffffffffffffffffffffffffffffffffff1673ffffffffffffffffffffffffffffffffffffffff1614905092915050565b63a973ec9360e01b81565b6102ba63a973ec9360e01b336101f5565b61030f576040517f08c379a00000000000000000000000000000000000000000000000000000000081526004018080602001828103825260278152602001806103e46027913960400191505060405180910390fd5b6103198282610350565b5050565b60006020528060005260406000206000915054906101000a900473ffffffffffffffffffffffffffffffffffffffff1681565b80600080847bffffffffffffffffffffffffffffffffffffffffffffffffffffffff19167bffffffffffffffffffffffffffffffffffffffffffffffffffffffff1916815260200190815260200160002060006101000a81548173ffffffffffffffffffffffffffffffffffffffff021916908373ffffffffffffffffffffffffffffffffffffffff160217905550505056fe73656e64657220646f65736e27742068617665206772616e742061636365737320726967687473a264697066735822122012932f8c791fde417c1c1a592c987215b70df517e2fc246a9545de4cc358182464736f6c63430007060033",
  "linkReferences": {},
  "deployedLinkReferences": {}
}