{
  "_format": "hh-sol-artifact-1",
  "contractName": "CentrifugeAsset",
  "sourceName": "contracts/CentrifugeAsset.sol",
  "abi": [
    {
      "anonymous": false,
      "inputs": [
        {
          "indexed": true,
          "internalType": "bytes32",
          "name": "asset",
          "type": "bytes32"
        }
      ],
      "name": "AssetStored",
      "type": "event"
    },
    {
      "inputs": [
        {
          "internalType": "bytes32",
          "name": "",
          "type": "bytes32"
        }
      ],
      "name": "_assetsStored",
      "outputs": [
        {
          "internalType": "bool",
          "name": "",
          "type": "bool"
        }
      ],
      "stateMutability": "view",
      "type": "function"
    },
    {
      "inputs": [
        {
          "internalType": "bytes32",
          "name": "asset",
          "type": "bytes32"
        }
      ],
      "name": "store",
      "outputs": [],
      "stateMutability": "nonpayable",
      "type": "function"
    }
  ],
  "bytecode": "0x608060405234801561001057600080fd5b506101f1806100206000396000f3fe608060405234801561001057600080fd5b50600436106100365760003560e01c8063654cf88c1461003b57806396add60014610069575b600080fd5b6100676004803603602081101561005157600080fd5b81019080803590602001909291905050506100ad565b005b6100956004803603602081101561007f57600080fd5b810190808035906020019092919050505061019b565b60405180821515815260200191505060405180910390f35b60008082815260200190815260200160002060009054906101000a900460ff1615610140576040517f08c379a00000000000000000000000000000000000000000000000000000000081526004018080602001828103825260178152602001807f617373657420697320616c72656164792073746f72656400000000000000000081525060200191505060405180910390fd5b600160008083815260200190815260200160002060006101000a81548160ff021916908315150217905550807f08ae553713effae7116be03743b167b8b803449ee8fb912c2ec43dc2c824f53560405160405180910390a250565b60006020528060005260406000206000915054906101000a900460ff168156fea264697066735822122054ddcd8db617bb8aeaed29d31425e21c00541d2558afae5dc004d8133aae885464736f6c63430007060033",
  "linkReferences": {},
  "deployedLinkReferences": {}
}