{
  "_format": "hh-sol-artifact-1",
  "contractName": "FeeHandlerWithOracle",
  "sourceName": "contracts/handlers/fee/FeeHandlerWithOracle.sol",
  "abi": [
    {
      "inputs": [
        {
          "internalType": "address",
          "name": "bridgeAddress",
          "type": "address"
        },
        {
          "internalType": "address",
          "name": "feeHandlerRouterAddress",
          "type": "address"
        }
      ],
      "stateMutability": "nonpayable",
      "type": "constructor"
    },
    {
      "anonymous": false,
      "inputs": [
        {
          "indexed": false,
          "internalType": "address",
          "name": "sender",
          "type": "address"
        },
        {
          "indexed": false,
          "internalType": "uint8",
          "name": "fromDomainID",
          "type": "uint8"
        },
        {
          "indexed": false,
          "internalType": "uint8",
          "name": "destinationDomainID",
          "type": "uint8"
        },
        {
          "indexed": false,
          "internalType": "bytes32",
          "name": "resourceID",
          "type": "bytes32"
        },
        {
          "indexed": false,
          "internalType": "uint256",
          "name": "fee",
          "type": "uint256"
        },
        {
          "indexed": false,
          "internalType": "address",
          "name": "tokenAddress",
          "type": "address"
        }
      ],
      "name": "FeeCollected",
      "type": "event"
    },
    {
      "anonymous": false,
      "inputs": [
        {
          "indexed": false,
          "internalType": "address",
          "name": "tokenAddress",
          "type": "address"
        },
        {
          "indexed": false,
          "internalType": "address",
          "name": "recipient",
          "type": "address"
        },
        {
          "indexed": false,
          "internalType": "uint256",
          "name": "amount",
          "type": "uint256"
        }
      ],
      "name": "FeeDistributed",
      "type": "event"
    },
    {
      "anonymous": false,
      "inputs": [
        {
          "indexed": true,
          "internalType": "bytes32",
          "name": "role",
          "type": "bytes32"
        },
        {
          "indexed": true,
          "internalType": "address",
          "name": "account",
          "type": "address"
        },
        {
          "indexed": true,
          "internalType": "address",
          "name": "sender",
          "type": "address"
        }
      ],
      "name": "RoleGranted",
      "type": "event"
    },
    {
      "anonymous": false,
      "inputs": [
        {
          "indexed": true,
          "internalType": "bytes32",
          "name": "role",
          "type": "bytes32"
        },
        {
          "indexed": true,
          "internalType": "address",
          "name": "account",
          "type": "address"
        },
        {
          "indexed": true,
          "internalType": "address",
          "name": "sender",
          "type": "address"
        }
      ],
      "name": "RoleRevoked",
      "type": "event"
    },
    {
      "inputs": [],
      "name": "DEFAULT_ADMIN_ROLE",
      "outputs": [
        {
          "internalType": "bytes32",
          "name": "",
          "type": "bytes32"
        }
      ],
      "stateMutability": "view",
      "type": "function"
    },
    {
      "inputs": [],
      "name": "_bridgeAddress",
      "outputs": [
        {
          "internalType": "address",
          "name": "",
          "type": "address"
        }
      ],
      "stateMutability": "view",
      "type": "function"
    },
    {
      "inputs": [],
      "name": "_feeHandlerRouterAddress",
      "outputs": [
        {
          "internalType": "address",
          "name": "",
          "type": "address"
        }
      ],
      "stateMutability": "view",
      "type": "function"
    },
    {
      "inputs": [],
      "name": "_feePercent",
      "outputs": [
        {
          "internalType": "uint16",
          "name": "",
          "type": "uint16"
        }
      ],
      "stateMutability": "view",
      "type": "function"
    },
    {
      "inputs": [],
      "name": "_gasUsed",
      "outputs": [
        {
          "internalType": "uint32",
          "name": "",
          "type": "uint32"
        }
      ],
      "stateMutability": "view",
      "type": "function"
    },
    {
      "inputs": [],
      "name": "_oracleAddress",
      "outputs": [
        {
          "internalType": "address",
          "name": "",
          "type": "address"
        }
      ],
      "stateMutability": "view",
      "type": "function"
    },
    {
      "inputs": [
        {
          "internalType": "bytes32",
          "name": "role",
          "type": "bytes32"
        }
      ],
      "name": "getRoleAdmin",
      "outputs": [
        {
          "internalType": "bytes32",
          "name": "",
          "type": "bytes32"
        }
      ],
      "stateMutability": "view",
      "type": "function"
    },
    {
      "inputs": [
        {
          "internalType": "bytes32",
          "name": "role",
          "type": "bytes32"
        },
        {
          "internalType": "uint256",
          "name": "index",
          "type": "uint256"
        }
      ],
      "name": "getRoleMember",
      "outputs": [
        {
          "internalType": "address",
          "name": "",
          "type": "address"
        }
      ],
      "stateMutability": "view",
      "type": "function"
    },
    {
      "inputs": [
        {
          "internalType": "bytes32",
          "name": "role",
          "type": "bytes32"
        }
      ],
      "name": "getRoleMemberCount",
      "outputs": [
        {
          "internalType": "uint256",
          "name": "",
          "type": "uint256"
        }
      ],
      "stateMutability": "view",
      "type": "function"
    },
    {
      "inputs": [
        {
          "internalType": "bytes32",
          "name": "role",
          "type": "bytes32"
        },
        {
          "internalType": "address",
          "name": "account",
          "type": "address"
        }
      ],
      "name": "getRoleMemberIndex",
      "outputs": [
        {
          "internalType": "uint256",
          "name": "",
          "type": "uint256"
        }
      ],
      "stateMutability": "view",
      "type": "function"
    },
    {
      "inputs": [
        {
          "internalType": "bytes32",
          "name": "role",
          "type": "bytes32"
        },
        {
          "internalType": "address",
          "name": "account",
          "type": "address"
        }
      ],
      "name": "grantRole",
      "outputs": [],
      "stateMutability": "nonpayable",
      "type": "function"
    },
    {
      "inputs": [
        {
          "internalType": "bytes32",
          "name": "role",
          "type": "bytes32"
        },
        {
          "internalType": "address",
          "name": "account",
          "type": "address"
        }
      ],
      "name": "hasRole",
      "outputs": [
        {
          "internalType": "bool",
          "name": "",
          "type": "bool"
        }
      ],
      "stateMutability": "view",
      "type": "function"
    },
    {
      "inputs": [
        {
          "internalType": "address",
          "name": "newAdmin",
          "type": "address"
        }
      ],
      "name": "renounceAdmin",
      "outputs": [],
      "stateMutability": "nonpayable",
      "type": "function"
    },
    {
      "inputs": [
        {
          "internalType": "bytes32",
          "name": "role",
          "type": "bytes32"
        },
        {
          "internalType": "address",
          "name": "account",
          "type": "address"
        }
      ],
      "name": "renounceRole",
      "outputs": [],
      "stateMutability": "nonpayable",
      "type": "function"
    },
    {
      "inputs": [
        {
          "internalType": "bytes32",
          "name": "role",
          "type": "bytes32"
        },
        {
          "internalType": "address",
          "name": "account",
          "type": "address"
        }
      ],
      "name": "revokeRole",
      "outputs": [],
      "stateMutability": "nonpayable",
      "type": "function"
    },
    {
      "inputs": [
        {
          "internalType": "address",
          "name": "oracleAddress",
          "type": "address"
        }
      ],
      "name": "setFeeOracle",
      "outputs": [],
      "stateMutability": "nonpayable",
      "type": "function"
    },
    {
      "inputs": [
        {
          "internalType": "uint32",
          "name": "gasUsed",
          "type": "uint32"
        },
        {
          "internalType": "uint16",
          "name": "feePercent",
          "type": "uint16"
        }
      ],
      "name": "setFeeProperties",
      "outputs": [],
      "stateMutability": "nonpayable",
      "type": "function"
    }
  ],
  "bytecode": "0x60c06040523480156200001157600080fd5b50604051620012d2380380620012d28339818101604052810190620000379190620000c4565b8173ffffffffffffffffffffffffffffffffffffffff1660808173ffffffffffffffffffffffffffffffffffffffff1660601b815250508073ffffffffffffffffffffffffffffffffffffffff1660a08173ffffffffffffffffffffffffffffffffffffffff1660601b81525050505062000153565b600081519050620000be8162000139565b92915050565b60008060408385031215620000d857600080fd5b6000620000e885828601620000ad565b9250506020620000fb85828601620000ad565b9150509250929050565b6000620001128262000119565b9050919050565b600073ffffffffffffffffffffffffffffffffffffffff82169050919050565b620001448162000105565b81146200015057600080fd5b50565b60805160601c60a05160601c6111556200017d600039806105e652508061040652506111556000f3fe608060405234801561001057600080fd5b506004361061010b5760003560e01c8063745e6b61116100a2578063a8a9896211610071578063a8a98962146102ba578063c297983f146102d6578063ca15c873146102f2578063d547741f14610322578063fc818cfb1461033e5761010b565b8063745e6b611461021e5780639010d07c1461023c57806391d148541461026c578063a217fddf1461029c5761010b565b80634e0df3f6116100de5780634e0df3f6146101965780635e1fab0f146101c657806369222948146101e25780636fb7cb57146102005761010b565b8063248a9ca3146101105780632f2ff15d14610140578063318c136e1461015c57806336568abe1461017a575b600080fd5b61012a60048036038101906101259190610ce2565b61035c565b6040516101379190610ecf565b60405180910390f35b61015a60048036038101906101559190610d0b565b61037b565b005b610164610404565b6040516101719190610e99565b60405180910390f35b610194600480360381019061018f9190610d0b565b610428565b005b6101b060048036038101906101ab9190610d0b565b6104c1565b6040516101bd9190610f45565b60405180910390f35b6101e060048036038101906101db9190610cb9565b610511565b005b6101ea6105aa565b6040516101f79190610f2a565b60405180910390f35b6102086105be565b6040516102159190610e99565b60405180910390f35b6102266105e4565b6040516102339190610e99565b60405180910390f35b61025660048036038101906102519190610d47565b610608565b6040516102639190610e99565b60405180910390f35b61028660048036038101906102819190610d0b565b610639565b6040516102939190610eb4565b60405180910390f35b6102a461066a565b6040516102b19190610ecf565b60405180910390f35b6102d460048036038101906102cf9190610cb9565b610671565b005b6102f060048036038101906102eb9190610d83565b610701565b005b61030c60048036038101906103079190610ce2565b61078f565b6040516103199190610f45565b60405180910390f35b61033c60048036038101906103379190610d0b565b6107b5565b005b61034661083e565b6040516103539190610f60565b60405180910390f35b6000806000838152602001908152602001600020600201549050919050565b6103a16000808481526020019081526020016000206002015461039c610854565b610639565b6103f6576040517f08c379a000000000000000000000000000000000000000000000000000000000815260040180806020018281038252602f815260200180611092602f913960400191505060405180910390fd5b610400828261085c565b5050565b7f000000000000000000000000000000000000000000000000000000000000000081565b610430610854565b73ffffffffffffffffffffffffffffffffffffffff168173ffffffffffffffffffffffffffffffffffffffff16146104b3576040517f08c379a000000000000000000000000000000000000000000000000000000000815260040180806020018281038252602f8152602001806110f1602f913960400191505060405180910390fd5b6104bd82826108ef565b5050565b600080600084815260200190815260200160002060000160000160010160008373ffffffffffffffffffffffffffffffffffffffff1660001b815260200190815260200160002054905092915050565b600061051b610854565b90508173ffffffffffffffffffffffffffffffffffffffff168173ffffffffffffffffffffffffffffffffffffffff16141561058c576040517f08c379a000000000000000000000000000000000000000000000000000000000815260040161058390610eea565b60405180910390fd5b6105996000801b8361037b565b6105a66000801b82610428565b5050565b600160189054906101000a900461ffff1681565b600160009054906101000a900473ffffffffffffffffffffffffffffffffffffffff1681565b7f000000000000000000000000000000000000000000000000000000000000000081565b60006106318260008086815260200190815260200160002060000161098290919063ffffffff16565b905092915050565b60006106628260008086815260200190815260200160002060000161099c90919063ffffffff16565b905092915050565b6000801b81565b61067e6000801b33610639565b6106bd576040517f08c379a00000000000000000000000000000000000000000000000000000000081526004016106b490610f0a565b60405180910390fd5b80600160006101000a81548173ffffffffffffffffffffffffffffffffffffffff021916908373ffffffffffffffffffffffffffffffffffffffff16021790555050565b61070e6000801b33610639565b61074d576040517f08c379a000000000000000000000000000000000000000000000000000000000815260040161074490610f0a565b60405180910390fd5b81600160146101000a81548163ffffffff021916908363ffffffff16021790555080600160186101000a81548161ffff021916908361ffff1602179055505050565b60006107ae6000808481526020019081526020016000206000016109cc565b9050919050565b6107db600080848152602001908152602001600020600201546107d6610854565b610639565b610830576040517f08c379a00000000000000000000000000000000000000000000000000000000081526004018080602001828103825260308152602001806110c16030913960400191505060405180910390fd5b61083a82826108ef565b5050565b600160149054906101000a900463ffffffff1681565b600033905090565b610883816000808581526020019081526020016000206000016109e190919063ffffffff16565b156108eb57610890610854565b73ffffffffffffffffffffffffffffffffffffffff168173ffffffffffffffffffffffffffffffffffffffff16837f2f8788117e7eff1d82e926ec794901d17c78024a50270940304540a733656f0d60405160405180910390a45b5050565b61091681600080858152602001908152602001600020600001610a1190919063ffffffff16565b1561097e57610923610854565b73ffffffffffffffffffffffffffffffffffffffff168173ffffffffffffffffffffffffffffffffffffffff16837ff6391f5c32d9c69d2a47ea670b442974b53935d1edc7fd64eb21e047a839171b60405160405180910390a45b5050565b60006109918360000183610a41565b60001c905092915050565b60006109c4836000018373ffffffffffffffffffffffffffffffffffffffff1660001b610ac4565b905092915050565b60006109da82600001610ae7565b9050919050565b6000610a09836000018373ffffffffffffffffffffffffffffffffffffffff1660001b610af8565b905092915050565b6000610a39836000018373ffffffffffffffffffffffffffffffffffffffff1660001b610b68565b905092915050565b600081836000018054905011610aa2576040517f08c379a00000000000000000000000000000000000000000000000000000000081526004018080602001828103825260228152602001806110706022913960400191505060405180910390fd5b826000018281548110610ab157fe5b9060005260206000200154905092915050565b600080836001016000848152602001908152602001600020541415905092915050565b600081600001805490509050919050565b6000610b048383610ac4565b610b5d578260000182908060018154018082558091505060019003906000526020600020016000909190919091505582600001805490508360010160008481526020019081526020016000208190555060019050610b62565b600090505b92915050565b60008083600101600084815260200190815260200160002054905060008114610c445760006001820390506000600186600001805490500390506000866000018281548110610bb357fe5b9060005260206000200154905080876000018481548110610bd057fe5b9060005260206000200181905550600183018760010160008381526020019081526020016000208190555086600001805480610c0857fe5b60019003818190600052602060002001600090559055866001016000878152602001908152602001600020600090556001945050505050610c4a565b60009150505b92915050565b600081359050610c5f81610ffc565b92915050565b600081359050610c7481611013565b92915050565b600081359050610c898161102a565b92915050565b600081359050610c9e81611041565b92915050565b600081359050610cb381611058565b92915050565b600060208284031215610ccb57600080fd5b6000610cd984828501610c50565b91505092915050565b600060208284031215610cf457600080fd5b6000610d0284828501610c65565b91505092915050565b60008060408385031215610d1e57600080fd5b6000610d2c85828601610c65565b9250506020610d3d85828601610c50565b9150509250929050565b60008060408385031215610d5a57600080fd5b6000610d6885828601610c65565b9250506020610d7985828601610c8f565b9150509250929050565b60008060408385031215610d9657600080fd5b6000610da485828601610ca4565b9250506020610db585828601610c7a565b9150509250929050565b610dc881610f8c565b82525050565b610dd781610f9e565b82525050565b610de681610faa565b82525050565b6000610df9601783610f7b565b91507f43616e6e6f742072656e6f756e6365206f6e6573656c660000000000000000006000830152602082019050919050565b6000610e39601e83610f7b565b91507f73656e64657220646f65736e277420686176652061646d696e20726f6c6500006000830152602082019050919050565b610e7581610fb4565b82525050565b610e8481610fe2565b82525050565b610e9381610fec565b82525050565b6000602082019050610eae6000830184610dbf565b92915050565b6000602082019050610ec96000830184610dce565b92915050565b6000602082019050610ee46000830184610ddd565b92915050565b60006020820190508181036000830152610f0381610dec565b9050919050565b60006020820190508181036000830152610f2381610e2c565b9050919050565b6000602082019050610f3f6000830184610e6c565b92915050565b6000602082019050610f5a6000830184610e7b565b92915050565b6000602082019050610f756000830184610e8a565b92915050565b600082825260208201905092915050565b6000610f9782610fc2565b9050919050565b60008115159050919050565b6000819050919050565b600061ffff82169050919050565b600073ffffffffffffffffffffffffffffffffffffffff82169050919050565b6000819050919050565b600063ffffffff82169050919050565b61100581610f8c565b811461101057600080fd5b50565b61101c81610faa565b811461102757600080fd5b50565b61103381610fb4565b811461103e57600080fd5b50565b61104a81610fe2565b811461105557600080fd5b50565b61106181610fec565b811461106c57600080fd5b5056fe456e756d657261626c655365743a20696e646578206f7574206f6620626f756e6473416363657373436f6e74726f6c3a2073656e646572206d75737420626520616e2061646d696e20746f206772616e74416363657373436f6e74726f6c3a2073656e646572206d75737420626520616e2061646d696e20746f207265766f6b65416363657373436f6e74726f6c3a2063616e206f6e6c792072656e6f756e636520726f6c657320666f722073656c66a2646970667358221220f119d65a66a93dd72c8a813f3d51f9cc22aea7f158c64884e35bd7b31db978d764736f6c63430007060033",
  "linkReferences": {},
  "deployedLinkReferences": {}
}