{
  "_format": "hh-sol-artifact-1",
  "contractName": "ERC721MinterBurnerPauser",
  "sourceName": "contracts/ERC721MinterBurnerPauser.sol",
  "abi": [
    {
      "inputs": [
        {
          "internalType": "string",
          "name": "name",
          "type": "string"
        },
        {
          "internalType": "string",
          "name": "symbol",
          "type": "string"
        },
        {
          "internalType": "string",
          "name": "baseURI",
          "type": "string"
        }
      ],
      "stateMutability": "nonpayable",
      "type": "constructor"
    },
    {
      "anonymous": false,
      "inputs": [
        {
          "indexed": true,
          "internalType": "address",
          "name": "owner",
          "type": "address"
        },
        {
          "indexed": true,
          "internalType": "address",
          "name": "approved",
          "type": "address"
        },
        {
          "indexed": true,
          "internalType": "uint256",
          "name": "tokenId",
          "type": "uint256"
        }
      ],
      "name": "Approval",
      "type": "event"
    },
    {
      "anonymous": false,
      "inputs": [
        {
          "indexed": true,
          "internalType": "address",
          "name": "owner",
          "type": "address"
        },
        {
          "indexed": true,
          "internalType": "address",
          "name": "operator",
          "type": "address"
        },
        {
          "indexed": false,
          "internalType": "bool",
          "name": "approved",
          "type": "bool"
        }
      ],
      "name": "ApprovalForAll",
      "type": "event"
    },
    {
      "anonymous": false,
      "inputs": [
        {
          "indexed": false,
          "internalType": "address",
          "name": "account",
          "type": "address"
        }
      ],
      "name": "Paused",
      "type": "event"
    },
    {
      "anonymous": false,
      "inputs": [
        {
          "indexed": true,
          "internalType": "bytes32",
          "name": "role",
          "type": "bytes32"
        },
        {
          "indexed": true,
          "internalType": "address",
          "name": "account",
          "type": "address"
        },
        {
          "indexed": true,
          "internalType": "address",
          "name": "sender",
          "type": "address"
        }
      ],
      "name": "RoleGranted",
      "type": "event"
    },
    {
      "anonymous": false,
      "inputs": [
        {
          "indexed": true,
          "internalType": "bytes32",
          "name": "role",
          "type": "bytes32"
        },
        {
          "indexed": true,
          "internalType": "address",
          "name": "account",
          "type": "address"
        },
        {
          "indexed": true,
          "internalType": "address",
          "name": "sender",
          "type": "address"
        }
      ],
      "name": "RoleRevoked",
      "type": "event"
    },
    {
      "anonymous": false,
      "inputs": [
        {
          "indexed": true,
          "internalType": "address",
          "name": "from",
          "type": "address"
        },
        {
          "indexed": true,
          "internalType": "address",
          "name": "to",
          "type": "address"
        },
        {
          "indexed": true,
          "internalType": "uint256",
          "name": "tokenId",
          "type": "uint256"
        }
      ],
      "name": "Transfer",
      "type": "event"
    },
    {
      "anonymous": false,
      "inputs": [
        {
          "indexed": false,
          "internalType": "address",
          "name": "account",
          "type": "address"
        }
      ],
      "name": "Unpaused",
      "type": "event"
    },
    {
      "inputs": [],
      "name": "DEFAULT_ADMIN_ROLE",
      "outputs": [
        {
          "internalType": "bytes32",
          "name": "",
          "type": "bytes32"
        }
      ],
      "stateMutability": "view",
      "type": "function"
    },
    {
      "inputs": [],
      "name": "MINTER_ROLE",
      "outputs": [
        {
          "internalType": "bytes32",
          "name": "",
          "type": "bytes32"
        }
      ],
      "stateMutability": "view",
      "type": "function"
    },
    {
      "inputs": [],
      "name": "PAUSER_ROLE",
      "outputs": [
        {
          "internalType": "bytes32",
          "name": "",
          "type": "bytes32"
        }
      ],
      "stateMutability": "view",
      "type": "function"
    },
    {
      "inputs": [
        {
          "internalType": "address",
          "name": "to",
          "type": "address"
        },
        {
          "internalType": "uint256",
          "name": "tokenId",
          "type": "uint256"
        }
      ],
      "name": "approve",
      "outputs": [],
      "stateMutability": "nonpayable",
      "type": "function"
    },
    {
      "inputs": [
        {
          "internalType": "address",
          "name": "owner",
          "type": "address"
        }
      ],
      "name": "balanceOf",
      "outputs": [
        {
          "internalType": "uint256",
          "name": "",
          "type": "uint256"
        }
      ],
      "stateMutability": "view",
      "type": "function"
    },
    {
      "inputs": [],
      "name": "baseURI",
      "outputs": [
        {
          "internalType": "string",
          "name": "",
          "type": "string"
        }
      ],
      "stateMutability": "view",
      "type": "function"
    },
    {
      "inputs": [
        {
          "internalType": "uint256",
          "name": "tokenId",
          "type": "uint256"
        }
      ],
      "name": "burn",
      "outputs": [],
      "stateMutability": "nonpayable",
      "type": "function"
    },
    {
      "inputs": [
        {
          "internalType": "uint256",
          "name": "tokenId",
          "type": "uint256"
        }
      ],
      "name": "getApproved",
      "outputs": [
        {
          "internalType": "address",
          "name": "",
          "type": "address"
        }
      ],
      "stateMutability": "view",
      "type": "function"
    },
    {
      "inputs": [
        {
          "internalType": "bytes32",
          "name": "role",
          "type": "bytes32"
        }
      ],
      "name": "getRoleAdmin",
      "outputs": [
        {
          "internalType": "bytes32",
          "name": "",
          "type": "bytes32"
        }
      ],
      "stateMutability": "view",
      "type": "function"
    },
    {
      "inputs": [
        {
          "internalType": "bytes32",
          "name": "role",
          "type": "bytes32"
        },
        {
          "internalType": "uint256",
          "name": "index",
          "type": "uint256"
        }
      ],
      "name": "getRoleMember",
      "outputs": [
        {
          "internalType": "address",
          "name": "",
          "type": "address"
        }
      ],
      "stateMutability": "view",
      "type": "function"
    },
    {
      "inputs": [
        {
          "internalType": "bytes32",
          "name": "role",
          "type": "bytes32"
        }
      ],
      "name": "getRoleMemberCount",
      "outputs": [
        {
          "internalType": "uint256",
          "name": "",
          "type": "uint256"
        }
      ],
      "stateMutability": "view",
      "type": "function"
    },
    {
      "inputs": [
        {
          "internalType": "bytes32",
          "name": "role",
          "type": "bytes32"
        },
        {
          "internalType": "address",
          "name": "account",
          "type": "address"
        }
      ],
      "name": "getRoleMemberIndex",
      "outputs": [
        {
          "internalType": "uint256",
          "name": "",
          "type": "uint256"
        }
      ],
      "stateMutability": "view",
      "type": "function"
    },
    {
      "inputs": [
        {
          "internalType": "bytes32",
          "name": "role",
          "type": "bytes32"
        },
        {
          "internalType": "address",
          "name": "account",
          "type": "address"
        }
      ],
      "name": "grantRole",
      "outputs": [],
      "stateMutability": "nonpayable",
      "type": "function"
    },
    {
      "inputs": [
        {
          "internalType": "bytes32",
          "name": "role",
          "type": "bytes32"
        },
        {
          "internalType": "address",
          "name": "account",
          "type": "address"
        }
      ],
      "name": "hasRole",
      "outputs": [
        {
          "internalType": "bool",
          "name": "",
          "type": "bool"
        }
      ],
      "stateMutability": "view",
      "type": "function"
    },
    {
      "inputs": [
        {
          "internalType": "address",
          "name": "owner",
          "type": "address"
        },
        {
          "internalType": "address",
          "name": "operator",
          "type": "address"
        }
      ],
      "name": "isApprovedForAll",
      "outputs": [
        {
          "internalType": "bool",
          "name": "",
          "type": "bool"
        }
      ],
      "stateMutability": "view",
      "type": "function"
    },
    {
      "inputs": [
        {
          "internalType": "address",
          "name": "to",
          "type": "address"
        },
        {
          "internalType": "uint256",
          "name": "tokenId",
          "type": "uint256"
        },
        {
          "internalType": "string",
          "name": "_data",
          "type": "string"
        }
      ],
      "name": "mint",
      "outputs": [],
      "stateMutability": "nonpayable",
      "type": "function"
    },
    {
      "inputs": [],
      "name": "name",
      "outputs": [
        {
          "internalType": "string",
          "name": "",
          "type": "string"
        }
      ],
      "stateMutability": "view",
      "type": "function"
    },
    {
      "inputs": [
        {
          "internalType": "uint256",
          "name": "tokenId",
          "type": "uint256"
        }
      ],
      "name": "ownerOf",
      "outputs": [
        {
          "internalType": "address",
          "name": "",
          "type": "address"
        }
      ],
      "stateMutability": "view",
      "type": "function"
    },
    {
      "inputs": [],
      "name": "pause",
      "outputs": [],
      "stateMutability": "nonpayable",
      "type": "function"
    },
    {
      "inputs": [],
      "name": "paused",
      "outputs": [
        {
          "internalType": "bool",
          "name": "",
          "type": "bool"
        }
      ],
      "stateMutability": "view",
      "type": "function"
    },
    {
      "inputs": [
        {
          "internalType": "bytes32",
          "name": "role",
          "type": "bytes32"
        },
        {
          "internalType": "address",
          "name": "account",
          "type": "address"
        }
      ],
      "name": "renounceRole",
      "outputs": [],
      "stateMutability": "nonpayable",
      "type": "function"
    },
    {
      "inputs": [
        {
          "internalType": "bytes32",
          "name": "role",
          "type": "bytes32"
        },
        {
          "internalType": "address",
          "name": "account",
          "type": "address"
        }
      ],
      "name": "revokeRole",
      "outputs": [],
      "stateMutability": "nonpayable",
      "type": "function"
    },
    {
      "inputs": [
        {
          "internalType": "address",
          "name": "from",
          "type": "address"
        },
        {
          "internalType": "address",
          "name": "to",
          "type": "address"
        },
        {
          "internalType": "uint256",
          "name": "tokenId",
          "type": "uint256"
        }
      ],
      "name": "safeTransferFrom",
      "outputs": [],
      "stateMutability": "nonpayable",
      "type": "function"
    },
    {
      "inputs": [
        {
          "internalType": "address",
          "name": "from",
          "type": "address"
        },
        {
          "internalType": "address",
          "name": "to",
          "type": "address"
        },
        {
          "internalType": "uint256",
          "name": "tokenId",
          "type": "uint256"
        },
        {
          "internalType": "bytes",
          "name": "_data",
          "type": "bytes"
        }
      ],
      "name": "safeTransferFrom",
      "outputs": [],
      "stateMutability": "nonpayable",
      "type": "function"
    },
    {
      "inputs": [
        {
          "internalType": "address",
          "name": "operator",
          "type": "address"
        },
        {
          "internalType": "bool",
          "name": "approved",
          "type": "bool"
        }
      ],
      "name": "setApprovalForAll",
      "outputs": [],
      "stateMutability": "nonpayable",
      "type": "function"
    },
    {
      "inputs": [
        {
          "internalType": "address",
          "name": "mintAddress",
          "type": "address"
        }
      ],
      "name": "setMinterRole",
      "outputs": [],
      "stateMutability": "nonpayable",
      "type": "function"
    },
    {
      "inputs": [
        {
          "internalType": "bytes4",
          "name": "interfaceId",
          "type": "bytes4"
        }
      ],
      "name": "supportsInterface",
      "outputs": [
        {
          "internalType": "bool",
          "name": "",
          "type": "bool"
        }
      ],
      "stateMutability": "view",
      "type": "function"
    },
    {
      "inputs": [],
      "name": "symbol",
      "outputs": [
        {
          "internalType": "string",
          "name": "",
          "type": "string"
        }
      ],
      "stateMutability": "view",
      "type": "function"
    },
    {
      "inputs": [
        {
          "internalType": "uint256",
          "name": "index",
          "type": "uint256"
        }
      ],
      "name": "tokenByIndex",
      "outputs": [
        {
          "internalType": "uint256",
          "name": "",
          "type": "uint256"
        }
      ],
      "stateMutability": "view",
      "type": "function"
    },
    {
      "inputs": [
        {
          "internalType": "address",
          "name": "owner",
          "type": "address"
        },
        {
          "internalType": "uint256",
          "name": "index",
          "type": "uint256"
        }
      ],
      "name": "tokenOfOwnerByIndex",
      "outputs": [
        {
          "internalType": "uint256",
          "name": "",
          "type": "uint256"
        }
      ],
      "stateMutability": "view",
      "type": "function"
    },
    {
      "inputs": [
        {
          "internalType": "uint256",
          "name": "tokenId",
          "type": "uint256"
        }
      ],
      "name": "tokenURI",
      "outputs": [
        {
          "internalType": "string",
          "name": "",
          "type": "string"
        }
      ],
      "stateMutability": "view",
      "type": "function"
    },
    {
      "inputs": [],
      "name": "totalSupply",
      "outputs": [
        {
          "internalType": "uint256",
          "name": "",
          "type": "uint256"
        }
      ],
      "stateMutability": "view",
      "type": "function"
    },
    {
      "inputs": [
        {
          "internalType": "address",
          "name": "from",
          "type": "address"
        },
        {
          "internalType": "address",
          "name": "to",
          "type": "address"
        },
        {
          "internalType": "uint256",
          "name": "tokenId",
          "type": "uint256"
        }
      ],
      "name": "transferFrom",
      "outputs": [],
      "stateMutability": "nonpayable",
      "type": "function"
    },
    {
      "inputs": [],
      "name": "unpause",
      "outputs": [],
      "stateMutability": "nonpayable",
      "type": "function"
    }
  ],
  "bytecode": "0x60806040523480156200001157600080fd5b50604051620045ab380380620045ab833981810160405260608110156200003757600080fd5b81019080805160405193929190846401000000008211156200005857600080fd5b838201915060208201858111156200006f57600080fd5b82518660018202830111640100000000821117156200008d57600080fd5b8083526020830192505050908051906020019080838360005b83811015620000c3578082015181840152602081019050620000a6565b50505050905090810190601f168015620000f15780820380516001836020036101000a031916815260200191505b50604052602001805160405193929190846401000000008211156200011557600080fd5b838201915060208201858111156200012c57600080fd5b82518660018202830111640100000000821117156200014a57600080fd5b8083526020830192505050908051906020019080838360005b838110156200018057808201518184015260208101905062000163565b50505050905090810190601f168015620001ae5780820380516001836020036101000a031916815260200191505b5060405260200180516040519392919084640100000000821115620001d257600080fd5b83820191506020820185811115620001e957600080fd5b82518660018202830111640100000000821117156200020757600080fd5b8083526020830192505050908051906020019080838360005b838110156200023d57808201518184015260208101905062000220565b50505050905090810190601f1680156200026b5780820380516001836020036101000a031916815260200191505b5060405250505082826200028c6301ffc9a760e01b620003eb60201b60201c565b8160079080519060200190620002a49291906200068a565b508060089080519060200190620002bd9291906200068a565b50620002d66380ac58cd60e01b620003eb60201b60201c565b620002ee635b5e139f60e01b620003eb60201b60201c565b6200030663780e9d6360e01b620003eb60201b60201c565b50506000600b60006101000a81548160ff02191690831515021790555080600c90805190602001906200033b9291906200068a565b50620003606000801b62000354620004f460201b60201c565b620004fc60201b60201c565b620003a17f9f2df0fed2c77648de5860a4cc508cd0818c85b8b8a1ab4ceeef8d981c8956a662000395620004f460201b60201c565b620004fc60201b60201c565b620003e27f65d7a28e3265b37a6474929f336521b332c1681b933f6cb9f3376673440d862a620003d6620004f460201b60201c565b620004fc60201b60201c565b50505062000740565b63ffffffff60e01b817bffffffffffffffffffffffffffffffffffffffffffffffffffffffff1916141562000488576040517f08c379a000000000000000000000000000000000000000000000000000000000815260040180806020018281038252601c8152602001807f4552433136353a20696e76616c696420696e746572666163652069640000000081525060200191505060405180910390fd5b6001806000837bffffffffffffffffffffffffffffffffffffffffffffffffffffffff19167bffffffffffffffffffffffffffffffffffffffffffffffffffffffff1916815260200190815260200160002060006101000a81548160ff02191690831515021790555050565b600033905090565b6200050e82826200051260201b60201c565b5050565b6200054081600080858152602001908152602001600020600001620005b560201b62001fb41790919060201c565b15620005b15762000556620004f460201b60201c565b73ffffffffffffffffffffffffffffffffffffffff168173ffffffffffffffffffffffffffffffffffffffff16837f2f8788117e7eff1d82e926ec794901d17c78024a50270940304540a733656f0d60405160405180910390a45b5050565b6000620005e5836000018373ffffffffffffffffffffffffffffffffffffffff1660001b620005ed60201b60201c565b905092915050565b60006200060183836200066760201b60201c565b6200065c57826000018290806001815401808255809150506001900390600052602060002001600090919091909150558260000180549050836001016000848152602001908152602001600020819055506001905062000661565b600090505b92915050565b600080836001016000848152602001908152602001600020541415905092915050565b828054600181600116156101000203166002900490600052602060002090601f016020900481019282620006c257600085556200070e565b82601f10620006dd57805160ff19168380011785556200070e565b828001600101855582156200070e579182015b828111156200070d578251825591602001919060010190620006f0565b5b5090506200071d919062000721565b5090565b5b808211156200073c57600081600090555060010162000722565b5090565b613e5b80620007506000396000f3fe608060405234801561001057600080fd5b50600436106102065760003560e01c80636c0360eb1161011a578063a22cb465116100ad578063d3fc98641161007c578063d3fc986414610bf3578063d539139314610cd8578063d547741f14610cf6578063e63ab1e914610d44578063e985e9c514610d6257610206565b8063a22cb465146109b5578063b88d4fde14610a05578063c87b56dd14610b0a578063ca15c87314610bb157610206565b806391d14854116100e957806391d148541461086c578063945d1229146108d057806395d89b4114610914578063a217fddf1461099757610206565b80636c0360eb1461072557806370a08231146107a85780638456cb59146108005780639010d07c1461080a57610206565b80632f745c591161019d57806342966c681161016c57806342966c68146105db5780634e0df3f6146106095780634f6ccce71461066b5780635c975abb146106ad5780636352211e146106cd57610206565b80632f745c59146104b357806336568abe146105155780633f4ba83a1461056357806342842e0e1461056d57610206565b806318160ddd116101d957806318160ddd1461039757806323b872dd146103b5578063248a9ca3146104235780632f2ff15d1461046557610206565b806301ffc9a71461020b57806306fdde031461026e578063081812fc146102f1578063095ea7b314610349575b600080fd5b6102566004803603602081101561022157600080fd5b8101908080357bffffffffffffffffffffffffffffffffffffffffffffffffffffffff19169060200190929190505050610ddc565b60405180821515815260200191505060405180910390f35b610276610e44565b6040518080602001828103825283818151815260200191508051906020019080838360005b838110156102b657808201518184015260208101905061029b565b50505050905090810190601f1680156102e35780820380516001836020036101000a031916815260200191505b509250505060405180910390f35b61031d6004803603602081101561030757600080fd5b8101908080359060200190929190505050610ee6565b604051808273ffffffffffffffffffffffffffffffffffffffff16815260200191505060405180910390f35b6103956004803603604081101561035f57600080fd5b81019080803573ffffffffffffffffffffffffffffffffffffffff16906020019092919080359060200190929190505050610f81565b005b61039f6110c5565b6040518082815260200191505060405180910390f35b610421600480360360608110156103cb57600080fd5b81019080803573ffffffffffffffffffffffffffffffffffffffff169060200190929190803573ffffffffffffffffffffffffffffffffffffffff169060200190929190803590602001909291905050506110d6565b005b61044f6004803603602081101561043957600080fd5b810190808035906020019092919050505061114c565b6040518082815260200191505060405180910390f35b6104b16004803603604081101561047b57600080fd5b8101908080359060200190929190803573ffffffffffffffffffffffffffffffffffffffff16906020019092919050505061116b565b005b6104ff600480360360408110156104c957600080fd5b81019080803573ffffffffffffffffffffffffffffffffffffffff169060200190929190803590602001909291905050506111f4565b6040518082815260200191505060405180910390f35b6105616004803603604081101561052b57600080fd5b8101908080359060200190929190803573ffffffffffffffffffffffffffffffffffffffff16906020019092919050505061124f565b005b61056b6112e8565b005b6105d96004803603606081101561058357600080fd5b81019080803573ffffffffffffffffffffffffffffffffffffffff169060200190929190803573ffffffffffffffffffffffffffffffffffffffff16906020019092919080359060200190929190505050611378565b005b610607600480360360208110156105f157600080fd5b8101908080359060200190929190505050611398565b005b6106556004803603604081101561061f57600080fd5b8101908080359060200190929190803573ffffffffffffffffffffffffffffffffffffffff16906020019092919050505061140a565b6040518082815260200191505060405180910390f35b6106976004803603602081101561068157600080fd5b810190808035906020019092919050505061145a565b6040518082815260200191505060405180910390f35b6106b561147d565b60405180821515815260200191505060405180910390f35b6106f9600480360360208110156106e357600080fd5b8101908080359060200190929190505050611494565b604051808273ffffffffffffffffffffffffffffffffffffffff16815260200191505060405180910390f35b61072d6114cb565b6040518080602001828103825283818151815260200191508051906020019080838360005b8381101561076d578082015181840152602081019050610752565b50505050905090810190601f16801561079a5780820380516001836020036101000a031916815260200191505b509250505060405180910390f35b6107ea600480360360208110156107be57600080fd5b81019080803573ffffffffffffffffffffffffffffffffffffffff16906020019092919050505061156d565b6040518082815260200191505060405180910390f35b610808611642565b005b6108406004803603604081101561082057600080fd5b8101908080359060200190929190803590602001909291905050506116d2565b604051808273ffffffffffffffffffffffffffffffffffffffff16815260200191505060405180910390f35b6108b86004803603604081101561088257600080fd5b8101908080359060200190929190803573ffffffffffffffffffffffffffffffffffffffff169060200190929190505050611703565b60405180821515815260200191505060405180910390f35b610912600480360360208110156108e657600080fd5b81019080803573ffffffffffffffffffffffffffffffffffffffff169060200190929190505050611734565b005b61091c6117ca565b6040518080602001828103825283818151815260200191508051906020019080838360005b8381101561095c578082015181840152602081019050610941565b50505050905090810190601f1680156109895780820380516001836020036101000a031916815260200191505b509250505060405180910390f35b61099f61186c565b6040518082815260200191505060405180910390f35b610a03600480360360408110156109cb57600080fd5b81019080803573ffffffffffffffffffffffffffffffffffffffff169060200190929190803515159060200190929190505050611873565b005b610b0860048036036080811015610a1b57600080fd5b81019080803573ffffffffffffffffffffffffffffffffffffffff169060200190929190803573ffffffffffffffffffffffffffffffffffffffff1690602001909291908035906020019092919080359060200190640100000000811115610a8257600080fd5b820183602082011115610a9457600080fd5b80359060200191846001830284011164010000000083111715610ab657600080fd5b91908080601f016020809104026020016040519081016040528093929190818152602001838380828437600081840152601f19601f820116905080830192505050505050509192919290505050611a29565b005b610b3660048036036020811015610b2057600080fd5b8101908080359060200190929190505050611aa1565b6040518080602001828103825283818151815260200191508051906020019080838360005b83811015610b76578082015181840152602081019050610b5b565b50505050905090810190601f168015610ba35780820380516001836020036101000a031916815260200191505b509250505060405180910390f35b610bdd60048036036020811015610bc757600080fd5b8101908080359060200190929190505050611d8a565b6040518082815260200191505060405180910390f35b610cd660048036036060811015610c0957600080fd5b81019080803573ffffffffffffffffffffffffffffffffffffffff1690602001909291908035906020019092919080359060200190640100000000811115610c5057600080fd5b820183602082011115610c6257600080fd5b80359060200191846001830284011164010000000083111715610c8457600080fd5b91908080601f016020809104026020016040519081016040528093929190818152602001838380828437600081840152601f19601f820116905080830192505050505050509192919290505050611db0565b005b610ce0611e4f565b6040518082815260200191505060405180910390f35b610d4260048036036040811015610d0c57600080fd5b8101908080359060200190929190803573ffffffffffffffffffffffffffffffffffffffff169060200190929190505050611e73565b005b610d4c611efc565b6040518082815260200191505060405180910390f35b610dc460048036036040811015610d7857600080fd5b81019080803573ffffffffffffffffffffffffffffffffffffffff169060200190929190803573ffffffffffffffffffffffffffffffffffffffff169060200190929190505050611f20565b60405180821515815260200191505060405180910390f35b600060016000837bffffffffffffffffffffffffffffffffffffffffffffffffffffffff19167bffffffffffffffffffffffffffffffffffffffffffffffffffffffff1916815260200190815260200160002060009054906101000a900460ff169050919050565b606060078054600181600116156101000203166002900480601f016020809104026020016040519081016040528092919081815260200182805460018160011615610100020316600290048015610edc5780601f10610eb157610100808354040283529160200191610edc565b820191906000526020600020905b815481529060010190602001808311610ebf57829003601f168201915b5050505050905090565b6000610ef182611fe4565b610f46576040517f08c379a000000000000000000000000000000000000000000000000000000000815260040180806020018281038252602c815260200180613c8e602c913960400191505060405180910390fd5b6005600083815260200190815260200160002060009054906101000a900473ffffffffffffffffffffffffffffffffffffffff169050919050565b6000610f8c82611494565b90508073ffffffffffffffffffffffffffffffffffffffff168373ffffffffffffffffffffffffffffffffffffffff161415611013576040517f08c379a0000000000000000000000000000000000000000000000000000000008152600401808060200182810382526021815260200180613d3e6021913960400191505060405180910390fd5b8073ffffffffffffffffffffffffffffffffffffffff16611032612001565b73ffffffffffffffffffffffffffffffffffffffff16148061106157506110608161105b612001565b611f20565b5b6110b6576040517f08c379a0000000000000000000000000000000000000000000000000000000008152600401808060200182810382526038815260200180613be16038913960400191505060405180910390fd5b6110c08383612009565b505050565b60006110d160036120c2565b905090565b6110e76110e1612001565b826120d7565b61113c576040517f08c379a0000000000000000000000000000000000000000000000000000000008152600401808060200182810382526031815260200180613d5f6031913960400191505060405180910390fd5b6111478383836121cb565b505050565b6000806000838152602001908152602001600020600201549050919050565b6111916000808481526020019081526020016000206002015461118c612001565b611703565b6111e6576040517f08c379a000000000000000000000000000000000000000000000000000000000815260040180806020018281038252602f815260200180613a58602f913960400191505060405180910390fd5b6111f0828261240e565b5050565b600061124782600260008673ffffffffffffffffffffffffffffffffffffffff1673ffffffffffffffffffffffffffffffffffffffff1681526020019081526020016000206124a190919063ffffffff16565b905092915050565b611257612001565b73ffffffffffffffffffffffffffffffffffffffff168173ffffffffffffffffffffffffffffffffffffffff16146112da576040517f08c379a000000000000000000000000000000000000000000000000000000000815260040180806020018281038252602f815260200180613dc0602f913960400191505060405180910390fd5b6112e482826124bb565b5050565b6113197f65d7a28e3265b37a6474929f336521b332c1681b933f6cb9f3376673440d862a611314612001565b611703565b61136e576040517f08c379a000000000000000000000000000000000000000000000000000000000815260040180806020018281038252603a815260200180613b77603a913960400191505060405180910390fd5b61137661254e565b565b61139383838360405180602001604052806000815250611a29565b505050565b6113a96113a3612001565b826120d7565b6113fe576040517f08c379a0000000000000000000000000000000000000000000000000000000008152600401808060200182810382526030815260200180613d906030913960400191505060405180910390fd5b61140781612641565b50565b600080600084815260200190815260200160002060000160000160010160008373ffffffffffffffffffffffffffffffffffffffff1660001b815260200190815260200160002054905092915050565b60008061147183600361264d90919063ffffffff16565b50905080915050919050565b6000600b60009054906101000a900460ff16905090565b60006114c482604051806060016040528060298152602001613c436029913960036126799092919063ffffffff16565b9050919050565b6060600a8054600181600116156101000203166002900480601f0160208091040260200160405190810160405280929190818152602001828054600181600116156101000203166002900480156115635780601f1061153857610100808354040283529160200191611563565b820191906000526020600020905b81548152906001019060200180831161154657829003601f168201915b5050505050905090565b60008073ffffffffffffffffffffffffffffffffffffffff168273ffffffffffffffffffffffffffffffffffffffff1614156115f4576040517f08c379a000000000000000000000000000000000000000000000000000000000815260040180806020018281038252602a815260200180613c19602a913960400191505060405180910390fd5b61163b600260008473ffffffffffffffffffffffffffffffffffffffff1673ffffffffffffffffffffffffffffffffffffffff168152602001908152602001600020612698565b9050919050565b6116737f65d7a28e3265b37a6474929f336521b332c1681b933f6cb9f3376673440d862a61166e612001565b611703565b6116c8576040517f08c379a0000000000000000000000000000000000000000000000000000000008152600401808060200182810382526038815260200180613b3f6038913960400191505060405180910390fd5b6116d06126ad565b565b60006116fb826000808681526020019081526020016000206000016127a190919063ffffffff16565b905092915050565b600061172c826000808681526020019081526020016000206000016127bb90919063ffffffff16565b905092915050565b6117486000801b611743612001565b611703565b61179d576040517f08c379a0000000000000000000000000000000000000000000000000000000008152600401808060200182810382526036815260200180613ab96036913960400191505060405180910390fd5b6117c77f9f2df0fed2c77648de5860a4cc508cd0818c85b8b8a1ab4ceeef8d981c8956a6826127eb565b50565b606060088054600181600116156101000203166002900480601f0160208091040260200160405190810160405280929190818152602001828054600181600116156101000203166002900480156118625780601f1061183757610100808354040283529160200191611862565b820191906000526020600020905b81548152906001019060200180831161184557829003601f168201915b5050505050905090565b6000801b81565b61187b612001565b73ffffffffffffffffffffffffffffffffffffffff168273ffffffffffffffffffffffffffffffffffffffff16141561191c576040517f08c379a00000000000000000000000000000000000000000000000000000000081526004018080602001828103825260198152602001807f4552433732313a20617070726f766520746f2063616c6c65720000000000000081525060200191505060405180910390fd5b8060066000611929612001565b73ffffffffffffffffffffffffffffffffffffffff1673ffffffffffffffffffffffffffffffffffffffff16815260200190815260200160002060008473ffffffffffffffffffffffffffffffffffffffff1673ffffffffffffffffffffffffffffffffffffffff16815260200190815260200160002060006101000a81548160ff0219169083151502179055508173ffffffffffffffffffffffffffffffffffffffff166119d6612001565b73ffffffffffffffffffffffffffffffffffffffff167f17307eab39ab6107e8899845ad3d59bd9653f200f220920489ca2b5937696c318360405180821515815260200191505060405180910390a35050565b611a3a611a34612001565b836120d7565b611a8f576040517f08c379a0000000000000000000000000000000000000000000000000000000008152600401808060200182810382526031815260200180613d5f6031913960400191505060405180910390fd5b611a9b848484846127f9565b50505050565b6060611aac82611fe4565b611b01576040517f08c379a000000000000000000000000000000000000000000000000000000000815260040180806020018281038252602f815260200180613d0f602f913960400191505060405180910390fd5b6000600960008481526020019081526020016000208054600181600116156101000203166002900480601f016020809104026020016040519081016040528092919081815260200182805460018160011615610100020316600290048015611baa5780601f10611b7f57610100808354040283529160200191611baa565b820191906000526020600020905b815481529060010190602001808311611b8d57829003601f168201915b505050505090506000600a8054600181600116156101000203166002900490501415611bd95780915050611d85565b600081511115611cb257600a816040516020018083805460018160011615610100020316600290048015611c445780601f10611c22576101008083540402835291820191611c44565b820191906000526020600020905b815481529060010190602001808311611c30575b505082805190602001908083835b60208310611c755780518252602082019150602081019050602083039250611c52565b6001836020036101000a03801982511681845116808217855250505050505090500192505050604051602081830303815290604052915050611d85565b600a611cbd8461286b565b6040516020018083805460018160011615610100020316600290048015611d1b5780601f10611cf9576101008083540402835291820191611d1b565b820191906000526020600020905b815481529060010190602001808311611d07575b505082805190602001908083835b60208310611d4c5780518252602082019150602081019050602083039250611d29565b6001836020036101000a038019825116818451168082178552505050505050905001925050506040516020818303038152906040529150505b919050565b6000611da96000808481526020019081526020016000206000016129b2565b9050919050565b611de17f9f2df0fed2c77648de5860a4cc508cd0818c85b8b8a1ab4ceeef8d981c8956a6611ddc612001565b611703565b611e36576040517f08c379a0000000000000000000000000000000000000000000000000000000008152600401808060200182810382526037815260200180613def6037913960400191505060405180910390fd5b611e4083836129c7565b611e4a8282612bbb565b505050565b7f9f2df0fed2c77648de5860a4cc508cd0818c85b8b8a1ab4ceeef8d981c8956a681565b611e9960008084815260200190815260200160002060020154611e94612001565b611703565b611eee576040517f08c379a0000000000000000000000000000000000000000000000000000000008152600401808060200182810382526030815260200180613bb16030913960400191505060405180910390fd5b611ef882826124bb565b5050565b7f65d7a28e3265b37a6474929f336521b332c1681b933f6cb9f3376673440d862a81565b6000600660008473ffffffffffffffffffffffffffffffffffffffff1673ffffffffffffffffffffffffffffffffffffffff16815260200190815260200160002060008373ffffffffffffffffffffffffffffffffffffffff1673ffffffffffffffffffffffffffffffffffffffff16815260200190815260200160002060009054906101000a900460ff16905092915050565b6000611fdc836000018373ffffffffffffffffffffffffffffffffffffffff1660001b612c45565b905092915050565b6000611ffa826003612cb590919063ffffffff16565b9050919050565b600033905090565b816005600083815260200190815260200160002060006101000a81548173ffffffffffffffffffffffffffffffffffffffff021916908373ffffffffffffffffffffffffffffffffffffffff160217905550808273ffffffffffffffffffffffffffffffffffffffff1661207c83611494565b73ffffffffffffffffffffffffffffffffffffffff167f8c5be1e5ebec7d5bd14f71427d1e84f3dd0314c0f7b2291e5b200ac8c7c3b92560405160405180910390a45050565b60006120d082600001612ccf565b9050919050565b60006120e282611fe4565b612137576040517f08c379a000000000000000000000000000000000000000000000000000000000815260040180806020018281038252602c815260200180613b13602c913960400191505060405180910390fd5b600061214283611494565b90508073ffffffffffffffffffffffffffffffffffffffff168473ffffffffffffffffffffffffffffffffffffffff1614806121b157508373ffffffffffffffffffffffffffffffffffffffff1661219984610ee6565b73ffffffffffffffffffffffffffffffffffffffff16145b806121c257506121c18185611f20565b5b91505092915050565b8273ffffffffffffffffffffffffffffffffffffffff166121eb82611494565b73ffffffffffffffffffffffffffffffffffffffff1614612257576040517f08c379a0000000000000000000000000000000000000000000000000000000008152600401808060200182810382526029815260200180613ce66029913960400191505060405180910390fd5b600073ffffffffffffffffffffffffffffffffffffffff168273ffffffffffffffffffffffffffffffffffffffff1614156122dd576040517f08c379a0000000000000000000000000000000000000000000000000000000008152600401808060200182810382526024815260200180613aef6024913960400191505060405180910390fd5b6122e8838383612ce0565b6122f3600082612009565b61234481600260008673ffffffffffffffffffffffffffffffffffffffff1673ffffffffffffffffffffffffffffffffffffffff168152602001908152602001600020612cf090919063ffffffff16565b5061239681600260008573ffffffffffffffffffffffffffffffffffffffff1673ffffffffffffffffffffffffffffffffffffffff168152602001908152602001600020612d0a90919063ffffffff16565b506123ad81836003612d249092919063ffffffff16565b50808273ffffffffffffffffffffffffffffffffffffffff168473ffffffffffffffffffffffffffffffffffffffff167fddf252ad1be2c89b69c2b068fc378daa952ba7f163c4a11628f55a4df523b3ef60405160405180910390a4505050565b61243581600080858152602001908152602001600020600001611fb490919063ffffffff16565b1561249d57612442612001565b73ffffffffffffffffffffffffffffffffffffffff168173ffffffffffffffffffffffffffffffffffffffff16837f2f8788117e7eff1d82e926ec794901d17c78024a50270940304540a733656f0d60405160405180910390a45b5050565b60006124b08360000183612d59565b60001c905092915050565b6124e281600080858152602001908152602001600020600001612ddc90919063ffffffff16565b1561254a576124ef612001565b73ffffffffffffffffffffffffffffffffffffffff168173ffffffffffffffffffffffffffffffffffffffff16837ff6391f5c32d9c69d2a47ea670b442974b53935d1edc7fd64eb21e047a839171b60405160405180910390a45b5050565b600b60009054906101000a900460ff166125d0576040517f08c379a00000000000000000000000000000000000000000000000000000000081526004018080602001828103825260148152602001807f5061757361626c653a206e6f742070617573656400000000000000000000000081525060200191505060405180910390fd5b6000600b60006101000a81548160ff0219169083151502179055507f5db9ee0a495bf2e6ff9c91a7834c1ba4fdd244a5e8aa4e537bd38aeae4b073aa612614612001565b604051808273ffffffffffffffffffffffffffffffffffffffff16815260200191505060405180910390a1565b61264a81612e0c565b50565b6000806000806126608660000186612f46565b915091508160001c8160001c9350935050509250929050565b600061268c846000018460001b84612fdf565b60001c90509392505050565b60006126a6826000016130d5565b9050919050565b600b60009054906101000a900460ff1615612730576040517f08c379a00000000000000000000000000000000000000000000000000000000081526004018080602001828103825260108152602001807f5061757361626c653a207061757365640000000000000000000000000000000081525060200191505060405180910390fd5b6001600b60006101000a81548160ff0219169083151502179055507f62e78cea01bee320cd4e420270b5ea74000d11b0c9f74754ebdbfc544b05a258612774612001565b604051808273ffffffffffffffffffffffffffffffffffffffff16815260200191505060405180910390a1565b60006127b08360000183612d59565b60001c905092915050565b60006127e3836000018373ffffffffffffffffffffffffffffffffffffffff1660001b6130e6565b905092915050565b6127f5828261240e565b5050565b6128048484846121cb565b61281084848484613109565b612865576040517f08c379a0000000000000000000000000000000000000000000000000000000008152600401808060200182810382526032815260200180613a876032913960400191505060405180910390fd5b50505050565b606060008214156128b3576040518060400160405280600181526020017f300000000000000000000000000000000000000000000000000000000000000081525090506129ad565b600082905060005b600082146128dd578080600101915050600a82816128d557fe5b0491506128bb565b60008167ffffffffffffffff811180156128f657600080fd5b506040519080825280601f01601f1916602001820160405280156129295781602001600182028036833780820191505090505b50905060006001830390508593505b600084146129a557600a848161294a57fe5b0660300160f81b8282806001900393508151811061296457fe5b60200101907effffffffffffffffffffffffffffffffffffffffffffffffffffffffffffff1916908160001a905350600a848161299d57fe5b049350612938565b819450505050505b919050565b60006129c0826000016130d5565b9050919050565b600073ffffffffffffffffffffffffffffffffffffffff168273ffffffffffffffffffffffffffffffffffffffff161415612a6a576040517f08c379a00000000000000000000000000000000000000000000000000000000081526004018080602001828103825260208152602001807f4552433732313a206d696e7420746f20746865207a65726f206164647265737381525060200191505060405180910390fd5b612a7381611fe4565b15612ae6576040517f08c379a000000000000000000000000000000000000000000000000000000000815260040180806020018281038252601c8152602001807f4552433732313a20746f6b656e20616c7265616479206d696e7465640000000081525060200191505060405180910390fd5b612af260008383612ce0565b612b4381600260008573ffffffffffffffffffffffffffffffffffffffff1673ffffffffffffffffffffffffffffffffffffffff168152602001908152602001600020612d0a90919063ffffffff16565b50612b5a81836003612d249092919063ffffffff16565b50808273ffffffffffffffffffffffffffffffffffffffff16600073ffffffffffffffffffffffffffffffffffffffff167fddf252ad1be2c89b69c2b068fc378daa952ba7f163c4a11628f55a4df523b3ef60405160405180910390a45050565b612bc482611fe4565b612c19576040517f08c379a000000000000000000000000000000000000000000000000000000000815260040180806020018281038252602c815260200180613cba602c913960400191505060405180910390fd5b80600960008481526020019081526020016000209080519060200190612c40929190613917565b505050565b6000612c5183836130e6565b612caa578260000182908060018154018082558091505060019003906000526020600020016000909190919091505582600001805490508360010160008481526020019081526020016000208190555060019050612caf565b600090505b92915050565b6000612cc7836000018360001b613322565b905092915050565b600081600001805490509050919050565b612ceb838383613345565b505050565b6000612d02836000018360001b6133b3565b905092915050565b6000612d1c836000018360001b612c45565b905092915050565b6000612d50846000018460001b8473ffffffffffffffffffffffffffffffffffffffff1660001b61349b565b90509392505050565b600081836000018054905011612dba576040517f08c379a0000000000000000000000000000000000000000000000000000000008152600401808060200182810382526022815260200180613a0b6022913960400191505060405180910390fd5b826000018281548110612dc957fe5b9060005260206000200154905092915050565b6000612e04836000018373ffffffffffffffffffffffffffffffffffffffff1660001b6133b3565b905092915050565b6000612e1782611494565b9050612e2581600084612ce0565b612e30600083612009565b60006009600084815260200190815260200160002080546001816001161561010002031660029004905014612e7f57600960008381526020019081526020016000206000612e7e91906139a5565b5b612ed082600260008473ffffffffffffffffffffffffffffffffffffffff1673ffffffffffffffffffffffffffffffffffffffff168152602001908152602001600020612cf090919063ffffffff16565b50612ee582600361357790919063ffffffff16565b5081600073ffffffffffffffffffffffffffffffffffffffff168273ffffffffffffffffffffffffffffffffffffffff167fddf252ad1be2c89b69c2b068fc378daa952ba7f163c4a11628f55a4df523b3ef60405160405180910390a45050565b60008082846000018054905011612fa8576040517f08c379a0000000000000000000000000000000000000000000000000000000008152600401808060200182810382526022815260200180613c6c6022913960400191505060405180910390fd5b6000846000018481548110612fb957fe5b906000526020600020906002020190508060000154816001015492509250509250929050565b600080846001016000858152602001908152602001600020549050600081141583906130a6576040517f08c379a00000000000000000000000000000000000000000000000000000000081526004018080602001828103825283818151815260200191508051906020019080838360005b8381101561306b578082015181840152602081019050613050565b50505050905090810190601f1680156130985780820380516001836020036101000a031916815260200191505b509250505060405180910390fd5b508460000160018203815481106130b957fe5b9060005260206000209060020201600101549150509392505050565b600081600001805490509050919050565b600080836001016000848152602001908152602001600020541415905092915050565b600061312a8473ffffffffffffffffffffffffffffffffffffffff16613591565b613137576001905061331a565b60006132a163150b7a0260e01b61314c612001565b888787604051602401808573ffffffffffffffffffffffffffffffffffffffff1681526020018473ffffffffffffffffffffffffffffffffffffffff16815260200183815260200180602001828103825283818151815260200191508051906020019080838360005b838110156131d05780820151818401526020810190506131b5565b50505050905090810190601f1680156131fd5780820380516001836020036101000a031916815260200191505b5095505050505050604051602081830303815290604052907bffffffffffffffffffffffffffffffffffffffffffffffffffffffff19166020820180517bffffffffffffffffffffffffffffffffffffffffffffffffffffffff8381831617835250505050604051806060016040528060328152602001613a87603291398773ffffffffffffffffffffffffffffffffffffffff166135dc9092919063ffffffff16565b905060008180602001905160208110156132ba57600080fd5b8101908080519060200190929190505050905063150b7a0260e01b7bffffffffffffffffffffffffffffffffffffffffffffffffffffffff1916817bffffffffffffffffffffffffffffffffffffffffffffffffffffffff191614925050505b949350505050565b600080836001016000848152602001908152602001600020541415905092915050565b6133508383836135f4565b61335861147d565b156133ae576040517f08c379a000000000000000000000000000000000000000000000000000000000815260040180806020018281038252602b815260200180613a2d602b913960400191505060405180910390fd5b505050565b6000808360010160008481526020019081526020016000205490506000811461348f57600060018203905060006001866000018054905003905060008660000182815481106133fe57fe5b906000526020600020015490508087600001848154811061341b57fe5b906000526020600020018190555060018301876001016000838152602001908152602001600020819055508660000180548061345357fe5b60019003818190600052602060002001600090559055866001016000878152602001908152602001600020600090556001945050505050613495565b60009150505b92915050565b600080846001016000858152602001908152602001600020549050600081141561354257846000016040518060400160405280868152602001858152509080600181540180825580915050600190039060005260206000209060020201600090919091909150600082015181600001556020820151816001015550508460000180549050856001016000868152602001908152602001600020819055506001915050613570565b8285600001600183038154811061355557fe5b90600052602060002090600202016001018190555060009150505b9392505050565b6000613589836000018360001b6135f9565b905092915050565b60008060007fc5d2460186f7233c927e7db2dcc703c0e500b653ca82273b7bfad8045d85a47060001b9050833f91508082141580156135d357506000801b8214155b92505050919050565b60606135eb8484600085613712565b90509392505050565b505050565b60008083600101600084815260200190815260200160002054905060008114613706576000600182039050600060018660000180549050039050600086600001828154811061364457fe5b906000526020600020906002020190508087600001848154811061366457fe5b90600052602060002090600202016000820154816000015560018201548160010155905050600183018760010160008360000154815260200190815260200160002081905550866000018054806136b757fe5b600190038181906000526020600020906002020160008082016000905560018201600090555050905586600101600087815260200190815260200160002060009055600194505050505061370c565b60009150505b92915050565b606061371d85613591565b61378f576040517f08c379a000000000000000000000000000000000000000000000000000000000815260040180806020018281038252601d8152602001807f416464726573733a2063616c6c20746f206e6f6e2d636f6e747261637400000081525060200191505060405180910390fd5b6000808673ffffffffffffffffffffffffffffffffffffffff1685876040518082805190602001908083835b602083106137de57805182526020820191506020810190506020830392506137bb565b6001836020036101000a03801982511681845116808217855250505050505090500191505060006040518083038185875af1925050503d8060008114613840576040519150601f19603f3d011682016040523d82523d6000602084013e613845565b606091505b5091509150811561385a57809250505061390f565b60008151111561386d5780518082602001fd5b836040517f08c379a00000000000000000000000000000000000000000000000000000000081526004018080602001828103825283818151815260200191508051906020019080838360005b838110156138d45780820151818401526020810190506138b9565b50505050905090810190601f1680156139015780820380516001836020036101000a031916815260200191505b509250505060405180910390fd5b949350505050565b828054600181600116156101000203166002900490600052602060002090601f01602090048101928261394d5760008555613994565b82601f1061396657805160ff1916838001178555613994565b82800160010185558215613994579182015b82811115613993578251825591602001919060010190613978565b5b5090506139a191906139ed565b5090565b50805460018160011615610100020316600290046000825580601f106139cb57506139ea565b601f0160209004906000526020600020908101906139e991906139ed565b5b50565b5b80821115613a065760008160009055506001016139ee565b509056fe456e756d657261626c655365743a20696e646578206f7574206f6620626f756e64734552433732315061757361626c653a20746f6b656e207472616e73666572207768696c6520706175736564416363657373436f6e74726f6c3a2073656e646572206d75737420626520616e2061646d696e20746f206772616e744552433732313a207472616e7366657220746f206e6f6e20455243373231526563656976657220696d706c656d656e7465724552433732314d696e7465724275726e65725061757365723a206d75737420686176652061646d696e20726f6c6520746f206d696e744552433732313a207472616e7366657220746f20746865207a65726f20616464726573734552433732313a206f70657261746f7220717565727920666f72206e6f6e6578697374656e7420746f6b656e4552433732314d696e7465724275726e65725061757365723a206d75737420686176652070617573657220726f6c6520746f2070617573654552433732314d696e7465724275726e65725061757365723a206d75737420686176652070617573657220726f6c6520746f20756e7061757365416363657373436f6e74726f6c3a2073656e646572206d75737420626520616e2061646d696e20746f207265766f6b654552433732313a20617070726f76652063616c6c6572206973206e6f74206f776e6572206e6f7220617070726f76656420666f7220616c6c4552433732313a2062616c616e636520717565727920666f7220746865207a65726f20616464726573734552433732313a206f776e657220717565727920666f72206e6f6e6578697374656e7420746f6b656e456e756d657261626c654d61703a20696e646578206f7574206f6620626f756e64734552433732313a20617070726f76656420717565727920666f72206e6f6e6578697374656e7420746f6b656e4552433732314d657461646174613a2055524920736574206f66206e6f6e6578697374656e7420746f6b656e4552433732313a207472616e73666572206f6620746f6b656e2074686174206973206e6f74206f776e4552433732314d657461646174613a2055524920717565727920666f72206e6f6e6578697374656e7420746f6b656e4552433732313a20617070726f76616c20746f2063757272656e74206f776e65724552433732313a207472616e736665722063616c6c6572206973206e6f74206f776e6572206e6f7220617070726f7665644552433732314275726e61626c653a2063616c6c6572206973206e6f74206f776e6572206e6f7220617070726f766564416363657373436f6e74726f6c3a2063616e206f6e6c792072656e6f756e636520726f6c657320666f722073656c664552433732314d696e7465724275726e65725061757365723a206d7573742068617665206d696e74657220726f6c6520746f206d696e74a2646970667358221220d558819404f53eabe86eeb2d8e56285030e969590889df2c2fae5bb3c1158c5464736f6c63430007060033",
  "linkReferences": {},
  "deployedLinkReferences": {}
}