{
  "_format": "hh-sol-artifact-1",
  "contractName": "BasicFeeHandler",
  "sourceName": "contracts/handlers/fee/BasicFeeHandler.sol",
  "abi": [
    {
      "inputs": [
        {
          "internalType": "address",
          "name": "bridgeAddress",
          "type": "address"
        },
        {
          "internalType": "address",
          "name": "feeHandlerRouterAddress",
          "type": "address"
        }
      ],
      "stateMutability": "nonpayable",
      "type": "constructor"
    },
    {
      "anonymous": false,
      "inputs": [
        {
          "indexed": false,
          "internalType": "uint256",
          "name": "newFee",
          "type": "uint256"
        }
      ],
      "name": "FeeChanged",
      "type": "event"
    },
    {
      "anonymous": false,
      "inputs": [
        {
          "indexed": false,
          "internalType": "address",
          "name": "sender",
          "type": "address"
        },
        {
          "indexed": false,
          "internalType": "uint8",
          "name": "fromDomainID",
          "type": "uint8"
        },
        {
          "indexed": false,
          "internalType": "uint8",
          "name": "destinationDomainID",
          "type": "uint8"
        },
        {
          "indexed": false,
          "internalType": "bytes32",
          "name": "resourceID",
          "type": "bytes32"
        },
        {
          "indexed": false,
          "internalType": "uint256",
          "name": "fee",
          "type": "uint256"
        },
        {
          "indexed": false,
          "internalType": "address",
          "name": "tokenAddress",
          "type": "address"
        }
      ],
      "name": "FeeCollected",
      "type": "event"
    },
    {
      "anonymous": false,
      "inputs": [
        {
          "indexed": false,
          "internalType": "address",
          "name": "tokenAddress",
          "type": "address"
        },
        {
          "indexed": false,
          "internalType": "address",
          "name": "recipient",
          "type": "address"
        },
        {
          "indexed": false,
          "internalType": "uint256",
          "name": "amount",
          "type": "uint256"
        }
      ],
      "name": "FeeDistributed",
      "type": "event"
    },
    {
      "anonymous": false,
      "inputs": [
        {
          "indexed": true,
          "internalType": "bytes32",
          "name": "role",
          "type": "bytes32"
        },
        {
          "indexed": true,
          "internalType": "address",
          "name": "account",
          "type": "address"
        },
        {
          "indexed": true,
          "internalType": "address",
          "name": "sender",
          "type": "address"
        }
      ],
      "name": "RoleGranted",
      "type": "event"
    },
    {
      "anonymous": false,
      "inputs": [
        {
          "indexed": true,
          "internalType": "bytes32",
          "name": "role",
          "type": "bytes32"
        },
        {
          "indexed": true,
          "internalType": "address",
          "name": "account",
          "type": "address"
        },
        {
          "indexed": true,
          "internalType": "address",
          "name": "sender",
          "type": "address"
        }
      ],
      "name": "RoleRevoked",
      "type": "event"
    },
    {
      "inputs": [],
      "name": "DEFAULT_ADMIN_ROLE",
      "outputs": [
        {
          "internalType": "bytes32",
          "name": "",
          "type": "bytes32"
        }
      ],
      "stateMutability": "view",
      "type": "function"
    },
    {
      "inputs": [],
      "name": "_bridgeAddress",
      "outputs": [
        {
          "internalType": "address",
          "name": "",
          "type": "address"
        }
      ],
      "stateMutability": "view",
      "type": "function"
    },
    {
      "inputs": [],
      "name": "_fee",
      "outputs": [
        {
          "internalType": "uint256",
          "name": "",
          "type": "uint256"
        }
      ],
      "stateMutability": "view",
      "type": "function"
    },
    {
      "inputs": [],
      "name": "_feeHandlerRouterAddress",
      "outputs": [
        {
          "internalType": "address",
          "name": "",
          "type": "address"
        }
      ],
      "stateMutability": "view",
      "type": "function"
    },
    {
      "inputs": [
        {
          "internalType": "uint256",
          "name": "newFee",
          "type": "uint256"
        }
      ],
      "name": "changeFee",
      "outputs": [],
      "stateMutability": "nonpayable",
      "type": "function"
    },
    {
      "inputs": [
        {
          "internalType": "bytes32",
          "name": "role",
          "type": "bytes32"
        }
      ],
      "name": "getRoleAdmin",
      "outputs": [
        {
          "internalType": "bytes32",
          "name": "",
          "type": "bytes32"
        }
      ],
      "stateMutability": "view",
      "type": "function"
    },
    {
      "inputs": [
        {
          "internalType": "bytes32",
          "name": "role",
          "type": "bytes32"
        },
        {
          "internalType": "uint256",
          "name": "index",
          "type": "uint256"
        }
      ],
      "name": "getRoleMember",
      "outputs": [
        {
          "internalType": "address",
          "name": "",
          "type": "address"
        }
      ],
      "stateMutability": "view",
      "type": "function"
    },
    {
      "inputs": [
        {
          "internalType": "bytes32",
          "name": "role",
          "type": "bytes32"
        }
      ],
      "name": "getRoleMemberCount",
      "outputs": [
        {
          "internalType": "uint256",
          "name": "",
          "type": "uint256"
        }
      ],
      "stateMutability": "view",
      "type": "function"
    },
    {
      "inputs": [
        {
          "internalType": "bytes32",
          "name": "role",
          "type": "bytes32"
        },
        {
          "internalType": "address",
          "name": "account",
          "type": "address"
        }
      ],
      "name": "getRoleMemberIndex",
      "outputs": [
        {
          "internalType": "uint256",
          "name": "",
          "type": "uint256"
        }
      ],
      "stateMutability": "view",
      "type": "function"
    },
    {
      "inputs": [
        {
          "internalType": "bytes32",
          "name": "role",
          "type": "bytes32"
        },
        {
          "internalType": "address",
          "name": "account",
          "type": "address"
        }
      ],
      "name": "grantRole",
      "outputs": [],
      "stateMutability": "nonpayable",
      "type": "function"
    },
    {
      "inputs": [
        {
          "internalType": "bytes32",
          "name": "role",
          "type": "bytes32"
        },
        {
          "internalType": "address",
          "name": "account",
          "type": "address"
        }
      ],
      "name": "hasRole",
      "outputs": [
        {
          "internalType": "bool",
          "name": "",
          "type": "bool"
        }
      ],
      "stateMutability": "view",
      "type": "function"
    },
    {
      "inputs": [
        {
          "internalType": "address",
          "name": "newAdmin",
          "type": "address"
        }
      ],
      "name": "renounceAdmin",
      "outputs": [],
      "stateMutability": "nonpayable",
      "type": "function"
    },
    {
      "inputs": [
        {
          "internalType": "bytes32",
          "name": "role",
          "type": "bytes32"
        },
        {
          "internalType": "address",
          "name": "account",
          "type": "address"
        }
      ],
      "name": "renounceRole",
      "outputs": [],
      "stateMutability": "nonpayable",
      "type": "function"
    },
    {
      "inputs": [
        {
          "internalType": "bytes32",
          "name": "role",
          "type": "bytes32"
        },
        {
          "internalType": "address",
          "name": "account",
          "type": "address"
        }
      ],
      "name": "revokeRole",
      "outputs": [],
      "stateMutability": "nonpayable",
      "type": "function"
    },
    {
      "inputs": [
        {
          "internalType": "address payable[]",
          "name": "addrs",
          "type": "address[]"
        },
        {
          "internalType": "uint256[]",
          "name": "amounts",
          "type": "uint256[]"
        }
      ],
      "name": "transferFee",
      "outputs": [],
      "stateMutability": "nonpayable",
      "type": "function"
    }
  ],
  "bytecode": "0x60c06040523480156200001157600080fd5b50604051620018013803806200180183398181016040528101906200003791906200026f565b8173ffffffffffffffffffffffffffffffffffffffff1660808173ffffffffffffffffffffffffffffffffffffffff1660601b815250508073ffffffffffffffffffffffffffffffffffffffff1660a08173ffffffffffffffffffffffffffffffffffffffff1660601b81525050620000ba6000801b33620000c260201b60201c565b5050620002fe565b620000d48282620000d860201b60201c565b5050565b62000106816000808581526020019081526020016000206000016200017b60201b6200096f1790919060201c565b1562000177576200011c620001b360201b60201c565b73ffffffffffffffffffffffffffffffffffffffff168173ffffffffffffffffffffffffffffffffffffffff16837f2f8788117e7eff1d82e926ec794901d17c78024a50270940304540a733656f0d60405160405180910390a45b5050565b6000620001ab836000018373ffffffffffffffffffffffffffffffffffffffff1660001b620001bb60201b60201c565b905092915050565b600033905090565b6000620001cf83836200023560201b60201c565b6200022a5782600001829080600181540180825580915050600190039060005260206000200160009091909190915055826000018054905083600101600084815260200190815260200160002081905550600190506200022f565b600090505b92915050565b600080836001016000848152602001908152602001600020541415905092915050565b6000815190506200026981620002e4565b92915050565b600080604083850312156200028357600080fd5b6000620002938582860162000258565b9250506020620002a68582860162000258565b9150509250929050565b6000620002bd82620002c4565b9050919050565b600073ffffffffffffffffffffffffffffffffffffffff82169050919050565b620002ef81620002b0565b8114620002fb57600080fd5b50565b60805160601c60a05160601c6114d9620003286000398061062c5250806103b452506114d96000f3fe608060405234801561001057600080fd5b50600436106100f55760003560e01c8063745e6b6111610097578063a217fddf11610066578063a217fddf14610282578063c5b37c22146102a0578063ca15c873146102be578063d547741f146102ee576100f5565b8063745e6b61146101e85780639010d07c14610206578063904e9b2b1461023657806391d1485414610252576100f5565b806336568abe116100d357806336568abe146101645780634e0df3f6146101805780635e1fab0f146101b05780636a1db1bf146101cc576100f5565b8063248a9ca3146100fa5780632f2ff15d1461012a578063318c136e14610146575b600080fd5b610114600480360381019061010f9190610f1a565b61030a565b604051610121919061120b565b60405180910390f35b610144600480360381019061013f9190610f43565b610329565b005b61014e6103b2565b60405161015b919061119e565b60405180910390f35b61017e60048036038101906101799190610f43565b6103d6565b005b61019a60048036038101906101959190610f43565b61046f565b6040516101a791906112c6565b60405180910390f35b6101ca60048036038101906101c59190610e53565b6104bf565b005b6101e660048036038101906101e19190610fbb565b610558565b005b6101f061062a565b6040516101fd919061119e565b60405180910390f35b610220600480360381019061021b9190610f7f565b61064e565b60405161022d919061119e565b60405180910390f35b610250600480360381019061024b9190610ea5565b61067f565b005b61026c60048036038101906102679190610f43565b610882565b60405161027991906111f0565b60405180910390f35b61028a6108b3565b604051610297919061120b565b60405180910390f35b6102a86108ba565b6040516102b591906112c6565b60405180910390f35b6102d860048036038101906102d39190610f1a565b6108c0565b6040516102e591906112c6565b60405180910390f35b61030860048036038101906103039190610f43565b6108e6565b005b6000806000838152602001908152602001600020600201549050919050565b61034f6000808481526020019081526020016000206002015461034a61099f565b610882565b6103a4576040517f08c379a000000000000000000000000000000000000000000000000000000000815260040180806020018281038252602f815260200180611416602f913960400191505060405180910390fd5b6103ae82826109a7565b5050565b7f000000000000000000000000000000000000000000000000000000000000000081565b6103de61099f565b73ffffffffffffffffffffffffffffffffffffffff168173ffffffffffffffffffffffffffffffffffffffff1614610461576040517f08c379a000000000000000000000000000000000000000000000000000000000815260040180806020018281038252602f815260200180611475602f913960400191505060405180910390fd5b61046b8282610a3a565b5050565b600080600084815260200190815260200160002060000160000160010160008373ffffffffffffffffffffffffffffffffffffffff1660001b815260200190815260200160002054905092915050565b60006104c961099f565b90508173ffffffffffffffffffffffffffffffffffffffff168173ffffffffffffffffffffffffffffffffffffffff16141561053a576040517f08c379a000000000000000000000000000000000000000000000000000000000815260040161053190611246565b60405180910390fd5b6105476000801b83610329565b6105546000801b826103d6565b5050565b6105656000801b33610882565b6105a4576040517f08c379a000000000000000000000000000000000000000000000000000000000815260040161059b90611286565b60405180910390fd5b8060015414156105e9576040517f08c379a00000000000000000000000000000000000000000000000000000000081526004016105e0906112a6565b60405180910390fd5b806001819055507f6bbc57480a46553fa4d156ce702beef5f3ad66303b0ed1a5d4cb44966c6584c38160405161061f91906112c6565b60405180910390a150565b7f000000000000000000000000000000000000000000000000000000000000000081565b600061067782600080868152602001908152602001600020600001610acd90919063ffffffff16565b905092915050565b61068c6000801b33610882565b6106cb576040517f08c379a00000000000000000000000000000000000000000000000000000000081526004016106c290611286565b60405180910390fd5b818190508484905014610713576040517f08c379a000000000000000000000000000000000000000000000000000000000815260040161070a90611226565b60405180910390fd5b60005b8484905081101561087b57600085858381811061072f57fe5b90506020020160208101906107449190610e7c565b73ffffffffffffffffffffffffffffffffffffffff1684848481811061076657fe5b9050602002013560405161077990611189565b60006040518083038185875af1925050503d80600081146107b6576040519150601f19603f3d011682016040523d82523d6000602084013e6107bb565b606091505b50509050806107ff576040517f08c379a00000000000000000000000000000000000000000000000000000000081526004016107f690611266565b60405180910390fd5b7faaa40a232aaf133fdd28f3485f6fdd163514cfadbffa981f3610f42398efe34b600087878581811061082e57fe5b90506020020160208101906108439190610e7c565b86868681811061084f57fe5b90506020020135604051610865939291906111b9565b60405180910390a1508080600101915050610716565b5050505050565b60006108ab82600080868152602001908152602001600020600001610ae790919063ffffffff16565b905092915050565b6000801b81565b60015481565b60006108df600080848152602001908152602001600020600001610b17565b9050919050565b61090c6000808481526020019081526020016000206002015461090761099f565b610882565b610961576040517f08c379a00000000000000000000000000000000000000000000000000000000081526004018080602001828103825260308152602001806114456030913960400191505060405180910390fd5b61096b8282610a3a565b5050565b6000610997836000018373ffffffffffffffffffffffffffffffffffffffff1660001b610b2c565b905092915050565b600033905090565b6109ce8160008085815260200190815260200160002060000161096f90919063ffffffff16565b15610a36576109db61099f565b73ffffffffffffffffffffffffffffffffffffffff168173ffffffffffffffffffffffffffffffffffffffff16837f2f8788117e7eff1d82e926ec794901d17c78024a50270940304540a733656f0d60405160405180910390a45b5050565b610a6181600080858152602001908152602001600020600001610b9c90919063ffffffff16565b15610ac957610a6e61099f565b73ffffffffffffffffffffffffffffffffffffffff168173ffffffffffffffffffffffffffffffffffffffff16837ff6391f5c32d9c69d2a47ea670b442974b53935d1edc7fd64eb21e047a839171b60405160405180910390a45b5050565b6000610adc8360000183610bcc565b60001c905092915050565b6000610b0f836000018373ffffffffffffffffffffffffffffffffffffffff1660001b610c4f565b905092915050565b6000610b2582600001610c72565b9050919050565b6000610b388383610c4f565b610b91578260000182908060018154018082558091505060019003906000526020600020016000909190919091505582600001805490508360010160008481526020019081526020016000208190555060019050610b96565b600090505b92915050565b6000610bc4836000018373ffffffffffffffffffffffffffffffffffffffff1660001b610c83565b905092915050565b600081836000018054905011610c2d576040517f08c379a00000000000000000000000000000000000000000000000000000000081526004018080602001828103825260228152602001806113f46022913960400191505060405180910390fd5b826000018281548110610c3c57fe5b9060005260206000200154905092915050565b600080836001016000848152602001908152602001600020541415905092915050565b600081600001805490509050919050565b60008083600101600084815260200190815260200160002054905060008114610d5f5760006001820390506000600186600001805490500390506000866000018281548110610cce57fe5b9060005260206000200154905080876000018481548110610ceb57fe5b9060005260206000200181905550600183018760010160008381526020019081526020016000208190555086600001805480610d2357fe5b60019003818190600052602060002001600090559055866001016000878152602001908152602001600020600090556001945050505050610d65565b60009150505b92915050565b600081359050610d7a81611397565b92915050565b600081359050610d8f816113ae565b92915050565b60008083601f840112610da757600080fd5b8235905067ffffffffffffffff811115610dc057600080fd5b602083019150836020820283011115610dd857600080fd5b9250929050565b60008083601f840112610df157600080fd5b8235905067ffffffffffffffff811115610e0a57600080fd5b602083019150836020820283011115610e2257600080fd5b9250929050565b600081359050610e38816113c5565b92915050565b600081359050610e4d816113dc565b92915050565b600060208284031215610e6557600080fd5b6000610e7384828501610d6b565b91505092915050565b600060208284031215610e8e57600080fd5b6000610e9c84828501610d80565b91505092915050565b60008060008060408587031215610ebb57600080fd5b600085013567ffffffffffffffff811115610ed557600080fd5b610ee187828801610d95565b9450945050602085013567ffffffffffffffff811115610f0057600080fd5b610f0c87828801610ddf565b925092505092959194509250565b600060208284031215610f2c57600080fd5b6000610f3a84828501610e29565b91505092915050565b60008060408385031215610f5657600080fd5b6000610f6485828601610e29565b9250506020610f7585828601610d6b565b9150509250929050565b60008060408385031215610f9257600080fd5b6000610fa085828601610e29565b9250506020610fb185828601610e3e565b9150509250929050565b600060208284031215610fcd57600080fd5b6000610fdb84828501610e3e565b91505092915050565b610fed81611361565b82525050565b610ffc816112fd565b82525050565b61100b81611321565b82525050565b61101a8161132d565b82525050565b600061102d601f836112ec565b91507f61646472735b5d2c20616d6f756e74735b5d3a2064696666206c656e677468006000830152602082019050919050565b600061106d6017836112ec565b91507f43616e6e6f742072656e6f756e6365206f6e6573656c660000000000000000006000830152602082019050919050565b60006110ad6000836112e1565b9150600082019050919050565b60006110c76019836112ec565b91507f466565206574686572207472616e73666572206661696c6564000000000000006000830152602082019050919050565b6000611107601e836112ec565b91507f73656e64657220646f65736e277420686176652061646d696e20726f6c6500006000830152602082019050919050565b6000611147601f836112ec565b91507f43757272656e742066656520697320657175616c20746f206e657720666565006000830152602082019050919050565b61118381611357565b82525050565b6000611194826110a0565b9150819050919050565b60006020820190506111b36000830184610ff3565b92915050565b60006060820190506111ce6000830186610fe4565b6111db6020830185610fe4565b6111e8604083018461117a565b949350505050565b60006020820190506112056000830184611002565b92915050565b60006020820190506112206000830184611011565b92915050565b6000602082019050818103600083015261123f81611020565b9050919050565b6000602082019050818103600083015261125f81611060565b9050919050565b6000602082019050818103600083015261127f816110ba565b9050919050565b6000602082019050818103600083015261129f816110fa565b9050919050565b600060208201905081810360008301526112bf8161113a565b9050919050565b60006020820190506112db600083018461117a565b92915050565b600081905092915050565b600082825260208201905092915050565b600061130882611337565b9050919050565b600061131a82611337565b9050919050565b60008115159050919050565b6000819050919050565b600073ffffffffffffffffffffffffffffffffffffffff82169050919050565b6000819050919050565b600061136c82611373565b9050919050565b600061137e82611385565b9050919050565b600061139082611337565b9050919050565b6113a0816112fd565b81146113ab57600080fd5b50565b6113b78161130f565b81146113c257600080fd5b50565b6113ce8161132d565b81146113d957600080fd5b50565b6113e581611357565b81146113f057600080fd5b5056fe456e756d657261626c655365743a20696e646578206f7574206f6620626f756e6473416363657373436f6e74726f6c3a2073656e646572206d75737420626520616e2061646d696e20746f206772616e74416363657373436f6e74726f6c3a2073656e646572206d75737420626520616e2061646d696e20746f207265766f6b65416363657373436f6e74726f6c3a2063616e206f6e6c792072656e6f756e636520726f6c657320666f722073656c66a26469706673582212202b3959878df1e01f9491e6f6d69560e2a8fbc7a771f97ffa872111b93e1ff2be64736f6c63430007060033",
  "linkReferences": {},
  "deployedLinkReferences": {}
}