{
  "_format": "hh-sol-artifact-1",
  "contractName": "FeeHandlerRouter",
  "sourceName": "contracts/handlers/FeeHandlerRouter.sol",
  "abi": [
    {
      "inputs": [
        {
          "internalType": "address",
          "name": "bridgeAddress",
          "type": "address"
        }
      ],
      "stateMutability": "nonpayable",
      "type": "constructor"
    },
    {
      "anonymous": false,
      "inputs": [
        {
          "indexed": false,
          "internalType": "uint256",
          "name": "newFee",
          "type": "uint256"
        }
      ],
      "name": "FeeChanged",
      "type": "event"
    },
    {
      "anonymous": false,
      "inputs": [
        {
          "indexed": false,
          "internalType": "address",
          "name": "sender",
          "type": "address"
        },
        {
          "indexed": false,
          "internalType": "uint8",
          "name": "fromDomainID",
          "type": "uint8"
        },
        {
          "indexed": false,
          "internalType": "uint8",
          "name": "destinationDomainID",
          "type": "uint8"
        },
        {
          "indexed": false,
          "internalType": "bytes32",
          "name": "resourceID",
          "type": "bytes32"
        },
        {
          "indexed": false,
          "internalType": "uint256",
          "name": "fee",
          "type": "uint256"
        },
        {
          "indexed": false,
          "internalType": "address",
          "name": "tokenAddress",
          "type": "address"
        }
      ],
      "name": "FeeCollected",
      "type": "event"
    },
    {
      "anonymous": false,
      "inputs": [
        {
          "indexed": false,
          "internalType": "address",
          "name": "tokenAddress",
          "type": "address"
        },
        {
          "indexed": false,
          "internalType": "address",
          "name": "recipient",
          "type": "address"
        },
        {
          "indexed": false,
          "internalType": "uint256",
          "name": "amount",
          "type": "uint256"
        }
      ],
      "name": "FeeDistributed",
      "type": "event"
    },
    {
      "anonymous": false,
      "inputs": [
        {
          "indexed": true,
          "internalType": "bytes32",
          "name": "role",
          "type": "bytes32"
        },
        {
          "indexed": true,
          "internalType": "address",
          "name": "account",
          "type": "address"
        },
        {
          "indexed": true,
          "internalType": "address",
          "name": "sender",
          "type": "address"
        }
      ],
      "name": "RoleGranted",
      "type": "event"
    },
    {
      "anonymous": false,
      "inputs": [
        {
          "indexed": true,
          "internalType": "bytes32",
          "name": "role",
          "type": "bytes32"
        },
        {
          "indexed": true,
          "internalType": "address",
          "name": "account",
          "type": "address"
        },
        {
          "indexed": true,
          "internalType": "address",
          "name": "sender",
          "type": "address"
        }
      ],
      "name": "RoleRevoked",
      "type": "event"
    },
    {
      "inputs": [],
      "name": "DEFAULT_ADMIN_ROLE",
      "outputs": [
        {
          "internalType": "bytes32",
          "name": "",
          "type": "bytes32"
        }
      ],
      "stateMutability": "view",
      "type": "function"
    },
    {
      "inputs": [],
      "name": "_bridgeAddress",
      "outputs": [
        {
          "internalType": "address",
          "name": "",
          "type": "address"
        }
      ],
      "stateMutability": "view",
      "type": "function"
    },
    {
      "inputs": [
        {
          "internalType": "uint8",
          "name": "",
          "type": "uint8"
        },
        {
          "internalType": "bytes32",
          "name": "",
          "type": "bytes32"
        }
      ],
      "name": "_domainResourceIDToFeeHandlerAddress",
      "outputs": [
        {
          "internalType": "contract IFeeHandler",
          "name": "",
          "type": "address"
        }
      ],
      "stateMutability": "view",
      "type": "function"
    },
    {
      "inputs": [
        {
          "internalType": "uint8",
          "name": "destinationDomainID",
          "type": "uint8"
        },
        {
          "internalType": "bytes32",
          "name": "resourceID",
          "type": "bytes32"
        },
        {
          "internalType": "contract IFeeHandler",
          "name": "handlerAddress",
          "type": "address"
        }
      ],
      "name": "adminSetResourceHandler",
      "outputs": [],
      "stateMutability": "nonpayable",
      "type": "function"
    },
    {
      "inputs": [
        {
          "internalType": "bytes32",
          "name": "role",
          "type": "bytes32"
        }
      ],
      "name": "getRoleAdmin",
      "outputs": [
        {
          "internalType": "bytes32",
          "name": "",
          "type": "bytes32"
        }
      ],
      "stateMutability": "view",
      "type": "function"
    },
    {
      "inputs": [
        {
          "internalType": "bytes32",
          "name": "role",
          "type": "bytes32"
        },
        {
          "internalType": "uint256",
          "name": "index",
          "type": "uint256"
        }
      ],
      "name": "getRoleMember",
      "outputs": [
        {
          "internalType": "address",
          "name": "",
          "type": "address"
        }
      ],
      "stateMutability": "view",
      "type": "function"
    },
    {
      "inputs": [
        {
          "internalType": "bytes32",
          "name": "role",
          "type": "bytes32"
        }
      ],
      "name": "getRoleMemberCount",
      "outputs": [
        {
          "internalType": "uint256",
          "name": "",
          "type": "uint256"
        }
      ],
      "stateMutability": "view",
      "type": "function"
    },
    {
      "inputs": [
        {
          "internalType": "bytes32",
          "name": "role",
          "type": "bytes32"
        },
        {
          "internalType": "address",
          "name": "account",
          "type": "address"
        }
      ],
      "name": "getRoleMemberIndex",
      "outputs": [
        {
          "internalType": "uint256",
          "name": "",
          "type": "uint256"
        }
      ],
      "stateMutability": "view",
      "type": "function"
    },
    {
      "inputs": [
        {
          "internalType": "bytes32",
          "name": "role",
          "type": "bytes32"
        },
        {
          "internalType": "address",
          "name": "account",
          "type": "address"
        }
      ],
      "name": "grantRole",
      "outputs": [],
      "stateMutability": "nonpayable",
      "type": "function"
    },
    {
      "inputs": [
        {
          "internalType": "bytes32",
          "name": "role",
          "type": "bytes32"
        },
        {
          "internalType": "address",
          "name": "account",
          "type": "address"
        }
      ],
      "name": "hasRole",
      "outputs": [
        {
          "internalType": "bool",
          "name": "",
          "type": "bool"
        }
      ],
      "stateMutability": "view",
      "type": "function"
    },
    {
      "inputs": [
        {
          "internalType": "bytes32",
          "name": "role",
          "type": "bytes32"
        },
        {
          "internalType": "address",
          "name": "account",
          "type": "address"
        }
      ],
      "name": "renounceRole",
      "outputs": [],
      "stateMutability": "nonpayable",
      "type": "function"
    },
    {
      "inputs": [
        {
          "internalType": "bytes32",
          "name": "role",
          "type": "bytes32"
        },
        {
          "internalType": "address",
          "name": "account",
          "type": "address"
        }
      ],
      "name": "revokeRole",
      "outputs": [],
      "stateMutability": "nonpayable",
      "type": "function"
    }
  ],
  "bytecode": "0x60a06040523480156200001157600080fd5b50604051620011f0380380620011f0833981810160405281019062000037919062000237565b8073ffffffffffffffffffffffffffffffffffffffff1660808173ffffffffffffffffffffffffffffffffffffffff1660601b81525050620000836000801b336200008a60201b60201c565b50620002b1565b6200009c8282620000a060201b60201c565b5050565b620000ce816000808581526020019081526020016000206000016200014360201b6200060a1790919060201c565b156200013f57620000e46200017b60201b60201c565b73ffffffffffffffffffffffffffffffffffffffff168173ffffffffffffffffffffffffffffffffffffffff16837f2f8788117e7eff1d82e926ec794901d17c78024a50270940304540a733656f0d60405160405180910390a45b5050565b600062000173836000018373ffffffffffffffffffffffffffffffffffffffff1660001b6200018360201b60201c565b905092915050565b600033905090565b6000620001978383620001fd60201b60201c565b620001f2578260000182908060018154018082558091505060019003906000526020600020016000909190919091505582600001805490508360010160008481526020019081526020016000208190555060019050620001f7565b600090505b92915050565b600080836001016000848152602001908152602001600020541415905092915050565b600081519050620002318162000297565b92915050565b6000602082840312156200024a57600080fd5b60006200025a8482850162000220565b91505092915050565b6000620002708262000277565b9050919050565b600073ffffffffffffffffffffffffffffffffffffffff82169050919050565b620002a28162000263565b8114620002ae57600080fd5b50565b60805160601c610f21620002cf600039806103a55250610f216000f3fe608060405234801561001057600080fd5b50600436106100b45760003560e01c80634e0df3f6116100715780634e0df3f61461018b5780639010d07c146101bb57806391d14854146101eb578063a217fddf1461021b578063ca15c87314610239578063d547741f14610269576100b4565b80631af5fe38146100b9578063248a9ca3146100d55780632f2ff15d14610105578063318c136e1461012157806336568abe1461013f5780633d94ebc61461015b575b600080fd5b6100d360048036038101906100ce9190610ba1565b610285565b005b6100ef60048036038101906100ea9190610ac4565b6102fb565b6040516100fc9190610cb1565b60405180910390f35b61011f600480360381019061011a9190610aed565b61031a565b005b6101296103a3565b6040516101369190610c7b565b60405180910390f35b61015960048036038101906101549190610aed565b6103c7565b005b61017560048036038101906101709190610b65565b610460565b6040516101829190610ccc565b60405180910390f35b6101a560048036038101906101a09190610aed565b6104a2565b6040516101b29190610d07565b60405180910390f35b6101d560048036038101906101d09190610b29565b6104f2565b6040516101e29190610c7b565b60405180910390f35b61020560048036038101906102009190610aed565b610523565b6040516102129190610c96565b60405180910390f35b610223610554565b6040516102309190610cb1565b60405180910390f35b610253600480360381019061024e9190610ac4565b61055b565b6040516102609190610d07565b60405180910390f35b610283600480360381019061027e9190610aed565b610581565b005b61028d61063a565b80600160008560ff1660ff168152602001908152602001600020600084815260200190815260200160002060006101000a81548173ffffffffffffffffffffffffffffffffffffffff021916908373ffffffffffffffffffffffffffffffffffffffff160217905550505050565b6000806000838152602001908152602001600020600201549050919050565b6103406000808481526020019081526020016000206002015461033b61068f565b610523565b610395576040517f08c379a000000000000000000000000000000000000000000000000000000000815260040180806020018281038252602f815260200180610e5e602f913960400191505060405180910390fd5b61039f8282610697565b5050565b7f000000000000000000000000000000000000000000000000000000000000000081565b6103cf61068f565b73ffffffffffffffffffffffffffffffffffffffff168173ffffffffffffffffffffffffffffffffffffffff1614610452576040517f08c379a000000000000000000000000000000000000000000000000000000000815260040180806020018281038252602f815260200180610ebd602f913960400191505060405180910390fd5b61045c828261072a565b5050565b60016020528160005260406000206020528060005260406000206000915091509054906101000a900473ffffffffffffffffffffffffffffffffffffffff1681565b600080600084815260200190815260200160002060000160000160010160008373ffffffffffffffffffffffffffffffffffffffff1660001b815260200190815260200160002054905092915050565b600061051b826000808681526020019081526020016000206000016107bd90919063ffffffff16565b905092915050565b600061054c826000808681526020019081526020016000206000016107d790919063ffffffff16565b905092915050565b6000801b81565b600061057a600080848152602001908152602001600020600001610807565b9050919050565b6105a7600080848152602001908152602001600020600201546105a261068f565b610523565b6105fc576040517f08c379a0000000000000000000000000000000000000000000000000000000008152600401808060200182810382526030815260200180610e8d6030913960400191505060405180910390fd5b610606828261072a565b5050565b6000610632836000018373ffffffffffffffffffffffffffffffffffffffff1660001b61081c565b905092915050565b61064e6000801b61064961068f565b610523565b61068d576040517f08c379a000000000000000000000000000000000000000000000000000000000815260040161068490610ce7565b60405180910390fd5b565b600033905090565b6106be8160008085815260200190815260200160002060000161060a90919063ffffffff16565b15610726576106cb61068f565b73ffffffffffffffffffffffffffffffffffffffff168173ffffffffffffffffffffffffffffffffffffffff16837f2f8788117e7eff1d82e926ec794901d17c78024a50270940304540a733656f0d60405160405180910390a45b5050565b6107518160008085815260200190815260200160002060000161088c90919063ffffffff16565b156107b95761075e61068f565b73ffffffffffffffffffffffffffffffffffffffff168173ffffffffffffffffffffffffffffffffffffffff16837ff6391f5c32d9c69d2a47ea670b442974b53935d1edc7fd64eb21e047a839171b60405160405180910390a45b5050565b60006107cc83600001836108bc565b60001c905092915050565b60006107ff836000018373ffffffffffffffffffffffffffffffffffffffff1660001b61093f565b905092915050565b600061081582600001610962565b9050919050565b6000610828838361093f565b610881578260000182908060018154018082558091505060019003906000526020600020016000909190919091505582600001805490508360010160008481526020019081526020016000208190555060019050610886565b600090505b92915050565b60006108b4836000018373ffffffffffffffffffffffffffffffffffffffff1660001b610973565b905092915050565b60008183600001805490501161091d576040517f08c379a0000000000000000000000000000000000000000000000000000000008152600401808060200182810382526022815260200180610e3c6022913960400191505060405180910390fd5b82600001828154811061092c57fe5b9060005260206000200154905092915050565b600080836001016000848152602001908152602001600020541415905092915050565b600081600001805490509050919050565b60008083600101600084815260200190815260200160002054905060008114610a4f57600060018203905060006001866000018054905003905060008660000182815481106109be57fe5b90600052602060002001549050808760000184815481106109db57fe5b9060005260206000200181905550600183018760010160008381526020019081526020016000208190555086600001805480610a1357fe5b60019003818190600052602060002001600090559055866001016000878152602001908152602001600020600090556001945050505050610a55565b60009150505b92915050565b600081359050610a6a81610dc8565b92915050565b600081359050610a7f81610ddf565b92915050565b600081359050610a9481610df6565b92915050565b600081359050610aa981610e0d565b92915050565b600081359050610abe81610e24565b92915050565b600060208284031215610ad657600080fd5b6000610ae484828501610a70565b91505092915050565b60008060408385031215610b0057600080fd5b6000610b0e85828601610a70565b9250506020610b1f85828601610a5b565b9150509250929050565b60008060408385031215610b3c57600080fd5b6000610b4a85828601610a70565b9250506020610b5b85828601610a9a565b9150509250929050565b60008060408385031215610b7857600080fd5b6000610b8685828601610aaf565b9250506020610b9785828601610a70565b9150509250929050565b600080600060608486031215610bb657600080fd5b6000610bc486828701610aaf565b9350506020610bd586828701610a70565b9250506040610be686828701610a85565b9150509250925092565b610bf981610d33565b82525050565b610c0881610d45565b82525050565b610c1781610d51565b82525050565b610c2681610da4565b82525050565b6000610c39601e83610d22565b91507f73656e64657220646f65736e277420686176652061646d696e20726f6c6500006000830152602082019050919050565b610c7581610d8d565b82525050565b6000602082019050610c906000830184610bf0565b92915050565b6000602082019050610cab6000830184610bff565b92915050565b6000602082019050610cc66000830184610c0e565b92915050565b6000602082019050610ce16000830184610c1d565b92915050565b60006020820190508181036000830152610d0081610c2c565b9050919050565b6000602082019050610d1c6000830184610c6c565b92915050565b600082825260208201905092915050565b6000610d3e82610d6d565b9050919050565b60008115159050919050565b6000819050919050565b6000610d6682610d33565b9050919050565b600073ffffffffffffffffffffffffffffffffffffffff82169050919050565b6000819050919050565b600060ff82169050919050565b6000610daf82610db6565b9050919050565b6000610dc182610d6d565b9050919050565b610dd181610d33565b8114610ddc57600080fd5b50565b610de881610d51565b8114610df357600080fd5b50565b610dff81610d5b565b8114610e0a57600080fd5b50565b610e1681610d8d565b8114610e2157600080fd5b50565b610e2d81610d97565b8114610e3857600080fd5b5056fe456e756d657261626c655365743a20696e646578206f7574206f6620626f756e6473416363657373436f6e74726f6c3a2073656e646572206d75737420626520616e2061646d696e20746f206772616e74416363657373436f6e74726f6c3a2073656e646572206d75737420626520616e2061646d696e20746f207265766f6b65416363657373436f6e74726f6c3a2063616e206f6e6c792072656e6f756e636520726f6c657320666f722073656c66a2646970667358221220c13b2c673e1eeca1258958bac912c4638298fe0b1387ca2532e900d3e1b14cce64736f6c63430007060033",
  "linkReferences": {},
  "deployedLinkReferences": {}
}